{
  "contractName": "DepositContractMock",
  "abi": [
    {
      "constant": true,
      "inputs": [
        {
          "name": "",
          "type": "uint256"
        }
      ],
      "name": "mintHashToMinter",
      "outputs": [
        {
          "name": "",
          "type": "address"
        }
      ],
      "payable": false,
      "stateMutability": "view",
      "type": "function"
    },
    {
      "constant": false,
      "inputs": [],
      "name": "finalizeStake",
      "outputs": [],
      "payable": false,
      "stateMutability": "nonpayable",
      "type": "function"
    },
    {
      "constant": false,
      "inputs": [
        {
          "name": "_to",
          "type": "address"
        },
        {
          "name": "_mintHash",
          "type": "uint256"
        },
        {
          "name": "_rawTxBundle",
          "type": "bytes32[]"
        },
        {
          "name": "_txLengths",
          "type": "uint256[]"
        },
        {
          "name": "_txMsgHashes",
          "type": "bytes32[]"
        }
      ],
      "name": "challengeWithPastCustody",
      "outputs": [],
      "payable": false,
      "stateMutability": "nonpayable",
      "type": "function"
    },
    {
      "constant": true,
      "inputs": [
        {
          "name": "",
          "type": "uint256"
        }
      ],
      "name": "mintHashToAmount",
      "outputs": [
        {
          "name": "",
          "type": "uint256"
        }
      ],
      "payable": false,
      "stateMutability": "view",
      "type": "function"
    },
    {
      "constant": false,
      "inputs": [
        {
          "name": "_mintHash",
          "type": "uint256"
        }
      ],
      "name": "claim",
      "outputs": [],
      "payable": false,
      "stateMutability": "nonpayable",
      "type": "function"
    },
    {
      "constant": false,
      "inputs": [
        {
          "name": "hash",
          "type": "bytes32"
        },
        {
          "name": "sig",
          "type": "bytes"
        },
        {
          "name": "signer",
          "type": "address"
        }
      ],
      "name": "ecverify",
      "outputs": [
        {
          "name": "",
          "type": "bool"
        }
      ],
      "payable": false,
      "stateMutability": "nonpayable",
      "type": "function"
    },
    {
      "constant": false,
      "inputs": [
        {
          "name": "_mintHash",
          "type": "uint256"
        }
      ],
      "name": "claimStake",
      "outputs": [],
      "payable": false,
      "stateMutability": "nonpayable",
      "type": "function"
    },
    {
      "constant": false,
      "inputs": [
        {
          "name": "_custodianETC",
          "type": "address"
        }
      ],
      "name": "setCustodianETC",
      "outputs": [],
      "payable": false,
      "stateMutability": "nonpayable",
      "type": "function"
    },
    {
      "constant": false,
      "inputs": [
        {
          "name": "_to",
          "type": "address"
        },
        {
          "name": "_mintHash",
          "type": "uint256"
        },
        {
          "name": "_rawTxBundle",
          "type": "bytes32[]"
        },
        {
          "name": "_txLengths",
          "type": "uint256[]"
        },
        {
          "name": "_txMsgHashes",
          "type": "bytes32[]"
        },
        {
          "name": "_declaredNonce",
          "type": "uint256"
        }
      ],
      "name": "withdraw",
      "outputs": [],
      "payable": true,
      "stateMutability": "payable",
      "type": "function"
    },
    {
      "constant": false,
      "inputs": [
        {
          "name": "_to",
          "type": "address"
        },
        {
          "name": "_mintHash",
          "type": "uint256"
        },
        {
          "name": "_rawTxBundle",
          "type": "bytes32[]"
        },
        {
          "name": "_txLengths",
          "type": "uint256[]"
        },
        {
          "name": "_txMsgHashes",
          "type": "bytes32[]"
        }
      ],
      "name": "initiateChallengeWithPastCustody",
      "outputs": [],
      "payable": true,
      "stateMutability": "payable",
      "type": "function"
    },
    {
      "constant": false,
      "inputs": [
        {
          "name": "_mintHash",
          "type": "uint256"
        },
        {
          "name": "_minter",
          "type": "address"
        }
      ],
      "name": "deposit",
      "outputs": [],
      "payable": true,
      "stateMutability": "payable",
      "type": "function"
    },
    {
      "constant": false,
      "inputs": [
        {
          "name": "hash",
          "type": "bytes32"
        },
        {
          "name": "sig",
          "type": "bytes"
        }
      ],
      "name": "ecrecovery",
      "outputs": [
        {
          "name": "",
          "type": "address"
        }
      ],
      "payable": false,
      "stateMutability": "nonpayable",
      "type": "function"
    },
    {
      "constant": false,
      "inputs": [
        {
          "name": "_to",
          "type": "address"
        },
        {
          "name": "_mintHash",
          "type": "uint256"
        },
        {
          "name": "_rawTxBundle",
          "type": "bytes32[]"
        },
        {
          "name": "_txLengths",
          "type": "uint256[]"
        },
        {
          "name": "_txMsgHashes",
          "type": "bytes32[]"
        }
      ],
      "name": "submitCustodianDoubleSign",
      "outputs": [],
      "payable": false,
      "stateMutability": "nonpayable",
      "type": "function"
    },
    {
      "constant": false,
      "inputs": [
        {
          "name": "_tokenContract",
          "type": "address"
        }
      ],
      "name": "setTokenContract",
      "outputs": [],
      "payable": false,
      "stateMutability": "nonpayable",
      "type": "function"
    },
    {
      "constant": false,
      "inputs": [
        {
          "name": "_to",
          "type": "address"
        },
        {
          "name": "_mintHash",
          "type": "uint256"
        },
        {
          "name": "_rawTxBundle",
          "type": "bytes32[]"
        },
        {
          "name": "_txLengths",
          "type": "uint256[]"
        },
        {
          "name": "_txMsgHashes",
          "type": "bytes32[]"
        }
      ],
      "name": "challengeWithFutureCustody",
      "outputs": [],
      "payable": false,
      "stateMutability": "nonpayable",
      "type": "function"
    },
    {
      "inputs": [
        {
          "name": "_custodian",
          "type": "address"
        }
      ],
      "payable": false,
      "stateMutability": "nonpayable",
      "type": "constructor"
    },
    {
      "anonymous": false,
      "inputs": [
        {
          "indexed": true,
          "name": "depositer",
          "type": "address"
        },
        {
          "indexed": false,
          "name": "amount",
          "type": "uint256"
        },
        {
          "indexed": false,
          "name": "mintHash",
          "type": "uint256"
        },
        {
          "indexed": false,
          "name": "minter",
          "type": "address"
        }
      ],
      "name": "Deposit",
      "type": "event"
    },
    {
      "anonymous": false,
      "inputs": [
        {
          "indexed": true,
          "name": "depositer",
          "type": "address"
        },
        {
          "indexed": true,
          "name": "depositedTo",
          "type": "address"
        },
        {
          "indexed": false,
          "name": "amount",
          "type": "uint256"
        },
        {
          "indexed": true,
          "name": "blockNumber",
          "type": "uint256"
        }
      ],
      "name": "Challenge",
      "type": "event"
    },
    {
      "anonymous": false,
      "inputs": [
        {
          "indexed": false,
          "name": "mintHash",
          "type": "uint256"
        }
      ],
      "name": "ChallengeResolved",
      "type": "event"
    },
    {
      "anonymous": false,
      "inputs": [
        {
          "indexed": true,
          "name": "withdrawer",
          "type": "address"
        },
        {
          "indexed": true,
          "name": "mintHash",
          "type": "uint256"
        },
        {
          "indexed": false,
          "name": "stakedAmount",
          "type": "uint256"
        }
      ],
      "name": "Withdrawal",
      "type": "event"
    },
    {
      "anonymous": false,
      "inputs": [
        {
          "indexed": false,
          "name": "tx1",
          "type": "bytes"
        },
        {
          "indexed": false,
          "name": "tx2",
          "type": "bytes"
        },
        {
          "indexed": false,
          "name": "tx3",
          "type": "bytes"
        }
      ],
      "name": "Test",
      "type": "event"
    },
    {
      "anonymous": false,
      "inputs": [
        {
          "indexed": false,
          "name": "out",
          "type": "bytes"
        }
      ],
      "name": "Trace",
      "type": "event"
    },
    {
      "anonymous": false,
      "inputs": [
        {
          "indexed": false,
          "name": "out",
          "type": "address"
        }
      ],
      "name": "TraceAddress",
      "type": "event"
    },
    {
      "anonymous": false,
      "inputs": [
        {
          "indexed": false,
          "name": "out",
          "type": "bytes32"
        }
      ],
      "name": "Trace32",
      "type": "event"
    },
    {
      "anonymous": false,
      "inputs": [
        {
          "indexed": false,
          "name": "out",
          "type": "uint256"
        }
      ],
      "name": "TraceUint256",
      "type": "event"
    },
    {
      "constant": false,
      "inputs": [
        {
          "name": "_data",
          "type": "bytes"
        },
        {
          "name": "_i",
          "type": "uint256"
        }
      ],
      "name": "_parseData",
      "outputs": [],
      "payable": false,
      "stateMutability": "nonpayable",
      "type": "function"
    }
  ],
  "bytecode": "0x60806040526040805190810160405280600981526020017f7072655374616b6564000000000000000000000000000000000000000000000081525060009080519060200190620000519291906200026e565b5063e32e7aff7c010000000000000000000000000000000000000000000000000000000002600960006101000a81548163ffffffff02191690837c010000000000000000000000000000000000000000000000000000000090040217905550632e1a7d4d7c010000000000000000000000000000000000000000000000000000000002600960046101000a81548163ffffffff02191690837c01000000000000000000000000000000000000000000000000000000009004021790555063fe99049a7c010000000000000000000000000000000000000000000000000000000002600960086101000a81548163ffffffff02191690837c010000000000000000000000000000000000000000000000000000000090040217905550636e3c045e7c0100000000000000000000000000000000000000000000000000000000026009600c6101000a81548163ffffffff02191690837c010000000000000000000000000000000000000000000000000000000090040217905550620325aa600a55348015620001de57600080fd5b50604051602080620048b983398101806040528101908080519060200190929190505050600260009054906101000a900473ffffffffffffffffffffffffffffffffffffffff1680600260006101000a81548173ffffffffffffffffffffffffffffffffffffffff021916908373ffffffffffffffffffffffffffffffffffffffff16021790555050506200031d565b828054600181600116156101000203166002900490600052602060002090601f016020900481019282601f10620002b157805160ff1916838001178555620002e2565b82800160010185558215620002e2579182015b82811115620002e1578251825591602001919060010190620002c4565b5b509050620002f19190620002f5565b5090565b6200031a91905b8082111562000316576000816000905550600101620002fc565b5090565b90565b61458c806200032d6000396000f3006080604052600436106100e6576000357c0100000000000000000000000000000000000000000000000000000000900463ffffffff1680630c3a07eb146100eb5780632310b3841461015857806324241ebc1461016f578063360dc40b14610285578063379607f5146102c657806339cdde32146102f357806344c7d6ef146103a2578063475307ff146103cf57806359c8969e146104125780636d08e8f9146105255780636e553f651461062e57806377d32e941461066e5780638fef56cc1461072557806396b6af5a14610798578063bbcd5bbe146108ae578063d7de57c6146108f1575b600080fd5b3480156100f757600080fd5b5061011660048036038101908080359060200190929190505050610a07565b604051808273ffffffffffffffffffffffffffffffffffffffff1673ffffffffffffffffffffffffffffffffffffffff16815260200191505060405180910390f35b34801561016457600080fd5b5061016d610a3a565b005b34801561017b57600080fd5b50610283600480360381019080803573ffffffffffffffffffffffffffffffffffffffff16906020019092919080359060200190929190803590602001908201803590602001908080602002602001604051908101604052809392919081815260200183836020028082843782019150505050505091929192908035906020019082018035906020019080806020026020016040519081016040528093929190818152602001838360200280828437820191505050505050919291929080359060200190820180359060200190808060200260200160405190810160405280939291908181526020018383602002808284378201915050505050509192919290505050610bd2565b005b34801561029157600080fd5b506102b0600480360381019080803590602001909291905050506110bd565b6040518082815260200191505060405180910390f35b3480156102d257600080fd5b506102f1600480360381019080803590602001909291905050506110d5565b005b3480156102ff57600080fd5b506103886004803603810190808035600019169060200190929190803590602001908201803590602001908080601f0160208091040260200160405190810160405280939291908181526020018383808284378201915050505050509192919290803573ffffffffffffffffffffffffffffffffffffffff1690602001909291905050506112d6565b604051808215151515815260200191505060405180910390f35b3480156103ae57600080fd5b506103cd60048036038101908080359060200190929190505050611319565b005b3480156103db57600080fd5b50610410600480360381019080803573ffffffffffffffffffffffffffffffffffffffff1690602001909291905050506114c9565b005b610523600480360381019080803573ffffffffffffffffffffffffffffffffffffffff1690602001909291908035906020019092919080359060200190820180359060200190808060200260200160405190810160405280939291908181526020018383602002808284378201915050505050509192919290803590602001908201803590602001908080602002602001604051908101604052809392919081815260200183836020028082843782019150505050505091929192908035906020019082018035906020019080806020026020016040519081016040528093929190818152602001838360200280828437820191505050505050919291929080359060200190929190505050611613565b005b61062c600480360381019080803573ffffffffffffffffffffffffffffffffffffffff16906020019092919080359060200190929190803590602001908201803590602001908080602002602001604051908101604052809392919081815260200183836020028082843782019150505050505091929192908035906020019082018035906020019080806020026020016040519081016040528093929190818152602001838360200280828437820191505050505050919291929080359060200190820180359060200190808060200260200160405190810160405280939291908181526020018383602002808284378201915050505050509192919290505050611cb6565b005b61066c60048036038101908080359060200190929190803573ffffffffffffffffffffffffffffffffffffffff169060200190929190505050612248565b005b34801561067a57600080fd5b506106e36004803603810190808035600019169060200190929190803590602001908201803590602001908080601f0160208091040260200160405190810160405280939291908181526020018383808284378201915050505050509192919290505050612375565b604051808273ffffffffffffffffffffffffffffffffffffffff1673ffffffffffffffffffffffffffffffffffffffff16815260200191505060405180910390f35b34801561073157600080fd5b50610796600480360381019080803590602001908201803590602001908080601f01602080910402602001604051908101604052809392919081815260200183838082843782019150505050505091929192908035906020019092919050505061246d565b005b3480156107a457600080fd5b506108ac600480360381019080803573ffffffffffffffffffffffffffffffffffffffff1690602001909291908035906020019092919080359060200190820180359060200190808060200260200160405190810160405280939291908181526020018383602002808284378201915050505050509192919290803590602001908201803590602001908080602002602001604051908101604052809392919081815260200183836020028082843782019150505050505091929192908035906020019082018035906020019080806020026020016040519081016040528093929190818152602001838360200280828437820191505050505050919291929050505061247c565b005b3480156108ba57600080fd5b506108ef600480360381019080803573ffffffffffffffffffffffffffffffffffffffff169060200190929190505050612aa6565b005b3480156108fd57600080fd5b50610a05600480360381019080803573ffffffffffffffffffffffffffffffffffffffff16906020019092919080359060200190929190803590602001908201803590602001908080602002602001604051908101604052809392919081815260200183836020028082843782019150505050505091929192908035906020019082018035906020019080806020026020016040519081016040528093929190818152602001838360200280828437820191505050505050919291929080359060200190820180359060200190808060200260200160405190810160405280939291908181526020018383602002808284378201915050505050509192919290505050612bf0565b005b60086020528060005260406000206000915054906101000a900473ffffffffffffffffffffffffffffffffffffffff1681565b3373ffffffffffffffffffffffffffffffffffffffff16600260009054906101000a900473ffffffffffffffffffffffffffffffffffffffff1673ffffffffffffffffffffffffffffffffffffffff161415610bd05760405180807f7072655374616b65640000000000000000000000000000000000000000000000815250600901905060405180910390206000191660006040518082805460018160011615610100020316600290048015610b275780601f10610b05576101008083540402835291820191610b27565b820191906000526020600020905b815481529060010190602001808311610b13575b50509150506040518091039020600019161415610bcf573073ffffffffffffffffffffffffffffffffffffffff16316004819055503073ffffffffffffffffffffffffffffffffffffffff163160058190555060006006819055506040805190810160405280600681526020017f7374616b6564000000000000000000000000000000000000000000000000000081525060009080519060200190610bcd9291906143e6565b505b5b565b6000806060806000600b60008a81526020019081526020016000205414151515610bfb57600080fd5b42600b60008a815260200190815260200160002054111515610c1c57600080fd5b6000601060008a815260200190815260200160002054111515610c3e57600080fd5b610c4987878661305e565b600092505b85518310156110b257610d18610d138585815481101515610c6b57fe5b906000526020600020018054600181600116156101000203166002900480601f016020809104026020016040519081016040528092919081815260200182805460018160011615610100020316600290048015610d095780601f10610cde57610100808354040283529160200191610d09565b820191906000526020600020905b815481529060010190602001808311610cec57829003601f168201915b5050505050613115565b613170565b9150610dde610dd98560018601815481101515610d3157fe5b906000526020600020018054600181600116156101000203166002900480601f016020809104026020016040519081016040528092919081815260200182805460018160011615610100020316600290048015610dcf5780601f10610da457610100808354040283529160200191610dcf565b820191906000526020600020905b815481529060010190602001808311610db257829003601f168201915b5050505050613115565b613170565b9050610e0582828760018701815181101515610df657fe5b9060200190602002015161322d565b610e436000610e35610e2e856005815181101515610e1f57fe5b9060200190602002015161391f565b600361398d565b6139de90919063ffffffff16565b88141515610edf576040517f08c379a00000000000000000000000000000000000000000000000000000000081526004018080602001828103825260238152602001807f6e6565647320746f20726566657220746f207468652073616d65206d696e744881526020017f617368000000000000000000000000000000000000000000000000000000000081525060400191505060405180910390fd5b610f1d600c610f0f610f08856005815181101515610ef957fe5b9060200190602002015161391f565b600161398d565b613a0790919063ffffffff16565b73ffffffffffffffffffffffffffffffffffffffff16600860008a815260200190815260200160002060009054906101000a900473ffffffffffffffffffffffffffffffffffffffff1673ffffffffffffffffffffffffffffffffffffffff16141515611018576040517f08c379a00000000000000000000000000000000000000000000000000000000081526004018080602001828103825260358152602001807f746f6b656e206e6565647320746f206265207472616e7366657265642066726f81526020017f6d206c6173742070726f76656e20637573746f6479000000000000000000000081525060400191505060405180910390fd5b611056600c61104861104185600581518110151561103257fe5b9060200190602002015161391f565b600261398d565b613a0790919063ffffffff16565b600860008a815260200190815260200160002060006101000a81548173ffffffffffffffffffffffffffffffffffffffff021916908373ffffffffffffffffffffffffffffffffffffffff160217905550600283019250610c4e565b505050505050505050565b60076020528060005260406000206000915090505481565b6000600b600083815260200190815260200160002054141515156110f857600080fd5b42600b60008381526020019081526020016000205410151561111957600080fd5b600f60008281526020019081526020016000205460106000838152602001908152602001600020541480611160575060006010600083815260200190815260200160002054145b1515611220576040517f08c379a00000000000000000000000000000000000000000000000000000000081526004018080602001828103825260428152602001807f6569746865722061206368616c6c656e67652068617320737461727465642c2081526020017f6f7220686173206e6f74206265656e2070726f76656e20746f20656e644e6f6e81526020017f636500000000000000000000000000000000000000000000000000000000000081525060600191505060405180910390fd5b600d600082815260200190815260200160002060009054906101000a900473ffffffffffffffffffffffffffffffffffffffff1673ffffffffffffffffffffffffffffffffffffffff166108fc600e6000848152602001908152602001600020546007600085815260200190815260200160002054019081150290604051600060405180830381858888f1935050505050600060076000838152602001908152602001600020819055506112d381613a3f565b50565b60006112e28484612375565b73ffffffffffffffffffffffffffffffffffffffff168273ffffffffffffffffffffffffffffffffffffffff161490509392505050565b6000600b6000838152602001908152602001600020541415151561133c57600080fd5b42600b60008381526020019081526020016000205410151561135d57600080fd5b600f6000828152602001908152602001600020546010600083815260200190815260200160002054141580156113a757506000601060008381526020019081526020016000205414155b1515611441576040517f08c379a000000000000000000000000000000000000000000000000000000000815260040180806020018281038252602b8152602001807f6368616c6c656e6765206e6f7420696e6974617465642f77697468647261776181526020017f6c20697320686f6e65737400000000000000000000000000000000000000000081525060400191505060405180910390fd5b600d600082815260200190815260200160002060009054906101000a900473ffffffffffffffffffffffffffffffffffffffff1673ffffffffffffffffffffffffffffffffffffffff166108fc600e6000848152602001908152602001600020549081150290604051600060405180830381858888f19350505050506114c681613a3f565b50565b3373ffffffffffffffffffffffffffffffffffffffff16600260009054906101000a900473ffffffffffffffffffffffffffffffffffffffff1673ffffffffffffffffffffffffffffffffffffffff1614156116105760405180807f7072655374616b656400000000000000000000000000000000000000000000008152506009019050604051809103902060001916600060405180828054600181600116156101000203166002900480156115b65780601f106115945761010080835404028352918201916115b6565b820191906000526020600020905b8154815290600101906020018083116115a2575b5050915050604051809103902060001916141561160f5780600360006101000a81548173ffffffffffffffffffffffffffffffffffffffff021916908373ffffffffffffffffffffffffffffffffffffffff1602179055505b5b50565b600060608060606000611643866116353a600a54613b8390919063ffffffff16565b613b8390919063ffffffff16565b341015151561165157600080fd5b61165c89898761305e565b61171e61171986600081548110151561167157fe5b906000526020600020018054600181600116156101000203166002900480601f01602080910402602001604051908101604052809291908181526020018280546001816001161561010002031660029004801561170f5780601f106116e45761010080835404028352916020019161170f565b820191906000526020600020905b8154815290600101906020018083116116f257829003601f168201915b5050505050613115565b613170565b93506117e26117dd86600181548110151561173557fe5b906000526020600020018054600181600116156101000203166002900480601f0160208091040260200160405190810160405280929190818152602001828054600181600116156101000203166002900480156117d35780601f106117a8576101008083540402835291602001916117d3565b820191906000526020600020905b8154815290600101906020018083116117b657829003601f168201915b5050505050613115565b613170565b92506118a66118a18660028154811015156117f957fe5b906000526020600020018054600181600116156101000203166002900480601f0160208091040260200160405190810160405280929190818152602001828054600181600116156101000203166002900480156118975780601f1061186c57610100808354040283529160200191611897565b820191906000526020600020905b81548152906001019060200180831161187a57829003601f168201915b5050505050613115565b613170565b91506118cb83838960028151811015156118bc57fe5b9060200190602002015161322d565b611909600c6118fb6118f48660058151811015156118e557fe5b9060200190602002015161391f565b600261398d565b613a0790919063ffffffff16565b9050600160009054906101000a900473ffffffffffffffffffffffffffffffffffffffff1673ffffffffffffffffffffffffffffffffffffffff1661196585600381518110151561195657fe5b90602001906020020151613bb6565b73ffffffffffffffffffffffffffffffffffffffff1614151561198757600080fd5b600187600081518110151561199857fe5b906020019060200201516119c38660068151811015156119b457fe5b90602001906020020151613bfd565b6119e48760078151811015156119d557fe5b90602001906020020151613c50565b611a058860088151811015156119f657fe5b90602001906020020151613c50565b604051600081526020016040526040518085600019166000191681526020018460ff1660ff1681526020018360001916600019168152602001826000191660001916815260200194505050505060206040516020810390808403906000865af1158015611a76573d6000803e3d6000fd5b5050506020604051035173ffffffffffffffffffffffffffffffffffffffff168173ffffffffffffffffffffffffffffffffffffffff16141515611b48576040517f08c379a000000000000000000000000000000000000000000000000000000000815260040180806020018281038252602c8152602001807f5769746864726177616c5478206e6f74207369676e6564206279206c6173745481526020017f782072656365697069656e74000000000000000000000000000000000000000081525060400191505060405180910390fd5b6000600b60008c815260200190815260200160002054141515611b6a57600080fd5b6102584201600b60008c81526020019081526020016000208190555085600f60008c81526020019081526020016000208190555080600c60008c815260200190815260200160002060006101000a81548173ffffffffffffffffffffffffffffffffffffffff021916908373ffffffffffffffffffffffffffffffffffffffff1602179055508a600d60008c815260200190815260200160002060006101000a81548173ffffffffffffffffffffffffffffffffffffffff021916908373ffffffffffffffffffffffffffffffffffffffff16021790555034600e60008c815260200190815260200160002081905550898b73ffffffffffffffffffffffffffffffffffffffff167fdf273cb619d95419a9cd0ec88123a0538c85064229baa6363788f743fff90deb346040518082815260200191505060405180910390a35050505050505050505050565b60006060806000600b60008981526020019081526020016000205414151515611cde57600080fd5b42600b600089815260200190815260200160002054111515611cff57600080fd5b611d4c6005611d3e600f60008b815260200190815260200160002054611d303a600a54613b8390919063ffffffff16565b613b8390919063ffffffff16565b613c6590919063ffffffff16565b3410151515611d5a57600080fd5b611d6586868561305e565b611e27611e22846000815481101515611d7a57fe5b906000526020600020018054600181600116156101000203166002900480601f016020809104026020016040519081016040528092919081815260200182805460018160011615610100020316600290048015611e185780601f10611ded57610100808354040283529160200191611e18565b820191906000526020600020905b815481529060010190602001808311611dfb57829003601f168201915b5050505050613115565b613170565b9150611eeb611ee6846001815481101515611e3e57fe5b906000526020600020018054600181600116156101000203166002900480601f016020809104026020016040519081016040528092919081815260200182805460018160011615610100020316600290048015611edc5780601f10611eb157610100808354040283529160200191611edc565b820191906000526020600020905b815481529060010190602001808311611ebf57829003601f168201915b5050505050613115565b613170565b9050611f108282866001815181101515611f0157fe5b9060200190602002015161322d565b611f4e6000611f40611f39856005815181101515611f2a57fe5b9060200190602002015161391f565b600361398d565b6139de90919063ffffffff16565b87141515611fea576040517f08c379a00000000000000000000000000000000000000000000000000000000081526004018080602001828103825260238152602001807f6e6565647320746f20726566657220746f207468652073616d65206d696e744881526020017f617368000000000000000000000000000000000000000000000000000000000081525060400191505060405180910390fd5b612028600c61201a61201385600581518110151561200457fe5b9060200190602002015161391f565b600161398d565b613a0790919063ffffffff16565b73ffffffffffffffffffffffffffffffffffffffff166008600089815260200190815260200160002060009054906101000a900473ffffffffffffffffffffffffffffffffffffffff1673ffffffffffffffffffffffffffffffffffffffff16141515612123576040517f08c379a00000000000000000000000000000000000000000000000000000000081526004018080602001828103825260358152602001807f746f6b656e206e6565647320746f206265207472616e7366657265642066726f81526020017f6d206c6173742070726f76656e20637573746f6479000000000000000000000081525060400191505060405180910390fd5b612161600c61215361214c85600581518110151561213d57fe5b9060200190602002015161391f565b600261398d565b613a0790919063ffffffff16565b6008600089815260200190815260200160002060006101000a81548173ffffffffffffffffffffffffffffffffffffffff021916908373ffffffffffffffffffffffffffffffffffffffff16021790555034600e600089815260200190815260200160002060008282540192505081905550876011600089815260200190815260200160002060006101000a81548173ffffffffffffffffffffffffffffffffffffffff021916908373ffffffffffffffffffffffffffffffffffffffff160217905550600160106000898152602001908152602001600020819055505050505050505050565b3460066000828254019250508190555061227e346007600085815260200190815260200160002054613c8090919063ffffffff16565b6007600084815260200190815260200160002081905550806008600084815260200190815260200160002060006101000a81548173ffffffffffffffffffffffffffffffffffffffff021916908373ffffffffffffffffffffffffffffffffffffffff1602179055503373ffffffffffffffffffffffffffffffffffffffff167f02d7e648dd130fc184d383e55bb126ac4c9c60e8f94bf05acdf557ba2d540b47348484604051808481526020018381526020018273ffffffffffffffffffffffffffffffffffffffff1673ffffffffffffffffffffffffffffffffffffffff168152602001935050505060405180910390a25050565b6000806000806041855114151561238f5760009350612464565b602085015192506040850151915060ff6041860151169050601b8160ff1610156123ba57601b810190505b601b8160ff16141580156123d25750601c8160ff1614155b156123e05760009350612464565b600186828585604051600081526020016040526040518085600019166000191681526020018460ff1660ff1681526020018360001916600019168152602001826000191660001916815260200194505050505060206040516020810390808403906000865af1158015612457573d6000803e3d6000fd5b5050506020604051035193505b50505092915050565b612477828261398d565b505050565b600060608060608061248f88888761305e565b61255161254c8660008154811015156124a457fe5b906000526020600020018054600181600116156101000203166002900480601f0160208091040260200160405190810160405280929190818152602001828054600181600116156101000203166002900480156125425780601f1061251757610100808354040283529160200191612542565b820191906000526020600020905b81548152906001019060200180831161252557829003601f168201915b5050505050613115565b613170565b935061261561261086600181548110151561256857fe5b906000526020600020018054600181600116156101000203166002900480601f0160208091040260200160405190810160405280929190818152602001828054600181600116156101000203166002900480156126065780601f106125db57610100808354040283529160200191612606565b820191906000526020600020905b8154815290600101906020018083116125e957829003601f168201915b5050505050613115565b613170565b92506126d96126d486600281548110151561262c57fe5b906000526020600020018054600181600116156101000203166002900480601f0160208091040260200160405190810160405280929190818152602001828054600181600116156101000203166002900480156126ca5780601f1061269f576101008083540402835291602001916126ca565b820191906000526020600020905b8154815290600101906020018083116126ad57829003601f168201915b5050505050613115565b613170565b915061279d6127988660038154811015156126f057fe5b906000526020600020018054600181600116156101000203166002900480601f01602080910402602001604051908101604052809291908181526020018280546001816001161561010002031660029004801561278e5780601f106127635761010080835404028352916020019161278e565b820191906000526020600020905b81548152906001019060200180831161277157829003601f168201915b5050505050613115565b613170565b90506127c284848860018151811015156127b357fe5b9060200190602002015161322d565b6127e582828860038151811015156127d657fe5b9060200190602002015161322d565b612823600061281561280e8760058151811015156127ff57fe5b9060200190602002015161391f565b600361398d565b6139de90919063ffffffff16565b891415156128bf576040517f08c379a00000000000000000000000000000000000000000000000000000000081526004018080602001828103825260238152602001807f6e6565647320746f20726566657220746f207468652073616d65206d696e744881526020017f617368000000000000000000000000000000000000000000000000000000000081525060400191505060405180910390fd5b6128fd60006128ef6128e88560058151811015156128d957fe5b9060200190602002015161391f565b600361398d565b6139de90919063ffffffff16565b89141515612999576040517f08c379a00000000000000000000000000000000000000000000000000000000081526004018080602001828103825260238152602001807f6e6565647320746f20726566657220746f207468652073616d65206d696e744881526020017f617368000000000000000000000000000000000000000000000000000000000081525060400191505060405180910390fd5b6129d760006129c96129c28760058151811015156129b357fe5b9060200190602002015161391f565b600461398d565b6139de90919063ffffffff16565b612a156000612a07612a008660058151811015156129f157fe5b9060200190602002015161391f565b600461398d565b6139de90919063ffffffff16565b141515612a8a576040517f08c379a00000000000000000000000000000000000000000000000000000000081526004018080602001828103825260208152602001807f6e6565647320746f20726566657220746f207468652073616d65206e6f6e636581525060200191505060405180910390fd5b6000600481905550600060058190555050505050505050505050565b3373ffffffffffffffffffffffffffffffffffffffff16600260009054906101000a900473ffffffffffffffffffffffffffffffffffffffff1673ffffffffffffffffffffffffffffffffffffffff161415612bed5760405180807f7072655374616b65640000000000000000000000000000000000000000000000815250600901905060405180910390206000191660006040518082805460018160011615610100020316600290048015612b935780601f10612b71576101008083540402835291820191612b93565b820191906000526020600020905b815481529060010190602001808311612b7f575b50509150506040518091039020600019161415612bec5780600160006101000a81548173ffffffffffffffffffffffffffffffffffffffff021916908373ffffffffffffffffffffffffffffffffffffffff1602179055505b5b50565b60006060806000600b60008981526020019081526020016000205414151515612c1857600080fd5b42600b600089815260200190815260200160002054111515612c3957600080fd5b612c4486868561305e565b612d06612d01846000815481101515612c5957fe5b906000526020600020018054600181600116156101000203166002900480601f016020809104026020016040519081016040528092919081815260200182805460018160011615610100020316600290048015612cf75780601f10612ccc57610100808354040283529160200191612cf7565b820191906000526020600020905b815481529060010190602001808311612cda57829003601f168201915b5050505050613115565b613170565b9150612dca612dc5846001815481101515612d1d57fe5b906000526020600020018054600181600116156101000203166002900480601f016020809104026020016040519081016040528092919081815260200182805460018160011615610100020316600290048015612dbb5780601f10612d9057610100808354040283529160200191612dbb565b820191906000526020600020905b815481529060010190602001808311612d9e57829003601f168201915b5050505050613115565b613170565b9050612def8282866001815181101515612de057fe5b9060200190602002015161322d565b612e2d600c612e1f612e18856005815181101515612e0957fe5b9060200190602002015161391f565b600161398d565b613a0790919063ffffffff16565b73ffffffffffffffffffffffffffffffffffffffff16600c600089815260200190815260200160002060009054906101000a900473ffffffffffffffffffffffffffffffffffffffff1673ffffffffffffffffffffffffffffffffffffffff16141515612f28576040517f08c379a00000000000000000000000000000000000000000000000000000000081526004018080602001828103825260358152602001807f746f6b656e206e6565647320746f206265207472616e7366657265642066726f81526020017f6d206c6173742070726f76656e20637573746f6479000000000000000000000081525060400191505060405180910390fd5b612f666000612f58612f51856005815181101515612f4257fe5b9060200190602002015161391f565b600361398d565b6139de90919063ffffffff16565b87141515613002576040517f08c379a00000000000000000000000000000000000000000000000000000000081526004018080602001828103825260238152602001807f6e6565647320746f20726566657220746f207468652073616d65206d696e744881526020017f617368000000000000000000000000000000000000000000000000000000000081525060400191505060405180910390fd5b8773ffffffffffffffffffffffffffffffffffffffff166108fc600e60008a8152602001908152602001600020549081150290604051600060405180830381858888f193505050505061305487613a3f565b5050505050505050565b60008060009150600090505b835181101561310e576130958583868481518110151561308657fe5b90602001906020020151613c9e565b83828154811015156130a357fe5b9060005260206000200190805190602001906130c0929190614466565b506130eb84828151811015156130d257fe5b9060200190602002015183613c8090919063ffffffff16565b91506040828115156130f957fe5b0660400382019150808060010191505061306a565b5050505050565b61311d6144e6565b60008083519150600082141561314b5760408051908101604052806000815260200160008152509250613169565b60208401905060408051908101604052808281526020018381525092505b5050919050565b6060600061317c614500565b600061318785613da3565b151561319257600080fd5b61319b85613dd5565b9250826040519080825280602002602001820160405280156131d757816020015b6131c4614521565b8152602001906001900390816131bc5790505b5093506131e385613e4f565b91505b6131ef82613e97565b15613225576131fd82613ec1565b848281518110151561320b57fe5b9060200190602002018190525080806001019150506131e6565b505050919050565b600160009054906101000a900473ffffffffffffffffffffffffffffffffffffffff1673ffffffffffffffffffffffffffffffffffffffff1661328784600381518110151561327857fe5b90602001906020020151613bb6565b73ffffffffffffffffffffffffffffffffffffffff161415156132a957600080fd5b600160009054906101000a900473ffffffffffffffffffffffffffffffffffffffff1673ffffffffffffffffffffffffffffffffffffffff166133038360038151811015156132f457fe5b90602001906020020151613bb6565b73ffffffffffffffffffffffffffffffffffffffff1614151561332557600080fd5b600960089054906101000a90047c0100000000000000000000000000000000000000000000000000000000027bffffffffffffffffffffffffffffffffffffffffffffffffffffffff19166133a561339e61339786600581518110151561338857fe5b9060200190602002015161391f565b600061398d565b6000613f1d565b7bffffffffffffffffffffffffffffffffffffffffffffffffffffffff191614151561345f576040517f08c379a00000000000000000000000000000000000000000000000000000000081526004018080602001828103825260288152602001807f5f7472616e736665725478206973206e6f74207472616e7366657246726f6d2081526020017f66756e6374696f6e00000000000000000000000000000000000000000000000081525060400191505060405180910390fd5b6009600c9054906101000a90047c0100000000000000000000000000000000000000000000000000000000027bffffffffffffffffffffffffffffffffffffffffffffffffffffffff19166134df6134d86134d18560058151811015156134c257fe5b9060200190602002015161391f565b600061398d565b6000613f1d565b7bffffffffffffffffffffffffffffffffffffffffffffffffffffffff1916141515613599576040517f08c379a00000000000000000000000000000000000000000000000000000000081526004018080602001828103825260258152602001807f5f637573746f6469616e5478206973206e6f7420637573746f6469616e41707081526020017f726f76616c00000000000000000000000000000000000000000000000000000081525060400191505060405180910390fd5b6001816135bd8460068151811015156135ae57fe5b90602001906020020151613bfd565b6135de8560078151811015156135cf57fe5b90602001906020020151613c50565b6135ff8660088151811015156135f057fe5b90602001906020020151613c50565b604051600081526020016040526040518085600019166000191681526020018460ff1660ff1681526020018360001916600019168152602001826000191660001916815260200194505050505060206040516020810390808403906000865af1158015613670573d6000803e3d6000fd5b5050506020604051035173ffffffffffffffffffffffffffffffffffffffff16600360009054906101000a900473ffffffffffffffffffffffffffffffffffffffff1673ffffffffffffffffffffffffffffffffffffffff16141515613764576040517f08c379a000000000000000000000000000000000000000000000000000000000815260040180806020018281038252602a8152602001807f5f637573746f6469616e54782073686f756c64206265207369676e656420627981526020017f20637573746f6469616e0000000000000000000000000000000000000000000081525060400191505060405180910390fd5b6137cb61379261378b84600581518110151561377c57fe5b9060200190602002015161391f565b600161398d565b6137bd6137b68660058151811015156137a757fe5b9060200190602002015161391f565b600361398d565b61401690919063ffffffff16565b151561383f576040517f08c379a00000000000000000000000000000000000000000000000000000000081526004018080602001828103825260168152602001807f746f6b656e5f69647320646f206e6f74206d617463680000000000000000000081525060200191505060405180910390fd5b6138a661386d61386684600581518110151561385757fe5b9060200190602002015161391f565b600261398d565b61389861389186600581518110151561388257fe5b9060200190602002015161391f565b600461398d565b61401690919063ffffffff16565b151561391a576040517f08c379a00000000000000000000000000000000000000000000000000000000081526004018080602001828103825260138152602001807f6e6f6e63657320646f206e6f74206d617463680000000000000000000000000081525060200191505060405180910390fd5b505050565b606060008061392d84614085565b151561393857600080fd5b613941846140b6565b91509150806040519080825280601f01601f1916602001820160405280156139785781602001602082028038833980820191505090505b509250613986828483614137565b5050919050565b606060008214156139b6576139af60006005856141789092919063ffffffff16565b90506139d8565b6139d5602060018403026004016020856141789092919063ffffffff16565b90505b92915050565b600080602083018451101515156139f457600080fd5b8260208501015190508091505092915050565b60008060148301845110151515613a1d57600080fd5b6c01000000000000000000000000836020860101510490508091505092915050565b6000600e6000838152602001908152602001600020819055506000600d600083815260200190815260200160002060006101000a81548173ffffffffffffffffffffffffffffffffffffffff021916908373ffffffffffffffffffffffffffffffffffffffff1602179055506000600c600083815260200190815260200160002060006101000a81548173ffffffffffffffffffffffffffffffffffffffff021916908373ffffffffffffffffffffffffffffffffffffffff1602179055506000600f6000838152602001908152602001600020819055506000600b600083815260200190815260200160002081905550600060106000838152602001908152602001600020819055507f7874ca11ed47a2bbe287f114874e02e047a1261400f57712590c8f364b126501816040518082815260200191505060405180910390a150565b60008082840290506000841480613ba45750828482811515613ba157fe5b04145b1515613bac57fe5b8091505092915050565b6000806000613bc484614085565b1515613bcf57600080fd5b613bd8846140b6565b91509150601481141515613beb57600080fd5b600c6101000a82510492505050919050565b6000806000613c0b84614085565b1515613c1657600080fd5b613c1f846140b6565b915091506020811180613c325750600081145b15613c3c57600080fd5b806020036101000a82510492505050919050565b6000613c5b82613bfd565b6001029050919050565b6000808284811515613c7357fe5b0490508091505092915050565b6000808284019050838110151515613c9457fe5b8091505092915050565b6060806000806000613cba604088613c6590919063ffffffff16565b9250613ccf8688613c8090919063ffffffff16565b9150613ce5604083613c6590919063ffffffff16565b90505b80831015613d3157613d22613d138985815181101515613d0457fe5b90602001906020020151614205565b8561423690919063ffffffff16565b93508280600101935050613ce8565b613d93613d84600060016002604087811515613d4957fe5b06811515613d5357fe5b0403613d758c86815181101515613d6657fe5b90602001906020020151614205565b6141789092919063ffffffff16565b8561423690919063ffffffff16565b9350839450505050509392505050565b600080600083602001511415613dbc5760009150613dcf565b8260000151905060c0815160001a101591505b50919050565b600080600080600080613de787613da3565b1515613df65760009550613e45565b86600001519350835160001a9450613e0d876142c0565b840192506001876020015185010391505b8183111515613e4157613e308361434c565b830192508080600101915050613e1e565b8095505b5050505050919050565b613e57614500565b6000613e6283613da3565b1515613e6d57600080fd5b613e76836142c0565b83600001510190508282600001819052508082602001818152505050919050565b6000613ea16144e6565b826000015190508060200151816000015101836020015110915050919050565b613ec96144e6565b600080613ed584613e97565b15613f115783602001519150613eea8261434c565b90508183600001818152505080836020018181525050808201846020018181525050613f16565b600080fd5b5050919050565b60008060008090505b600481101561400b576008810260ff7f01000000000000000000000000000000000000000000000000000000000000000286838701815181101515613f6757fe5b9060200101517f010000000000000000000000000000000000000000000000000000000000000090047f010000000000000000000000000000000000000000000000000000000000000002167effffffffffffffffffffffffffffffffffffffffffffffffffffffffffffff19167bffffffffffffffffffffffffffffffffffffffffffffffffffffffff19169060020a9004821791508080600101915050613f26565b819250505092915050565b60008060019050835183518114600181146140345760009250614079565b600160208701838101602088015b60028483851001141561407457805183511415156140635760009650600093505b602083019250602081019050614042565b505050505b50508091505092915050565b60008060008360200151141561409e57600091506140b0565b8260000151905060c0815160001a1091505b50919050565b60008060008060006140c786614085565b15156140d257600080fd5b85600001519150815160001a925060808310156140f5578194506001935061412f565b60b8831015614113576001866020015103935060018201945061412e565b60b78303905080600187602001510303935060018183010194505b5b505050915091565b60006020601f83010484602085015b8284146141655760208402808301518183015260018501945050614146565b6000865160200187015250505050505050565b60608082840185511015151561418d57600080fd5b8215600081146141a8576040519150602082016040526141f9565b6040519150601f8416801560200281840101858101878315602002848b0101015b818310156141e657805183526020830192506020810190506141c9565b50868552601f19601f8301166040525050505b50809150509392505050565b6060816040516020018082600019166000191681526020019150506040516020818303038152906040529050919050565b6060806040519050835180825260208201818101602087015b8183101561426c578051835260208301925060208101905061424f565b50855192508351830184528091508282019050602086015b818310156142a15780518352602083019250602081019050614284565b50601f19601f8851850115830101166040525050508091505092915050565b600080600080846020015114156142da5760009250614345565b83600001519050805160001a915060808210156142fa5760009250614345565b60b8821080614316575060c08210158015614315575060f882105b5b156143245760019250614345565b60c082101561433b57600160b78303019250614345565b600160f783030192505b5050919050565b600080825160001a9050608081101561436857600191506143e0565b60b881101561437f576001608082030191506143df565b60c08110156143a95760b78103806020036101000a600185015104808201600101935050506143de565b60f88110156143c057600160c082030191506143dd565b60f78103806020036101000a600185015104808201600101935050505b5b5b5b50919050565b828054600181600116156101000203166002900490600052602060002090601f016020900481019282601f1061442757805160ff1916838001178555614455565b82800160010185558215614455579182015b82811115614454578251825591602001919060010190614439565b5b509050614462919061453b565b5090565b828054600181600116156101000203166002900490600052602060002090601f016020900481019282601f106144a757805160ff19168380011785556144d5565b828001600101855582156144d5579182015b828111156144d45782518255916020019190600101906144b9565b5b5090506144e2919061453b565b5090565b604080519081016040528060008152602001600081525090565b606060405190810160405280614514614521565b8152602001600081525090565b604080519081016040528060008152602001600081525090565b61455d91905b80821115614559576000816000905550600101614541565b5090565b905600a165627a7a7230582013490c4b7273110283ed1442319675b0e29c0176adf344f716b2d58f016863660029",
  "source": "pragma solidity ^0.4.24;\n\nimport \"../DepositContract.sol\";\n\ncontract DepositContractMock is DepositContract {\n  constructor(address _custodian) public\n    DepositContract(custodian)\n  { }\n\n  function _parseData(bytes _data, uint256 _i) public {\n    super.parseData(_data, _i);\n  }\n\n  // function _splitTxBundle(bytes _rawTxBundle, uint256[] _txLengths, bytes[] storage _rawTxList) public {\n  //   super.splitTxBundle(_data, _i);\n  // }\n\n\n}",
  "sourcePath": "/Users/ben/Documents/GitHub/peaceNotRelay/contracts/mocks/DepositContractMock.sol",
  "compiler": {
    "name": "solc",
    "version": "0.4.24+commit.e67f0147.Emscripten.clang"
  },
  "schemaVersion": "2.0.1",
  "updatedAt": "2018-08-17T05:29:57.690Z"
}