{
  "contractName": "DepositContractMock",
  "abi": [
    {
      "constant": false,
      "inputs": [],
      "name": "finalizeStake",
      "outputs": [],
      "payable": false,
      "stateMutability": "nonpayable",
      "type": "function"
    },
    {
      "constant": true,
      "inputs": [
        {
          "name": "",
          "type": "uint256"
        }
      ],
      "name": "mintHashToAmount",
      "outputs": [
        {
          "name": "",
          "type": "uint256"
        }
      ],
      "payable": false,
      "stateMutability": "view",
      "type": "function"
    },
    {
      "constant": false,
      "inputs": [
        {
          "name": "hash",
          "type": "bytes32"
        },
        {
          "name": "sig",
          "type": "bytes"
        },
        {
          "name": "signer",
          "type": "address"
        }
      ],
      "name": "ecverify",
      "outputs": [
        {
          "name": "",
          "type": "bool"
        }
      ],
      "payable": false,
      "stateMutability": "nonpayable",
      "type": "function"
    },
    {
      "constant": true,
      "inputs": [],
      "name": "testTx",
      "outputs": [
        {
          "name": "nonce",
          "type": "uint256"
        },
        {
          "name": "gasPrice",
          "type": "uint256"
        },
        {
          "name": "gasLimit",
          "type": "uint256"
        },
        {
          "name": "to",
          "type": "address"
        },
        {
          "name": "value",
          "type": "uint256"
        },
        {
          "name": "data",
          "type": "bytes"
        },
        {
          "name": "v",
          "type": "uint8"
        },
        {
          "name": "r",
          "type": "bytes32"
        },
        {
          "name": "s",
          "type": "bytes32"
        },
        {
          "name": "from",
          "type": "address"
        }
      ],
      "payable": false,
      "stateMutability": "view",
      "type": "function"
    },
    {
      "constant": false,
      "inputs": [
        {
          "name": "hash",
          "type": "bytes32"
        },
        {
          "name": "sig",
          "type": "bytes"
        }
      ],
      "name": "ecrecovery",
      "outputs": [
        {
          "name": "",
          "type": "address"
        }
      ],
      "payable": false,
      "stateMutability": "nonpayable",
      "type": "function"
    },
    {
      "constant": false,
      "inputs": [
        {
          "name": "_mintHash",
          "type": "uint256"
        }
      ],
      "name": "deposit",
      "outputs": [],
      "payable": true,
      "stateMutability": "payable",
      "type": "function"
    },
    {
      "constant": false,
      "inputs": [
        {
          "name": "_tokenContract",
          "type": "address"
        }
      ],
      "name": "setTokenContract",
      "outputs": [],
      "payable": false,
      "stateMutability": "nonpayable",
      "type": "function"
    },
    {
      "constant": false,
      "inputs": [
        {
          "name": "_rawTx",
          "type": "bytes"
        },
        {
          "name": "_msgHash",
          "type": "bytes32"
        }
      ],
      "name": "parse",
      "outputs": [
        {
          "name": "nonce",
          "type": "uint256"
        },
        {
          "name": "gasPrice",
          "type": "uint256"
        },
        {
          "name": "gasLimit",
          "type": "uint256"
        },
        {
          "name": "to",
          "type": "address"
        },
        {
          "name": "value",
          "type": "uint256"
        },
        {
          "name": "data",
          "type": "bytes"
        },
        {
          "name": "v",
          "type": "uint8"
        },
        {
          "name": "r",
          "type": "bytes32"
        },
        {
          "name": "s",
          "type": "bytes32"
        },
        {
          "name": "from",
          "type": "address"
        }
      ],
      "payable": false,
      "stateMutability": "nonpayable",
      "type": "function"
    },
    {
      "constant": false,
      "inputs": [
        {
          "name": "_to",
          "type": "address"
        },
        {
          "name": "_mintHash",
          "type": "uint256"
        },
        {
          "name": "_rawTxBundle",
          "type": "bytes"
        },
        {
          "name": "_txLengths",
          "type": "uint256[]"
        },
        {
          "name": "_txMsgHashes",
          "type": "bytes32[]"
        }
      ],
      "name": "withdraw",
      "outputs": [],
      "payable": false,
      "stateMutability": "nonpayable",
      "type": "function"
    },
    {
      "inputs": [
        {
          "name": "_custodian",
          "type": "address"
        }
      ],
      "payable": false,
      "stateMutability": "nonpayable",
      "type": "constructor"
    },
    {
      "anonymous": false,
      "inputs": [
        {
          "indexed": true,
          "name": "depositer",
          "type": "address"
        },
        {
          "indexed": false,
          "name": "amount",
          "type": "uint256"
        },
        {
          "indexed": false,
          "name": "mintHash",
          "type": "uint256"
        }
      ],
      "name": "Deposit",
      "type": "event"
    },
    {
      "anonymous": false,
      "inputs": [
        {
          "indexed": true,
          "name": "depositer",
          "type": "address"
        },
        {
          "indexed": true,
          "name": "depositedTo",
          "type": "address"
        },
        {
          "indexed": false,
          "name": "amount",
          "type": "uint256"
        },
        {
          "indexed": true,
          "name": "blockNumber",
          "type": "uint256"
        }
      ],
      "name": "Challenge",
      "type": "event"
    },
    {
      "anonymous": false,
      "inputs": [
        {
          "indexed": true,
          "name": "depositer",
          "type": "address"
        },
        {
          "indexed": true,
          "name": "depositedTo",
          "type": "address"
        },
        {
          "indexed": false,
          "name": "amount",
          "type": "uint256"
        },
        {
          "indexed": true,
          "name": "blockNumber",
          "type": "uint256"
        },
        {
          "indexed": false,
          "name": "signedTx",
          "type": "bytes"
        }
      ],
      "name": "ChallangeResolved",
      "type": "event"
    },
    {
      "anonymous": false,
      "inputs": [
        {
          "indexed": true,
          "name": "withdrawer",
          "type": "address"
        },
        {
          "indexed": false,
          "name": "amount",
          "type": "uint256"
        },
        {
          "indexed": true,
          "name": "blockNumber",
          "type": "uint256"
        }
      ],
      "name": "Refund",
      "type": "event"
    },
    {
      "anonymous": false,
      "inputs": [
        {
          "indexed": true,
          "name": "withdrawer",
          "type": "address"
        },
        {
          "indexed": false,
          "name": "amount",
          "type": "uint256"
        },
        {
          "indexed": true,
          "name": "blockNumber",
          "type": "uint256"
        }
      ],
      "name": "Withdrawal",
      "type": "event"
    },
    {
      "anonymous": false,
      "inputs": [
        {
          "indexed": false,
          "name": "data",
          "type": "bytes"
        },
        {
          "indexed": false,
          "name": "to",
          "type": "address"
        },
        {
          "indexed": false,
          "name": "from",
          "type": "address"
        }
      ],
      "name": "Parsed",
      "type": "event"
    },
    {
      "constant": false,
      "inputs": [
        {
          "name": "_data",
          "type": "bytes"
        },
        {
          "name": "_i",
          "type": "uint256"
        }
      ],
      "name": "_parseData",
      "outputs": [],
      "payable": false,
      "stateMutability": "nonpayable",
      "type": "function"
    }
  ],
  "bytecode": "0x60806040526040805190810160405280600981526020017f7072655374616b65640000000000000000000000000000000000000000000000815250600090805190602001906200005192919062000266565b5063e32e7aff7c010000000000000000000000000000000000000000000000000000000002600860006101000a81548163ffffffff02191690837c010000000000000000000000000000000000000000000000000000000090040217905550632e1a7d4d7c010000000000000000000000000000000000000000000000000000000002600860046101000a81548163ffffffff02191690837c0100000000000000000000000000000000000000000000000000000000900402179055506323b872dd7c0100000000000000000000000000000000000000000000000000000000026008806101000a81548163ffffffff02191690837c01000000000000000000000000000000000000000000000000000000009004021790555063eae028927c0100000000000000000000000000000000000000000000000000000000026008600c6101000a81548163ffffffff02191690837c010000000000000000000000000000000000000000000000000000000090040217905550348015620001d657600080fd5b5060405160208062001e7883398101806040528101908080519060200190929190505050600260009054906101000a900473ffffffffffffffffffffffffffffffffffffffff1680600260006101000a81548173ffffffffffffffffffffffffffffffffffffffff021916908373ffffffffffffffffffffffffffffffffffffffff160217905550505062000315565b828054600181600116156101000203166002900490600052602060002090601f016020900481019282601f10620002a957805160ff1916838001178555620002da565b82800160010185558215620002da579182015b82811115620002d9578251825591602001919060010190620002bc565b5b509050620002e99190620002ed565b5090565b6200031291905b808211156200030e576000816000905550600101620002f4565b5090565b90565b611b5380620003256000396000f3006080604052600436106100a4576000357c0100000000000000000000000000000000000000000000000000000000900463ffffffff1680632310b384146100a9578063360dc40b146100c057806339cdde32146101015780633edbbe0f146101b057806377d32e94146102ed5780638fef56cc146103a4578063b6b55f2514610417578063bbcd5bbe14610437578063c00c98be1461047a578063cab5223214610617575b600080fd5b3480156100b557600080fd5b506100be610730565b005b3480156100cc57600080fd5b506100eb600480360381019080803590602001909291905050506108db565b6040518082815260200191505060405180910390f35b34801561010d57600080fd5b506101966004803603810190808035600019169060200190929190803590602001908201803590602001908080601f0160208091040260200160405190810160405280939291908181526020018383808284378201915050505050509192919290803573ffffffffffffffffffffffffffffffffffffffff1690602001909291905050506108f3565b604051808215151515815260200191505060405180910390f35b3480156101bc57600080fd5b506101c5610936565b604051808b81526020018a81526020018981526020018873ffffffffffffffffffffffffffffffffffffffff1673ffffffffffffffffffffffffffffffffffffffff168152602001878152602001806020018660ff1660ff168152602001856000191660001916815260200184600019166000191681526020018373ffffffffffffffffffffffffffffffffffffffff1673ffffffffffffffffffffffffffffffffffffffff168152602001828103825287818151815260200191508051906020019080838360005b838110156102a957808201518184015260208101905061028e565b50505050905090810190601f1680156102d65780820380516001836020036101000a031916815260200191505b509b50505050505050505050505060405180910390f35b3480156102f957600080fd5b506103626004803603810190808035600019169060200190929190803590602001908201803590602001908080601f0160208091040260200160405190810160405280939291908181526020018383808284378201915050505050509192919290505050610a5d565b604051808273ffffffffffffffffffffffffffffffffffffffff1673ffffffffffffffffffffffffffffffffffffffff16815260200191505060405180910390f35b3480156103b057600080fd5b50610415600480360381019080803590602001908201803590602001908080601f016020809104026020016040519081016040528093929190818152602001838380828437820191505050505050919291929080359060200190929190505050610b55565b005b61043560048036038101908080359060200190929190505050610b64565b005b34801561044357600080fd5b50610478600480360381019080803573ffffffffffffffffffffffffffffffffffffffff169060200190929190505050610c0a565b005b34801561048657600080fd5b506104ef600480360381019080803590602001908201803590602001908080601f01602080910402602001604051908101604052809392919081815260200183838082843782019150505050505091929192908035600019169060200190929190505050610d54565b604051808b81526020018a81526020018981526020018873ffffffffffffffffffffffffffffffffffffffff1673ffffffffffffffffffffffffffffffffffffffff168152602001878152602001806020018660ff1660ff168152602001856000191660001916815260200184600019166000191681526020018373ffffffffffffffffffffffffffffffffffffffff1673ffffffffffffffffffffffffffffffffffffffff168152602001828103825287818151815260200191508051906020019080838360005b838110156105d35780820151818401526020810190506105b8565b50505050905090810190601f1680156106005780820380516001836020036101000a031916815260200191505b509b50505050505050505050505060405180910390f35b34801561062357600080fd5b5061072e600480360381019080803573ffffffffffffffffffffffffffffffffffffffff16906020019092919080359060200190929190803590602001908201803590602001908080601f016020809104026020016040519081016040528093929190818152602001838380828437820191505050505050919291929080359060200190820180359060200190808060200260200160405190810160405280939291908181526020018383602002808284378201915050505050509192919290803590602001908201803590602001908080602002602001604051908101604052809392919081815260200183836020028082843782019150505050505091929192905050506110b7565b005b3373ffffffffffffffffffffffffffffffffffffffff16600260009054906101000a900473ffffffffffffffffffffffffffffffffffffffff1673ffffffffffffffffffffffffffffffffffffffff1614156108d95760405180807f7072655374616b6564000000000000000000000000000000000000000000000081525060090190506040518091039020600019166000604051808280546001816001161561010002031660029004801561081d5780601f106107fb57610100808354040283529182019161081d565b820191906000526020600020905b815481529060010190602001808311610809575b505091505060405180910390206000191614156108d8573073ffffffffffffffffffffffffffffffffffffffff163160048190555061087d60023073ffffffffffffffffffffffffffffffffffffffff163161127590919063ffffffff16565b60058190555060006006819055506040805190810160405280600681526020017f7374616b65640000000000000000000000000000000000000000000000000000815250600090805190602001906108d69291906119a4565b505b5b565b60076020528060005260406000206000915090505481565b60006108ff8484610a5d565b73ffffffffffffffffffffffffffffffffffffffff168273ffffffffffffffffffffffffffffffffffffffff161490509392505050565b600b8060000154908060010154908060020154908060030160009054906101000a900473ffffffffffffffffffffffffffffffffffffffff1690806004015490806005018054600181600116156101000203166002900480601f016020809104026020016040519081016040528092919081815260200182805460018160011615610100020316600290048015610a0e5780601f106109e357610100808354040283529160200191610a0e565b820191906000526020600020905b8154815290600101906020018083116109f157829003601f168201915b5050505050908060060160009054906101000a900460ff16908060070154908060080154908060090160009054906101000a900473ffffffffffffffffffffffffffffffffffffffff1690508a565b60008060008060418551141515610a775760009350610b4c565b602085015192506040850151915060ff6041860151169050601b8160ff161015610aa257601b810190505b601b8160ff1614158015610aba5750601c8160ff1614155b15610ac85760009350610b4c565b600186828585604051600081526020016040526040518085600019166000191681526020018460ff1660ff1681526020018360001916600019168152602001826000191660001916815260200194505050505060206040516020810390808403906000865af1158015610b3f573d6000803e3d6000fd5b5050506020604051035193505b50505092915050565b610b5f8282611290565b505050565b34600660008282540192505081905550610b9a3460076000848152602001908152602001600020546112de90919063ffffffff16565b60076000838152602001908152602001600020819055503373ffffffffffffffffffffffffffffffffffffffff167f90890809c654f11d6e72a28fa60149770a0d11ec6c92319d6ceb2bb0a4ea1a153483604051808381526020018281526020019250505060405180910390a250565b3373ffffffffffffffffffffffffffffffffffffffff16600260009054906101000a900473ffffffffffffffffffffffffffffffffffffffff1673ffffffffffffffffffffffffffffffffffffffff161415610d515760405180807f7072655374616b65640000000000000000000000000000000000000000000000815250600901905060405180910390206000191660006040518082805460018160011615610100020316600290048015610cf75780601f10610cd5576101008083540402835291820191610cf7565b820191906000526020600020905b815481529060010190602001808311610ce3575b50509150506040518091039020600019161415610d505780600160006101000a81548173ffffffffffffffffffffffffffffffffffffffff021916908373ffffffffffffffffffffffffffffffffffffffff1602179055505b5b50565b600080600080600060606000806000806060610d77610d728e6112fc565b611357565b9050610d9a816000815181101515610d8b57fe5b90602001906020020151611414565b9a50610dbd816001815181101515610dae57fe5b90602001906020020151611414565b9950610de0816002815181101515610dd157fe5b90602001906020020151611414565b9850610e03816003815181101515610df457fe5b90602001906020020151611467565b9750610e26816004815181101515610e1757fe5b906020019060200201516114ae565b1515610e5057610e4d816004815181101515610e3e57fe5b90602001906020020151611414565b96505b610e71816005815181101515610e6257fe5b906020019060200201516114ae565b1515610e9b57610e98816005815181101515610e8957fe5b906020019060200201516114f1565b95505b610ebc816006815181101515610ead57fe5b90602001906020020151611414565b9450610edf816007815181101515610ed057fe5b9060200190602002015161155f565b9350610f02816008815181101515610ef357fe5b9060200190602002015161155f565b925060018c601c8686604051600081526020016040526040518085600019166000191681526020018460ff1681526020018360001916600019168152602001826000191660001916815260200194505050505060206040516020810390808403906000865af1158015610f79573d6000803e3d6000fd5b5050506020604051035191507f6084f2e20b432cf2978c012e01f2d513510bb68b8f7a22c96a6a836b191dc54a86898460405180806020018473ffffffffffffffffffffffffffffffffffffffff1673ffffffffffffffffffffffffffffffffffffffff1681526020018373ffffffffffffffffffffffffffffffffffffffff1673ffffffffffffffffffffffffffffffffffffffff168152602001828103825285818151815260200191508051906020019080838360005b8381101561104d578082015181840152602081019050611032565b50505050905090810190601f16801561107a5780820380516001836020036101000a031916815260200191505b5094505050505060405180910390a18a8a8a8a8a8a8a8a8a8a9a509a509a509a509a509a509a509a509a509a50509295989b9194979a5092959850565b60606000806110c4611a24565b60009250600091505b8551821015611156576111028387848151811015156110e857fe5b90602001906020020151896115749092919063ffffffff16565b848381518110151561111057fe5b90602001906020020181905250611147868381518110151561112e57fe5b90602001906020020151846112de90919063ffffffff16565b925081806001019250506110cd565b61119084600081518110151561116857fe5b9060200190602002015186600081518110151561118157fe5b90602001906020020151610d54565b90919293949596979850909192939495969750909192939495965090919293949550909192939450909192935090919250909150905081610120018173ffffffffffffffffffffffffffffffffffffffff1673ffffffffffffffffffffffffffffffffffffffff16815250506102584201600960008a81526020019081526020016000208190555088600a60008a815260200190815260200160002060006101000a81548173ffffffffffffffffffffffffffffffffffffffff021916908373ffffffffffffffffffffffffffffffffffffffff160217905550505050505050505050565b600080828481151561128357fe5b0490508091505092915050565b606060008214156112b9576112b260006005856115749092919063ffffffff16565b90506112d8565b6112d5602083026005016020856115749092919063ffffffff16565b90505b92915050565b60008082840190508381101515156112f257fe5b8091505092915050565b611304611aad565b6000808351915060008214156113325760408051908101604052806000815260200160008152509250611350565b60208401905060408051908101604052808281526020018381525092505b5050919050565b60606000611363611ac7565b600061136e85611601565b151561137957600080fd5b61138285611633565b9250826040519080825280602002602001820160405280156113be57816020015b6113ab611ae8565b8152602001906001900390816113a35790505b5093506113ca856116ad565b91505b6113d6826116f5565b1561140c576113e48261171f565b84828151811015156113f257fe5b9060200190602002018190525080806001019150506113cd565b505050919050565b60008060006114228461177b565b151561142d57600080fd5b611436846117ac565b9150915060208111806114495750600081145b1561145357600080fd5b806020036101000a82510492505050919050565b60008060006114758461177b565b151561148057600080fd5b611489846117ac565b9150915060148114151561149c57600080fd5b600c6101000a82510492505050919050565b60008060006114bc8461182d565b156114ca57600092506114ea565b83600001519050805160001a915060808214806114e7575060c082145b92505b5050919050565b60606000806114ff8461177b565b151561150a57600080fd5b611513846117ac565b91509150806040519080825280601f01601f19166020018201604052801561154a5781602001602082028038833980820191505090505b50925061155882848361183d565b5050919050565b600061156a82611414565b6001029050919050565b60608082840185511015151561158957600080fd5b8215600081146115a4576040519150602082016040526115f5565b6040519150601f8416801560200281840101858101878315602002848b0101015b818310156115e257805183526020830192506020810190506115c5565b50868552601f19601f8301166040525050505b50809150509392505050565b60008060008360200151141561161a576000915061162d565b8260000151905060c0815160001a101591505b50919050565b60008060008060008061164587611601565b151561165457600095506116a3565b86600001519350835160001a945061166b8761187e565b840192506001876020015185010391505b818311151561169f5761168e8361190a565b83019250808060010191505061167c565b8095505b5050505050919050565b6116b5611ac7565b60006116c083611601565b15156116cb57600080fd5b6116d48361187e565b83600001510190508282600001819052508082602001818152505050919050565b60006116ff611aad565b826000015190508060200151816000015101836020015110915050919050565b611727611aad565b600080611733846116f5565b1561176f57836020015191506117488261190a565b90508183600001818152505080836020018181525050808201846020018181525050611774565b600080fd5b5050919050565b60008060008360200151141561179457600091506117a6565b8260000151905060c0815160001a1091505b50919050565b60008060008060006117bd8661177b565b15156117c857600080fd5b85600001519150815160001a925060808310156117eb5781945060019350611825565b60b88310156118095760018660200151039350600182019450611824565b60b78303905080600187602001510303935060018183010194505b5b505050915091565b6000808260200151149050919050565b60006020601f83010484602085015b82841461186b576020840280830151818301526001850194505061184c565b6000865160200187015250505050505050565b600080600080846020015114156118985760009250611903565b83600001519050805160001a915060808210156118b85760009250611903565b60b88210806118d4575060c082101580156118d3575060f882105b5b156118e25760019250611903565b60c08210156118f957600160b78303019250611903565b600160f783030192505b5050919050565b600080825160001a90506080811015611926576001915061199e565b60b881101561193d5760016080820301915061199d565b60c08110156119675760b78103806020036101000a6001850151048082016001019350505061199c565b60f881101561197e57600160c0820301915061199b565b60f78103806020036101000a600185015104808201600101935050505b5b5b5b50919050565b828054600181600116156101000203166002900490600052602060002090601f016020900481019282601f106119e557805160ff1916838001178555611a13565b82800160010185558215611a13579182015b82811115611a125782518255916020019190600101906119f7565b5b509050611a209190611b02565b5090565b61014060405190810160405280600081526020016000815260200160008152602001600073ffffffffffffffffffffffffffffffffffffffff1681526020016000815260200160608152602001600060ff1681526020016000801916815260200160008019168152602001600073ffffffffffffffffffffffffffffffffffffffff1681525090565b604080519081016040528060008152602001600081525090565b606060405190810160405280611adb611ae8565b8152602001600081525090565b604080519081016040528060008152602001600081525090565b611b2491905b80821115611b20576000816000905550600101611b08565b5090565b905600a165627a7a72305820e72175e9622f59a41ae04a7ae97de571ce1495860f71de270b2c2d1c4afef41f0029",
  "source": "pragma solidity ^0.4.24;\n\nimport \"../DepositContract.sol\";\n\ncontract DepositContractMock is DepositContract {\n  constructor(address _custodian) public\n    DepositContract(custodian)\n  { }\n\n  function _parseData(bytes _data, uint256 _i) public {\n    super.parseData(_data, _i);\n  }\n\n  // function _parseData(bytes _data, uint256 _i) public {\n  //   super.parseData(_data, _i);\n  // }\n\n\n}",
  "sourcePath": "/Users/zhen/Code/peaceNotRelay/contracts/mocks/DepositContractMock.sol",
  "compiler": {
    "name": "solc",
    "version": "0.4.24+commit.e67f0147.Emscripten.clang"
  },
  "schemaVersion": "2.0.0",
  "updatedAt": "2018-08-06T14:08:38.458Z"
}