{
  "contractName": "DepositContract",
  "abi": [
    {
      "constant": true,
      "inputs": [],
      "name": "testTx",
      "outputs": [
        {
          "name": "nonce",
          "type": "uint256"
        },
        {
          "name": "gasPrice",
          "type": "uint256"
        },
        {
          "name": "gasLimit",
          "type": "uint256"
        },
        {
          "name": "to",
          "type": "address"
        },
        {
          "name": "value",
          "type": "uint256"
        },
        {
          "name": "data",
          "type": "bytes"
        },
        {
          "name": "v",
          "type": "uint8"
        },
        {
          "name": "r",
          "type": "bytes32"
        },
        {
          "name": "s",
          "type": "bytes32"
        },
        {
          "name": "from",
          "type": "address"
        }
      ],
      "payable": false,
      "stateMutability": "view",
      "type": "function"
    },
    {
      "constant": true,
      "inputs": [
        {
          "name": "",
          "type": "bytes32"
        }
      ],
      "name": "txLog",
      "outputs": [
        {
          "name": "",
          "type": "uint8"
        }
      ],
      "payable": false,
      "stateMutability": "view",
      "type": "function"
    },
    {
      "inputs": [
        {
          "name": "_custodian",
          "type": "address"
        }
      ],
      "payable": false,
      "stateMutability": "nonpayable",
      "type": "constructor"
    },
    {
      "anonymous": false,
      "inputs": [
        {
          "indexed": true,
          "name": "depositer",
          "type": "address"
        },
        {
          "indexed": true,
          "name": "depositedTo",
          "type": "address"
        },
        {
          "indexed": false,
          "name": "amount",
          "type": "uint256"
        },
        {
          "indexed": true,
          "name": "blockNumber",
          "type": "uint256"
        }
      ],
      "name": "Deposit",
      "type": "event"
    },
    {
      "anonymous": false,
      "inputs": [
        {
          "indexed": true,
          "name": "depositer",
          "type": "address"
        },
        {
          "indexed": true,
          "name": "depositedTo",
          "type": "address"
        },
        {
          "indexed": false,
          "name": "amount",
          "type": "uint256"
        },
        {
          "indexed": true,
          "name": "blockNumber",
          "type": "uint256"
        }
      ],
      "name": "Challenge",
      "type": "event"
    },
    {
      "anonymous": false,
      "inputs": [
        {
          "indexed": true,
          "name": "depositer",
          "type": "address"
        },
        {
          "indexed": true,
          "name": "depositedTo",
          "type": "address"
        },
        {
          "indexed": false,
          "name": "amount",
          "type": "uint256"
        },
        {
          "indexed": true,
          "name": "blockNumber",
          "type": "uint256"
        },
        {
          "indexed": false,
          "name": "signedTx",
          "type": "bytes"
        }
      ],
      "name": "ChallangeResolved",
      "type": "event"
    },
    {
      "anonymous": false,
      "inputs": [
        {
          "indexed": true,
          "name": "withdrawer",
          "type": "address"
        },
        {
          "indexed": false,
          "name": "amount",
          "type": "uint256"
        },
        {
          "indexed": true,
          "name": "blockNumber",
          "type": "uint256"
        }
      ],
      "name": "Refund",
      "type": "event"
    },
    {
      "anonymous": false,
      "inputs": [
        {
          "indexed": true,
          "name": "withdrawer",
          "type": "address"
        },
        {
          "indexed": false,
          "name": "amount",
          "type": "uint256"
        },
        {
          "indexed": true,
          "name": "blockNumber",
          "type": "uint256"
        }
      ],
      "name": "Withdrawal",
      "type": "event"
    },
    {
      "anonymous": false,
      "inputs": [
        {
          "indexed": false,
          "name": "data",
          "type": "bytes"
        },
        {
          "indexed": false,
          "name": "to",
          "type": "address"
        },
        {
          "indexed": false,
          "name": "from",
          "type": "address"
        }
      ],
      "name": "Parsed",
      "type": "event"
    },
    {
      "constant": false,
      "inputs": [
        {
          "name": "_tokenContract",
          "type": "address"
        }
      ],
      "name": "setTokenContract",
      "outputs": [],
      "payable": false,
      "stateMutability": "nonpayable",
      "type": "function"
    },
    {
      "constant": false,
      "inputs": [],
      "name": "finalizeStake",
      "outputs": [],
      "payable": false,
      "stateMutability": "nonpayable",
      "type": "function"
    },
    {
      "constant": false,
      "inputs": [],
      "name": "deposit",
      "outputs": [],
      "payable": true,
      "stateMutability": "payable",
      "type": "function"
    },
    {
      "constant": false,
      "inputs": [
        {
          "name": "rawTx",
          "type": "bytes"
        },
        {
          "name": "msgHash",
          "type": "bytes32"
        }
      ],
      "name": "submitFraud",
      "outputs": [],
      "payable": false,
      "stateMutability": "nonpayable",
      "type": "function"
    },
    {
      "constant": false,
      "inputs": [
        {
          "name": "rawTx",
          "type": "bytes"
        },
        {
          "name": "msgHash",
          "type": "bytes32"
        }
      ],
      "name": "parse",
      "outputs": [
        {
          "components": [
            {
              "name": "nonce",
              "type": "uint256"
            },
            {
              "name": "gasPrice",
              "type": "uint256"
            },
            {
              "name": "gasLimit",
              "type": "uint256"
            },
            {
              "name": "to",
              "type": "address"
            },
            {
              "name": "value",
              "type": "uint256"
            },
            {
              "name": "data",
              "type": "bytes"
            },
            {
              "name": "v",
              "type": "uint8"
            },
            {
              "name": "r",
              "type": "bytes32"
            },
            {
              "name": "s",
              "type": "bytes32"
            },
            {
              "name": "from",
              "type": "address"
            }
          ],
          "name": "transaction",
          "type": "tuple"
        }
      ],
      "payable": false,
      "stateMutability": "nonpayable",
      "type": "function"
    },
    {
      "constant": false,
      "inputs": [
        {
          "name": "hash",
          "type": "bytes32"
        },
        {
          "name": "sig",
          "type": "bytes"
        }
      ],
      "name": "ecrecovery",
      "outputs": [
        {
          "name": "",
          "type": "address"
        }
      ],
      "payable": false,
      "stateMutability": "nonpayable",
      "type": "function"
    },
    {
      "constant": false,
      "inputs": [
        {
          "name": "hash",
          "type": "bytes32"
        },
        {
          "name": "sig",
          "type": "bytes"
        },
        {
          "name": "signer",
          "type": "address"
        }
      ],
      "name": "ecverify",
      "outputs": [
        {
          "name": "",
          "type": "bool"
        }
      ],
      "payable": false,
      "stateMutability": "nonpayable",
      "type": "function"
    }
  ],
  "bytecode": "0x60806040526040805190810160405280600981526020017f7072655374616b656400000000000000000000000000000000000000000000008152506000908051906020019062000051929190620000c9565b503480156200005f57600080fd5b5060405160208062001f0883398101806040526200008191908101906200018e565b80600260006101000a81548173ffffffffffffffffffffffffffffffffffffffff021916908373ffffffffffffffffffffffffffffffffffffffff16021790555050620001da565b828054600181600116156101000203166002900490600052602060002090601f016020900481019282601f106200010c57805160ff19168380011785556200013d565b828001600101855582156200013d579182015b828111156200013c5782518255916020019190600101906200011f565b5b5090506200014c919062000150565b5090565b6200017591905b808211156200017157600081600090555060010162000157565b5090565b90565b6000620001868251620001ba565b905092915050565b600060208284031215620001a157600080fd5b6000620001b18482850162000178565b91505092915050565b600073ffffffffffffffffffffffffffffffffffffffff82169050919050565b611d1e80620001ea6000396000f300608060405260043610610099576000357c0100000000000000000000000000000000000000000000000000000000900463ffffffff1680632310b3841461009e57806339cdde32146100b55780633edbbe0f146100f257806377d32e9414610126578063bbcd5bbe14610163578063c00c98be1461018c578063d0e30db0146101c9578063e0eee8d5146101d3578063e572e7a814610210575b600080fd5b3480156100aa57600080fd5b506100b3610239565b005b3480156100c157600080fd5b506100dc60048036036100d791908101906117a1565b6103e4565b6040516100e991906119e1565b60405180910390f35b3480156100fe57600080fd5b50610107610427565b60405161011d9a99989796959493929190611ae6565b60405180910390f35b34801561013257600080fd5b5061014d6004803603610148919081019061174d565b61054e565b60405161015a91906119c6565b60405180910390f35b34801561016f57600080fd5b5061018a600480360361018591908101906116fb565b610616565b005b34801561019857600080fd5b506101b360048036036101ae9190810190611808565b610760565b6040516101c09190611ac4565b60405180910390f35b6101d1610b92565b005b3480156101df57600080fd5b506101fa60048036036101f59190810190611724565b610be1565b6040516102079190611b89565b60405180910390f35b34801561021c57600080fd5b5061023760048036036102329190810190611808565b610c01565b005b3373ffffffffffffffffffffffffffffffffffffffff16600260009054906101000a900473ffffffffffffffffffffffffffffffffffffffff1673ffffffffffffffffffffffffffffffffffffffff1614156103e25760405180807f7072655374616b656400000000000000000000000000000000000000000000008152506009019050604051809103902060001916600060405180828054600181600116156101000203166002900480156103265780601f10610304576101008083540402835291820191610326565b820191906000526020600020905b815481529060010190602001808311610312575b505091505060405180910390206000191614156103e1573073ffffffffffffffffffffffffffffffffffffffff163160048190555061038660023073ffffffffffffffffffffffffffffffffffffffff1631610e4490919063ffffffff16565b60058190555060006006819055506040805190810160405280600681526020017f7374616b65640000000000000000000000000000000000000000000000000000815250600090805190602001906103df92919061147a565b505b5b565b60006103f0848461054e565b73ffffffffffffffffffffffffffffffffffffffff168273ffffffffffffffffffffffffffffffffffffffff161490509392505050565b60098060000154908060010154908060020154908060030160009054906101000a900473ffffffffffffffffffffffffffffffffffffffff1690806004015490806005018054600181600116156101000203166002900480601f0160208091040260200160405190810160405280929190818152602001828054600181600116156101000203166002900480156104ff5780601f106104d4576101008083540402835291602001916104ff565b820191906000526020600020905b8154815290600101906020018083116104e257829003601f168201915b5050505050908060060160009054906101000a900460ff16908060070154908060080154908060090160009054906101000a900473ffffffffffffffffffffffffffffffffffffffff1690508a565b60008060008060418551141515610568576000935061060d565b602085015192506040850151915060ff6041860151169050601b8160ff16101561059357601b810190505b601b8160ff16141580156105ab5750601c8160ff1614155b156105b9576000935061060d565b600186828585604051600081526020016040526040516105dc9493929190611a41565b60206040516020810390808403906000865af1158015610600573d6000803e3d6000fd5b5050506020604051035193505b50505092915050565b3373ffffffffffffffffffffffffffffffffffffffff16600260009054906101000a900473ffffffffffffffffffffffffffffffffffffffff1673ffffffffffffffffffffffffffffffffffffffff16141561075d5760405180807f7072655374616b656400000000000000000000000000000000000000000000008152506009019050604051809103902060001916600060405180828054600181600116156101000203166002900480156107035780601f106106e1576101008083540402835291820191610703565b820191906000526020600020905b8154815290600101906020018083116106ef575b5050915050604051809103902060001916141561075c5780600160006101000a81548173ffffffffffffffffffffffffffffffffffffffff021916908373ffffffffffffffffffffffffffffffffffffffff1602179055505b5b50565b6107686114fa565b606061077b61077685610e5f565b610eba565b905061079e81600081518110151561078f57fe5b90602001906020020151610f77565b8260000181815250506107c88160018151811015156107b957fe5b90602001906020020151610f77565b8260200181815250506107f28160028151811015156107e357fe5b90602001906020020151610f77565b82604001818152505061081c81600381518110151561080d57fe5b90602001906020020151610fca565b826060019073ffffffffffffffffffffffffffffffffffffffff16908173ffffffffffffffffffffffffffffffffffffffff168152505061087481600481518110151561086557fe5b90602001906020020151611011565b15156108a55761089b81600481518110151561088c57fe5b90602001906020020151610f77565b8260800181815250505b6108c68160058151811015156108b757fe5b90602001906020020151611011565b15156108f6576108ed8160058151811015156108de57fe5b90602001906020020151611054565b8260a001819052505b61091781600681518110151561090857fe5b90602001906020020151610f77565b8260c0019060ff16908160ff168152505061094981600781518110151561093a57fe5b906020019060200201516110c2565b8260e00190600019169081600019168152505061097d81600881518110151561096e57fe5b906020019060200201516110c2565b8261010001906000191690816000191681525050600183601c8460e00151856101000151604051600081526020016040526040516109be94939291906119fc565b60206040516020810390808403906000865af11580156109e2573d6000803e3d6000fd5b5050506020604051035182610120019073ffffffffffffffffffffffffffffffffffffffff16908173ffffffffffffffffffffffffffffffffffffffff16815250507f6084f2e20b432cf2978c012e01f2d513510bb68b8f7a22c96a6a836b191dc54a8260a001518360600151846101200151604051610a6493929190611a86565b60405180910390a181600960008201518160000155602082015181600101556040820151816002015560608201518160030160006101000a81548173ffffffffffffffffffffffffffffffffffffffff021916908373ffffffffffffffffffffffffffffffffffffffff1602179055506080820151816004015560a0820151816005019080519060200190610afa929190611583565b5060c08201518160060160006101000a81548160ff021916908360ff16021790555060e0820151816007019060001916905561010082015181600801906000191690556101208201518160090160006101000a81548173ffffffffffffffffffffffffffffffffffffffff021916908373ffffffffffffffffffffffffffffffffffffffff1602179055509050508191505092915050565b34600760003373ffffffffffffffffffffffffffffffffffffffff1673ffffffffffffffffffffffffffffffffffffffff16815260200190815260200160002060008282540192505081905550565b60086020528060005260406000206000915054906101000a900460ff1681565b610c096114fa565b610c138383610760565b9050600260009054906101000a900473ffffffffffffffffffffffffffffffffffffffff16604051808273ffffffffffffffffffffffffffffffffffffffff1673ffffffffffffffffffffffffffffffffffffffff166c01000000000000000000000000028152601401915050604051809103902060001916816101200151604051808273ffffffffffffffffffffffffffffffffffffffff1673ffffffffffffffffffffffffffffffffffffffff166c01000000000000000000000000028152601401915050604051809103902060001916141515610cf257600080fd5b600160009054906101000a900473ffffffffffffffffffffffffffffffffffffffff16604051808273ffffffffffffffffffffffffffffffffffffffff1673ffffffffffffffffffffffffffffffffffffffff166c010000000000000000000000000281526014019150506040518091039020600019168160600151604051808273ffffffffffffffffffffffffffffffffffffffff1673ffffffffffffffffffffffffffffffffffffffff166c01000000000000000000000000028152601401915050604051809103902060001916141515610dce57600080fd5b600060086000846000191660001916815260200190815260200160002060009054906101000a900460ff1660ff16141515610e0857600080fd5b3373ffffffffffffffffffffffffffffffffffffffff166108fc60649081150290604051600060405180830381858888f1935050505050505050565b6000808284811515610e5257fe5b0490508091505092915050565b610e67611603565b600080835191506000821415610e955760408051908101604052806000815260200160008152509250610eb3565b60208401905060408051908101604052808281526020018381525092505b5050919050565b60606000610ec661161d565b6000610ed1856110d7565b1515610edc57600080fd5b610ee585611109565b925082604051908082528060200260200182016040528015610f2157816020015b610f0e61163e565b815260200190600190039081610f065790505b509350610f2d85611183565b91505b610f39826111cb565b15610f6f57610f47826111f5565b8482815181101515610f5557fe5b906020019060200201819052508080600101915050610f30565b505050919050565b6000806000610f8584611251565b1515610f9057600080fd5b610f9984611282565b915091506020811180610fac5750600081145b15610fb657600080fd5b806020036101000a82510492505050919050565b6000806000610fd884611251565b1515610fe357600080fd5b610fec84611282565b91509150601481141515610fff57600080fd5b600c6101000a82510492505050919050565b600080600061101f84611303565b1561102d576000925061104d565b83600001519050805160001a9150608082148061104a575060c082145b92505b5050919050565b606060008061106284611251565b151561106d57600080fd5b61107684611282565b91509150806040519080825280601f01601f1916602001820160405280156110ad5781602001602082028038833980820191505090505b5092506110bb828483611313565b5050919050565b60006110cd82610f77565b6001029050919050565b6000806000836020015114156110f05760009150611103565b8260000151905060c0815160001a101591505b50919050565b60008060008060008061111b876110d7565b151561112a5760009550611179565b86600001519350835160001a945061114187611354565b840192506001876020015185010391505b818311151561117557611164836113e0565b830192508080600101915050611152565b8095505b5050505050919050565b61118b61161d565b6000611196836110d7565b15156111a157600080fd5b6111aa83611354565b83600001510190508282600001819052508082602001818152505050919050565b60006111d5611603565b826000015190508060200151816000015101836020015110915050919050565b6111fd611603565b600080611209846111cb565b15611245578360200151915061121e826113e0565b9050818360000181815250508083602001818152505080820184602001818152505061124a565b600080fd5b5050919050565b60008060008360200151141561126a576000915061127c565b8260000151905060c0815160001a1091505b50919050565b600080600080600061129386611251565b151561129e57600080fd5b85600001519150815160001a925060808310156112c157819450600193506112fb565b60b88310156112df57600186602001510393506001820194506112fa565b60b78303905080600187602001510303935060018183010194505b5b505050915091565b6000808260200151149050919050565b60006020601f83010484602085015b8284146113415760208402808301518183015260018501945050611322565b6000865160200187015250505050505050565b6000806000808460200151141561136e57600092506113d9565b83600001519050805160001a9150608082101561138e57600092506113d9565b60b88210806113aa575060c082101580156113a9575060f882105b5b156113b857600192506113d9565b60c08210156113cf57600160b783030192506113d9565b600160f783030192505b5050919050565b600080825160001a905060808110156113fc5760019150611474565b60b881101561141357600160808203019150611473565b60c081101561143d5760b78103806020036101000a60018501510480820160010193505050611472565b60f881101561145457600160c08203019150611471565b60f78103806020036101000a600185015104808201600101935050505b5b5b5b50919050565b828054600181600116156101000203166002900490600052602060002090601f016020900481019282601f106114bb57805160ff19168380011785556114e9565b828001600101855582156114e9579182015b828111156114e85782518255916020019190600101906114cd565b5b5090506114f69190611658565b5090565b61014060405190810160405280600081526020016000815260200160008152602001600073ffffffffffffffffffffffffffffffffffffffff1681526020016000815260200160608152602001600060ff1681526020016000801916815260200160008019168152602001600073ffffffffffffffffffffffffffffffffffffffff1681525090565b828054600181600116156101000203166002900490600052602060002090601f016020900481019282601f106115c457805160ff19168380011785556115f2565b828001600101855582156115f2579182015b828111156115f15782518255916020019190600101906115d6565b5b5090506115ff9190611658565b5090565b604080519081016040528060008152602001600081525090565b60606040519081016040528061163161163e565b8152602001600081525090565b604080519081016040528060008152602001600081525090565b61167a91905b8082111561167657600081600090555060010161165e565b5090565b90565b60006116898235611c55565b905092915050565b600061169d8235611c75565b905092915050565b600082601f83011215156116b857600080fd5b81356116cb6116c682611bd1565b611ba4565b915080825260208301602083018583830111156116e757600080fd5b6116f2838284611c91565b50505092915050565b60006020828403121561170d57600080fd5b600061171b8482850161167d565b91505092915050565b60006020828403121561173657600080fd5b600061174484828501611691565b91505092915050565b6000806040838503121561176057600080fd5b600061176e85828601611691565b925050602083013567ffffffffffffffff81111561178b57600080fd5b611797858286016116a5565b9150509250929050565b6000806000606084860312156117b657600080fd5b60006117c486828701611691565b935050602084013567ffffffffffffffff8111156117e157600080fd5b6117ed868287016116a5565b92505060406117fe8682870161167d565b9150509250925092565b6000806040838503121561181b57600080fd5b600083013567ffffffffffffffff81111561183557600080fd5b611841858286016116a5565b925050602061185285828601611691565b9150509250929050565b61186581611c08565b82525050565b61187481611c28565b82525050565b61188381611c34565b82525050565b600061189482611bfd565b8084526118a8816020860160208601611ca0565b6118b181611cd3565b602085010191505092915050565b6118c881611c7f565b82525050565b6000610140830160008301516118e760008601826119a8565b5060208301516118fa60208601826119a8565b50604083015161190d60408601826119a8565b506060830151611920606086018261185c565b50608083015161193360808601826119a8565b5060a083015184820360a086015261194b8282611889565b91505060c083015161196060c08601826119b7565b5060e083015161197360e086018261187a565b5061010083015161198861010086018261187a565b5061012083015161199d61012086018261185c565b508091505092915050565b6119b181611c3e565b82525050565b6119c081611c48565b82525050565b60006020820190506119db600083018461185c565b92915050565b60006020820190506119f6600083018461186b565b92915050565b6000608082019050611a11600083018761187a565b611a1e60208301866118bf565b611a2b604083018561187a565b611a38606083018461187a565b95945050505050565b6000608082019050611a56600083018761187a565b611a6360208301866119b7565b611a70604083018561187a565b611a7d606083018461187a565b95945050505050565b60006060820190508181036000830152611aa08186611889565b9050611aaf602083018561185c565b611abc604083018461185c565b949350505050565b60006020820190508181036000830152611ade81846118ce565b905092915050565b600061014082019050611afc600083018d6119a8565b611b09602083018c6119a8565b611b16604083018b6119a8565b611b23606083018a61185c565b611b3060808301896119a8565b81810360a0830152611b428188611889565b9050611b5160c08301876119b7565b611b5e60e083018661187a565b611b6c61010083018561187a565b611b7a61012083018461185c565b9b9a5050505050505050505050565b6000602082019050611b9e60008301846119b7565b92915050565b6000604051905081810181811067ffffffffffffffff82111715611bc757600080fd5b8060405250919050565b600067ffffffffffffffff821115611be857600080fd5b601f19601f8301169050602081019050919050565b600081519050919050565b600073ffffffffffffffffffffffffffffffffffffffff82169050919050565b60008115159050919050565b6000819050919050565b6000819050919050565b600060ff82169050919050565b600073ffffffffffffffffffffffffffffffffffffffff82169050919050565b6000819050919050565b6000611c8a82611c48565b9050919050565b82818337600083830152505050565b60005b83811015611cbe578082015181840152602081019050611ca3565b83811115611ccd576000848401525b50505050565b6000601f19601f83011690509190505600a265627a7a72305820ae19276fe419730772050bb812368e0c29e1d2ba644fd841c1c6ad9b33e305186c6578706572696d656e74616cf50037",
  "source": "pragma solidity ^0.4.24;\npragma experimental ABIEncoderV2;\n\nimport \"./SafeMath.sol\";\nimport \"./Ownable.sol\";\nimport \"./RLP.sol\";\n\ncontract DepositContract {\n  using SafeMath for uint256;\n  using RLP for RLP.RLPItem;\n  using RLP for RLP.Iterator;\n  using RLP for bytes;\n\n  string contractState = \"preStaked\";\n  address tokenContract;\n  address custodian;\n  address custodianETC;\n  uint256 stakedAmount;\n  uint256 depositCap;\n  uint256 depositedAmount;\n  mapping (address => uint256) deposits;\n  mapping (bytes32 => uint8) public txLog;\n\n  struct Transaction {\n    uint nonce;\n    uint gasPrice;\n    uint gasLimit;\n    address to;\n    uint value;\n    bytes data;\n    uint8 v;\n    bytes32 r;\n    bytes32 s;\n    address from;\n  }\n\n  constructor (address _custodian) {\n    custodian = _custodian;\n  }\n\n  modifier onlyCustodian() {\n    if (custodian == msg.sender) {\n      _;\n    }\n  }\n\n  modifier statePreStaked () {\n    if (keccak256(contractState) == keccak256(\"preStaked\"))  {\n      _;\n    }\n  }\n\n  modifier stateStaked () {\n    if (keccak256(contractState) == keccak256(\"staked\"))  {\n      _;\n    }\n  }\n  \n  event Deposit(address indexed depositer, address indexed depositedTo, uint256 amount, uint256 indexed blockNumber);\n  event Challenge(address indexed depositer, address indexed depositedTo, uint256 amount, uint256 indexed blockNumber);\n  event ChallangeResolved(address indexed depositer, address indexed depositedTo, uint256 amount, uint256 indexed blockNumber, bytes signedTx); \n  event Refund(address indexed withdrawer, uint256 amount, uint256 indexed blockNumber);\n  event Withdrawal(address indexed withdrawer, uint256 amount, uint256 indexed blockNumber);\n  event Parsed(bytes data, address to, address from);\n\n  function setTokenContract(address _tokenContract) onlyCustodian statePreStaked public {\n    tokenContract = _tokenContract;\n  }\n\n  function finalizeStake () onlyCustodian statePreStaked public {\n    stakedAmount = address(this).balance;\n    depositCap = address(this).balance.div(2);\n    depositedAmount = 0;\n    contractState = \"staked\";\n  }\n\n  function deposit() payable public {\n    deposits[msg.sender] += msg.value;\n  }\n\n  Transaction public testTx;\n\n  function submitFraud(bytes rawTx, bytes32 msgHash) public {\n    Transaction memory parsedTx = parse(rawTx, msgHash);\n    require(keccak256(parsedTx.from) == keccak256(custodian));\n    require(keccak256(parsedTx.to) == keccak256(tokenContract));\n    require(txLog[msgHash] == 0);\n    //penalise custodian, possibly change to transfer against reentrancy\n    msg.sender.send(100);\n  }\n\n\n  function parse(bytes rawTx, bytes32 msgHash) public returns (Transaction transaction) {\n    RLP.RLPItem[] memory list = rawTx.toRLPItem().toList();\n\n    // can potentially insert: if (signedTransaction.length !== 9) { throw new Error('invalid transaction'); } items()\n    transaction.nonce = list[0].toUint();\n    transaction.gasPrice = list[1].toUint();\n    transaction.gasLimit = list[2].toUint();\n    transaction.to = list[3].toAddress();\n    if (!list[4].isEmpty()) {\n      transaction.value = list[4].toUint();\n    }\n    if (!list[5].isEmpty()) {\n      transaction.data = list[5].toData();\n    }\n    transaction.v = uint8(list[6].toUint());\n    transaction.r = list[7].toBytes32(); \n    transaction.s = list[8].toBytes32();\n    transaction.from = ecrecover(msgHash, 28, transaction.r, transaction.s);\n    emit Parsed(transaction.data, transaction.to, transaction.from);\n    //fordebbugging\n    testTx = transaction;\n    return transaction;\n  }\n\n  function bytesToBytes32(bytes b, uint offset) private pure returns (bytes32) {\n    bytes32 out;\n    for (uint i = 0; i < 32; i++) {\n      out |= bytes32(b[offset + i] & 0xFF) >> (i * 8);\n    }\n    return out;\n  }\n\n  function stringToBytes( string s) internal returns (bytes memory b3){\n    b3 = bytes(s);\n    return b3;\n  }\n\n  function ecrecovery(bytes32 hash, bytes sig) public returns (address) {\n    bytes32 r;\n    bytes32 s;\n    uint8 v;\n\n    if (sig.length != 65) {\n      return 0;\n    }\n\n    assembly {\n      r := mload(add(sig, 32))\n      s := mload(add(sig, 64))\n      v := and(mload(add(sig, 65)), 255)\n    }\n\n    // https://github.com/ethereum/go-ethereum/issues/2053\n    if (v < 27) {\n      v += 27;\n    }\n\n    if (v != 27 && v != 28) {\n      return 0;\n    }\n\n    /* prefix might be needed for geth only\n     * https://github.com/ethereum/go-ethereum/issues/3731\n     */\n    // bytes memory prefix = \"\\x19Ethereum Signed Message:\\n32\";\n    // hash = sha3(prefix, hash);\n\n    return ecrecover(hash, v, r, s);\n  }\n\n  function ecverify(bytes32 hash, bytes sig, address signer) public returns (bool) {\n    return signer == ecrecovery(hash, sig);\n  }\n\n\n}\n",
  "sourcePath": "/Users/zhen/Code/peaceNotRelay/contracts/DepositContract.sol",
  "compiler": {
    "name": "solc",
    "version": "0.4.24+commit.e67f0147.Emscripten.clang"
  },
  "schemaVersion": "2.0.1",
  "updatedAt": "2018-07-26T09:45:07.938Z"
}