{
  "contractName": "DepositContract",
  "abi": [
    {
      "inputs": [
        {
          "name": "_tokenContract",
          "type": "address"
        },
        {
          "name": "_custodian",
          "type": "address"
        }
      ],
      "payable": false,
      "stateMutability": "nonpayable",
      "type": "constructor"
    },
    {
      "anonymous": false,
      "inputs": [
        {
          "indexed": true,
          "name": "depositer",
          "type": "address"
        },
        {
          "indexed": true,
          "name": "depositedTo",
          "type": "address"
        },
        {
          "indexed": false,
          "name": "amount",
          "type": "uint256"
        },
        {
          "indexed": true,
          "name": "blockNumber",
          "type": "uint256"
        }
      ],
      "name": "Deposit",
      "type": "event"
    },
    {
      "anonymous": false,
      "inputs": [
        {
          "indexed": true,
          "name": "depositer",
          "type": "address"
        },
        {
          "indexed": true,
          "name": "depositedTo",
          "type": "address"
        },
        {
          "indexed": false,
          "name": "amount",
          "type": "uint256"
        },
        {
          "indexed": true,
          "name": "blockNumber",
          "type": "uint256"
        }
      ],
      "name": "Challenge",
      "type": "event"
    },
    {
      "anonymous": false,
      "inputs": [
        {
          "indexed": true,
          "name": "depositer",
          "type": "address"
        },
        {
          "indexed": true,
          "name": "depositedTo",
          "type": "address"
        },
        {
          "indexed": false,
          "name": "amount",
          "type": "uint256"
        },
        {
          "indexed": true,
          "name": "blockNumber",
          "type": "uint256"
        },
        {
          "indexed": false,
          "name": "signedTx",
          "type": "bytes"
        }
      ],
      "name": "ChallangeResolved",
      "type": "event"
    },
    {
      "anonymous": false,
      "inputs": [
        {
          "indexed": true,
          "name": "withdrawer",
          "type": "address"
        },
        {
          "indexed": false,
          "name": "amount",
          "type": "uint256"
        },
        {
          "indexed": true,
          "name": "blockNumber",
          "type": "uint256"
        }
      ],
      "name": "Refund",
      "type": "event"
    },
    {
      "anonymous": false,
      "inputs": [
        {
          "indexed": true,
          "name": "withdrawer",
          "type": "address"
        },
        {
          "indexed": false,
          "name": "amount",
          "type": "uint256"
        },
        {
          "indexed": true,
          "name": "blockNumber",
          "type": "uint256"
        }
      ],
      "name": "Withdrawal",
      "type": "event"
    },
    {
      "constant": false,
      "inputs": [],
      "name": "finalizeStake",
      "outputs": [],
      "payable": false,
      "stateMutability": "nonpayable",
      "type": "function"
    },
    {
      "constant": false,
      "inputs": [],
      "name": "deposit",
      "outputs": [],
      "payable": true,
      "stateMutability": "payable",
      "type": "function"
    }
  ],
  "bytecode": "0x60806040526040805190810160405280600981526020017f7072655374616b656400000000000000000000000000000000000000000000008152506000908051906020019061004f9291906100d1565b5034801561005c57600080fd5b506040516040806104dd833981018060405281019080805190602001909291908051906020019092919050505081600160006101000a81548173ffffffffffffffffffffffffffffffffffffffff021916908373ffffffffffffffffffffffffffffffffffffffff1602179055505050610176565b828054600181600116156101000203166002900490600052602060002090601f016020900481019282601f1061011257805160ff1916838001178555610140565b82800160010185558215610140579182015b8281111561013f578251825591602001919060010190610124565b5b50905061014d9190610151565b5090565b61017391905b8082111561016f576000816000905550600101610157565b5090565b90565b610358806101856000396000f30060806040526004361061004c576000357c0100000000000000000000000000000000000000000000000000000000900463ffffffff1680632310b38414610051578063d0e30db014610068575b600080fd5b34801561005d57600080fd5b50610066610072565b005b61007061021d565b005b3373ffffffffffffffffffffffffffffffffffffffff16600260009054906101000a900473ffffffffffffffffffffffffffffffffffffffff1673ffffffffffffffffffffffffffffffffffffffff16141561021b5760405180807f7072655374616b6564000000000000000000000000000000000000000000000081525060090190506040518091039020600019166000604051808280546001816001161561010002031660029004801561015f5780601f1061013d57610100808354040283529182019161015f565b820191906000526020600020905b81548152906001019060200180831161014b575b5050915050604051809103902060001916141561021a573073ffffffffffffffffffffffffffffffffffffffff16316004819055506101bf60023073ffffffffffffffffffffffffffffffffffffffff163161026c90919063ffffffff16565b60058190555060006006819055506040805190810160405280600681526020017f7374616b6564000000000000000000000000000000000000000000000000000081525060009080519060200190610218929190610287565b505b5b565b34600760003373ffffffffffffffffffffffffffffffffffffffff1673ffffffffffffffffffffffffffffffffffffffff16815260200190815260200160002060008282540192505081905550565b600080828481151561027a57fe5b0490508091505092915050565b828054600181600116156101000203166002900490600052602060002090601f016020900481019282601f106102c857805160ff19168380011785556102f6565b828001600101855582156102f6579182015b828111156102f55782518255916020019190600101906102da565b5b5090506103039190610307565b5090565b61032991905b8082111561032557600081600090555060010161030d565b5090565b905600a165627a7a72305820942c4d299c96cc68dd65a6947944974161bb52b26f7edc6fb6e3ba3ce040f96b0029",
  "source": "pragma solidity ^0.4.24;\n\nimport \"./SafeMath.sol\";\nimport \"./Ownable.sol\";\n\ncontract DepositContract {\n  using SafeMath for uint256;\n\n\n  string contractState = 'preStaked';\n  address tokenContract;\n  address custodian;\n  address custodianETC;\n  uint256 stakedAmount;\n  uint256 depositCap;\n  uint256 depositedAmount;\n  mapping (address => uint256) deposits;\n\n  constructor (address _tokenContract, address _custodian) {\n    tokenContract = _tokenContract;\n  }\n  \n  modifier onlyCustodian() {\n    if (custodian == msg.sender) {\n      _;\n    }\n  }\n\n  modifier statePreStaked () {\n    if ( keccak256(contractState) == keccak256('preStaked'))  {\n      _;\n    }\n  }\n\n    modifier stateStaked () {\n    if (keccak256(contractState) == keccak256('staked'))  {\n      _;\n    }\n  }\n  \n  event Deposit(address indexed depositer, address indexed depositedTo, uint256 amount, uint256 indexed blockNumber);\n  event Challenge(address indexed depositer, address indexed depositedTo, uint256 amount, uint256 indexed blockNumber);\n  event ChallangeResolved(address indexed depositer, address indexed depositedTo, uint256 amount, uint256 indexed blockNumber, bytes signedTx); \n  event Refund(address indexed withdrawer, uint256 amount, uint256 indexed blockNumber);\n  event Withdrawal(address indexed withdrawer, uint256 amount, uint256 indexed blockNumber);\n\n  function finalizeStake () onlyCustodian statePreStaked public {\n    stakedAmount = address(this).balance;\n    depositCap = address(this).balance.div(2);\n    depositedAmount = 0;\n    contractState = 'staked';\n  }\n\n  function deposit() payable public {\n    deposits[msg.sender] += msg.value;\n  }\n  \n\n  \n}\n",
  "sourcePath": "/Users/zhen/Code/peaceNotRelay/contracts/DepositContract.sol",
  "compiler": {
    "name": "solc",
    "version": "0.4.24+commit.e67f0147.Emscripten.clang"
  },
  "schemaVersion": "2.0.0",
  "updatedAt": "2018-07-24T05:08:43.392Z"
}