{
  "contractName": "DepositContract",
  "abi": [
    {
      "constant": true,
      "inputs": [],
      "name": "print",
      "outputs": [
        {
          "name": "",
          "type": "bytes"
        }
      ],
      "payable": false,
      "stateMutability": "view",
      "type": "function"
    },
    {
      "constant": true,
      "inputs": [],
      "name": "byte32Tx",
      "outputs": [
        {
          "name": "",
          "type": "bytes32"
        }
      ],
      "payable": false,
      "stateMutability": "view",
      "type": "function"
    },
    {
      "constant": true,
      "inputs": [
        {
          "name": "",
          "type": "uint256"
        }
      ],
      "name": "rlpItem",
      "outputs": [
        {
          "name": "_unsafe_memPtr",
          "type": "uint256"
        },
        {
          "name": "_unsafe_length",
          "type": "uint256"
        }
      ],
      "payable": false,
      "stateMutability": "view",
      "type": "function"
    },
    {
      "constant": true,
      "inputs": [],
      "name": "transaction",
      "outputs": [
        {
          "name": "nonce",
          "type": "uint256"
        },
        {
          "name": "gasPrice",
          "type": "uint256"
        },
        {
          "name": "gasLimit",
          "type": "uint256"
        },
        {
          "name": "to",
          "type": "address"
        },
        {
          "name": "value",
          "type": "uint256"
        },
        {
          "name": "data",
          "type": "bytes"
        },
        {
          "name": "v",
          "type": "uint8"
        },
        {
          "name": "r",
          "type": "bytes32"
        },
        {
          "name": "s",
          "type": "bytes32"
        },
        {
          "name": "from",
          "type": "address"
        }
      ],
      "payable": false,
      "stateMutability": "view",
      "type": "function"
    },
    {
      "inputs": [
        {
          "name": "_custodian",
          "type": "address"
        }
      ],
      "payable": false,
      "stateMutability": "nonpayable",
      "type": "constructor"
    },
    {
      "anonymous": false,
      "inputs": [
        {
          "indexed": true,
          "name": "depositer",
          "type": "address"
        },
        {
          "indexed": true,
          "name": "depositedTo",
          "type": "address"
        },
        {
          "indexed": false,
          "name": "amount",
          "type": "uint256"
        },
        {
          "indexed": true,
          "name": "blockNumber",
          "type": "uint256"
        }
      ],
      "name": "Deposit",
      "type": "event"
    },
    {
      "anonymous": false,
      "inputs": [
        {
          "indexed": true,
          "name": "depositer",
          "type": "address"
        },
        {
          "indexed": true,
          "name": "depositedTo",
          "type": "address"
        },
        {
          "indexed": false,
          "name": "amount",
          "type": "uint256"
        },
        {
          "indexed": true,
          "name": "blockNumber",
          "type": "uint256"
        }
      ],
      "name": "Challenge",
      "type": "event"
    },
    {
      "anonymous": false,
      "inputs": [
        {
          "indexed": true,
          "name": "depositer",
          "type": "address"
        },
        {
          "indexed": true,
          "name": "depositedTo",
          "type": "address"
        },
        {
          "indexed": false,
          "name": "amount",
          "type": "uint256"
        },
        {
          "indexed": true,
          "name": "blockNumber",
          "type": "uint256"
        },
        {
          "indexed": false,
          "name": "signedTx",
          "type": "bytes"
        }
      ],
      "name": "ChallangeResolved",
      "type": "event"
    },
    {
      "anonymous": false,
      "inputs": [
        {
          "indexed": true,
          "name": "withdrawer",
          "type": "address"
        },
        {
          "indexed": false,
          "name": "amount",
          "type": "uint256"
        },
        {
          "indexed": true,
          "name": "blockNumber",
          "type": "uint256"
        }
      ],
      "name": "Refund",
      "type": "event"
    },
    {
      "anonymous": false,
      "inputs": [
        {
          "indexed": true,
          "name": "withdrawer",
          "type": "address"
        },
        {
          "indexed": false,
          "name": "amount",
          "type": "uint256"
        },
        {
          "indexed": true,
          "name": "blockNumber",
          "type": "uint256"
        }
      ],
      "name": "Withdrawal",
      "type": "event"
    },
    {
      "anonymous": false,
      "inputs": [
        {
          "indexed": false,
          "name": "data",
          "type": "bytes"
        },
        {
          "indexed": false,
          "name": "to",
          "type": "address"
        },
        {
          "indexed": false,
          "name": "from",
          "type": "address"
        }
      ],
      "name": "Parsed",
      "type": "event"
    },
    {
      "constant": false,
      "inputs": [],
      "name": "finalizeStake",
      "outputs": [],
      "payable": false,
      "stateMutability": "nonpayable",
      "type": "function"
    },
    {
      "constant": false,
      "inputs": [],
      "name": "deposit",
      "outputs": [],
      "payable": true,
      "stateMutability": "payable",
      "type": "function"
    },
    {
      "constant": false,
      "inputs": [
        {
          "name": "txString",
          "type": "bytes"
        },
        {
          "name": "msgHash",
          "type": "bytes32"
        }
      ],
      "name": "parse",
      "outputs": [],
      "payable": false,
      "stateMutability": "nonpayable",
      "type": "function"
    },
    {
      "constant": false,
      "inputs": [
        {
          "name": "hash",
          "type": "bytes32"
        },
        {
          "name": "sig",
          "type": "bytes"
        }
      ],
      "name": "ecrecovery",
      "outputs": [
        {
          "name": "",
          "type": "address"
        }
      ],
      "payable": false,
      "stateMutability": "nonpayable",
      "type": "function"
    },
    {
      "constant": false,
      "inputs": [
        {
          "name": "hash",
          "type": "bytes32"
        },
        {
          "name": "sig",
          "type": "bytes"
        },
        {
          "name": "signer",
          "type": "address"
        }
      ],
      "name": "ecverify",
      "outputs": [
        {
          "name": "",
          "type": "bool"
        }
      ],
      "payable": false,
      "stateMutability": "nonpayable",
      "type": "function"
    }
  ],
  "bytecode": "0x60806040526040805190810160405280600981526020017f7072655374616b656400000000000000000000000000000000000000000000008152506000908051906020019062000051929190620000cb565b503480156200005f57600080fd5b50604051602080620017188339810180604052810190808051906020019092919050505080600260006101000a81548173ffffffffffffffffffffffffffffffffffffffff021916908373ffffffffffffffffffffffffffffffffffffffff160217905550506200017a565b828054600181600116156101000203166002900490600052602060002090601f016020900481019282601f106200010e57805160ff19168380011785556200013f565b828001600101855582156200013f579182015b828111156200013e57825182559160200191906001019062000121565b5b5090506200014e919062000152565b5090565b6200017791905b808211156200017357600081600090555060010162000159565b5090565b90565b61158e806200018a6000396000f300608060405260043610610099576000357c0100000000000000000000000000000000000000000000000000000000900463ffffffff16806313bdfacd1461009e5780632310b3841461012e5780632954b1de1461014557806339ab5d511461017857806339cdde32146101c057806377d32e941461026f578063c00c98be14610326578063c99de57e1461039d578063d0e30db0146104da575b600080fd5b3480156100aa57600080fd5b506100b36104e4565b6040518080602001828103825283818151815260200191508051906020019080838360005b838110156100f35780820151818401526020810190506100d8565b50505050905090810190601f1680156101205780820380516001836020036101000a031916815260200191505b509250505060405180910390f35b34801561013a57600080fd5b50610143610582565b005b34801561015157600080fd5b5061015a61072d565b60405180826000191660001916815260200191505060405180910390f35b34801561018457600080fd5b506101a360048036038101908080359060200190929190505050610733565b604051808381526020018281526020019250505060405180910390f35b3480156101cc57600080fd5b506102556004803603810190808035600019169060200190929190803590602001908201803590602001908080601f0160208091040260200160405190810160405280939291908181526020018383808284378201915050505050509192919290803573ffffffffffffffffffffffffffffffffffffffff169060200190929190505050610766565b604051808215151515815260200191505060405180910390f35b34801561027b57600080fd5b506102e46004803603810190808035600019169060200190929190803590602001908201803590602001908080601f01602080910402602001604051908101604052809392919081815260200183838082843782019150505050505091929192905050506107a9565b604051808273ffffffffffffffffffffffffffffffffffffffff1673ffffffffffffffffffffffffffffffffffffffff16815260200191505060405180910390f35b34801561033257600080fd5b5061039b600480360381019080803590602001908201803590602001908080601f016020809104026020016040519081016040528093929190818152602001838380828437820191505050505050919291929080356000191690602001909291905050506108a1565b005b3480156103a957600080fd5b506103b2610cd6565b604051808b81526020018a81526020018981526020018873ffffffffffffffffffffffffffffffffffffffff1673ffffffffffffffffffffffffffffffffffffffff168152602001878152602001806020018660ff1660ff168152602001856000191660001916815260200184600019166000191681526020018373ffffffffffffffffffffffffffffffffffffffff1673ffffffffffffffffffffffffffffffffffffffff168152602001828103825287818151815260200191508051906020019080838360005b8381101561049657808201518184015260208101905061047b565b50505050905090810190601f1680156104c35780820380516001836020036101000a031916815260200191505b509b50505050505050505050505060405180910390f35b6104e2610dfd565b005b60088054600181600116156101000203166002900480601f01602080910402602001604051908101604052809291908181526020018280546001816001161561010002031660029004801561057a5780601f1061054f5761010080835404028352916020019161057a565b820191906000526020600020905b81548152906001019060200180831161055d57829003601f168201915b505050505081565b3373ffffffffffffffffffffffffffffffffffffffff16600260009054906101000a900473ffffffffffffffffffffffffffffffffffffffff1673ffffffffffffffffffffffffffffffffffffffff16141561072b5760405180807f7072655374616b6564000000000000000000000000000000000000000000000081525060090190506040518091039020600019166000604051808280546001816001161561010002031660029004801561066f5780601f1061064d57610100808354040283529182019161066f565b820191906000526020600020905b81548152906001019060200180831161065b575b5050915050604051809103902060001916141561072a573073ffffffffffffffffffffffffffffffffffffffff16316004819055506106cf60023073ffffffffffffffffffffffffffffffffffffffff1631610e4c90919063ffffffff16565b60058190555060006006819055506040805190810160405280600681526020017f7374616b65640000000000000000000000000000000000000000000000000000815250600090805190602001906107289291906113e8565b505b5b565b60095481565b60148181548110151561074257fe5b90600052602060002090600202016000915090508060000154908060010154905082565b600061077284846107a9565b73ffffffffffffffffffffffffffffffffffffffff168273ffffffffffffffffffffffffffffffffffffffff161490509392505050565b600080600080604185511415156107c35760009350610898565b602085015192506040850151915060ff6041860151169050601b8160ff1610156107ee57601b810190505b601b8160ff16141580156108065750601c8160ff1614155b156108145760009350610898565b600186828585604051600081526020016040526040518085600019166000191681526020018460ff1660ff1681526020018360001916600019168152602001826000191660001916815260200194505050505060206040516020810390808403906000865af115801561088b573d6000803e3d6000fd5b5050506020604051035193505b50505092915050565b60606108b46108af84610e67565b610ec2565b90506108d78160008151811015156108c857fe5b90602001906020020151610f7f565b600a600001819055506109018160018151811015156108f257fe5b90602001906020020151610f7f565b600a6001018190555061092b81600281518110151561091c57fe5b90602001906020020151610f7f565b600a6002018190555061095581600381518110151561094657fe5b90602001906020020151610f7f565b600a60030160006101000a81548173ffffffffffffffffffffffffffffffffffffffff021916908373ffffffffffffffffffffffffffffffffffffffff1602179055506109b98160048151811015156109aa57fe5b90602001906020020151610f7f565b600a600401819055506109e38160058151811015156109d457fe5b90602001906020020151610fd2565b600a60050190805190602001906109fb929190611468565b50610a1d816006815181101515610a0e57fe5b90602001906020020151610f7f565b600a60060160006101000a81548160ff021916908360ff160217905550610a5b816007815181101515610a4c57fe5b90602001906020020151611040565b600a6007018160001916905550610a89816008815181101515610a7a57fe5b90602001906020020151611040565b600a6008018160001916905550600182601c600a60070154600a60080154604051600081526020016040526040518085600019166000191681526020018460ff1681526020018360001916600019168152602001826000191660001916815260200194505050505060206040516020810390808403906000865af1158015610b15573d6000803e3d6000fd5b50505060206040510351600a60090160006101000a81548173ffffffffffffffffffffffffffffffffffffffff021916908373ffffffffffffffffffffffffffffffffffffffff1602179055507f6084f2e20b432cf2978c012e01f2d513510bb68b8f7a22c96a6a836b191dc54a600a600501600a60030160009054906101000a900473ffffffffffffffffffffffffffffffffffffffff16600a60090160009054906101000a900473ffffffffffffffffffffffffffffffffffffffff1660405180806020018473ffffffffffffffffffffffffffffffffffffffff1673ffffffffffffffffffffffffffffffffffffffff1681526020018373ffffffffffffffffffffffffffffffffffffffff1673ffffffffffffffffffffffffffffffffffffffff168152602001828103825285818154600181600116156101000203166002900481526020019150805460018160011615610100020316600290048015610cc15780601f10610c9657610100808354040283529160200191610cc1565b820191906000526020600020905b815481529060010190602001808311610ca457829003601f168201915b505094505050505060405180910390a1505050565b600a8060000154908060010154908060020154908060030160009054906101000a900473ffffffffffffffffffffffffffffffffffffffff1690806004015490806005018054600181600116156101000203166002900480601f016020809104026020016040519081016040528092919081815260200182805460018160011615610100020316600290048015610dae5780601f10610d8357610100808354040283529160200191610dae565b820191906000526020600020905b815481529060010190602001808311610d9157829003601f168201915b5050505050908060060160009054906101000a900460ff16908060070154908060080154908060090160009054906101000a900473ffffffffffffffffffffffffffffffffffffffff1690508a565b34600760003373ffffffffffffffffffffffffffffffffffffffff1673ffffffffffffffffffffffffffffffffffffffff16815260200190815260200160002060008282540192505081905550565b6000808284811515610e5a57fe5b0490508091505092915050565b610e6f6114e8565b600080835191506000821415610e9d5760408051908101604052806000815260200160008152509250610ebb565b60208401905060408051908101604052808281526020018381525092505b5050919050565b60606000610ece611502565b6000610ed985611055565b1515610ee457600080fd5b610eed85611087565b925082604051908082528060200260200182016040528015610f2957816020015b610f16611523565b815260200190600190039081610f0e5790505b509350610f3585611101565b91505b610f4182611149565b15610f7757610f4f82611173565b8482815181101515610f5d57fe5b906020019060200201819052508080600101915050610f38565b505050919050565b6000806000610f8d846111cf565b1515610f9857600080fd5b610fa184611200565b915091506020811180610fb45750600081145b15610fbe57600080fd5b806020036101000a82510492505050919050565b6060600080610fe0846111cf565b1515610feb57600080fd5b610ff484611200565b91509150806040519080825280601f01601f19166020018201604052801561102b5781602001602082028038833980820191505090505b509250611039828483611281565b5050919050565b600061104b82610f7f565b6001029050919050565b60008060008360200151141561106e5760009150611081565b8260000151905060c0815160001a101591505b50919050565b60008060008060008061109987611055565b15156110a857600095506110f7565b86600001519350835160001a94506110bf876112c2565b840192506001876020015185010391505b81831115156110f3576110e28361134e565b8301925080806001019150506110d0565b8095505b5050505050919050565b611109611502565b600061111483611055565b151561111f57600080fd5b611128836112c2565b83600001510190508282600001819052508082602001818152505050919050565b60006111536114e8565b826000015190508060200151816000015101836020015110915050919050565b61117b6114e8565b60008061118784611149565b156111c3578360200151915061119c8261134e565b905081836000018181525050808360200181815250508082018460200181815250506111c8565b600080fd5b5050919050565b6000806000836020015114156111e857600091506111fa565b8260000151905060c0815160001a1091505b50919050565b6000806000806000611211866111cf565b151561121c57600080fd5b85600001519150815160001a9250608083101561123f5781945060019350611279565b60b883101561125d5760018660200151039350600182019450611278565b60b78303905080600187602001510303935060018183010194505b5b505050915091565b60006020601f83010484602085015b8284146112af5760208402808301518183015260018501945050611290565b6000865160200187015250505050505050565b600080600080846020015114156112dc5760009250611347565b83600001519050805160001a915060808210156112fc5760009250611347565b60b8821080611318575060c08210158015611317575060f882105b5b156113265760019250611347565b60c082101561133d57600160b78303019250611347565b600160f783030192505b5050919050565b600080825160001a9050608081101561136a57600191506113e2565b60b8811015611381576001608082030191506113e1565b60c08110156113ab5760b78103806020036101000a600185015104808201600101935050506113e0565b60f88110156113c257600160c082030191506113df565b60f78103806020036101000a600185015104808201600101935050505b5b5b5b50919050565b828054600181600116156101000203166002900490600052602060002090601f016020900481019282601f1061142957805160ff1916838001178555611457565b82800160010185558215611457579182015b8281111561145657825182559160200191906001019061143b565b5b509050611464919061153d565b5090565b828054600181600116156101000203166002900490600052602060002090601f016020900481019282601f106114a957805160ff19168380011785556114d7565b828001600101855582156114d7579182015b828111156114d65782518255916020019190600101906114bb565b5b5090506114e4919061153d565b5090565b604080519081016040528060008152602001600081525090565b606060405190810160405280611516611523565b8152602001600081525090565b604080519081016040528060008152602001600081525090565b61155f91905b8082111561155b576000816000905550600101611543565b5090565b905600a165627a7a72305820bd23de67277e84d7162d38326ced08aa7d8a2f0052b3d4111d29f0c13f12124e0029",
  "source": "pragma solidity ^0.4.24;\n\nimport \"./SafeMath.sol\";\nimport \"./Ownable.sol\";\nimport \"./RLP.sol\";\n\ncontract DepositContract {\n  using SafeMath for uint256;\n  using RLP for RLP.RLPItem;\n  using RLP for RLP.Iterator;\n  using RLP for bytes;\n\n  string contractState = \"preStaked\";\n  address tokenContract;\n  address custodian;\n  address custodianETC;\n  uint256 stakedAmount;\n  uint256 depositCap;\n  uint256 depositedAmount;\n  mapping (address => uint256) deposits;\n\n  struct Transaction {\n    uint nonce;\n    uint gasPrice;\n    uint gasLimit;\n    address to;\n    uint value;\n    bytes data;\n    uint8 v;\n    bytes32 r;\n    bytes32 s;\n    address from;\n  }\n\n  constructor (address _custodian) {\n    custodian = _custodian;\n  }\n\n  modifier onlyCustodian() {\n    if (custodian == msg.sender) {\n      _;\n    }\n  }\n\n  modifier statePreStaked () {\n    if (keccak256(contractState) == keccak256(\"preStaked\"))  {\n      _;\n    }\n  }\n\n  modifier stateStaked () {\n    if (keccak256(contractState) == keccak256(\"staked\"))  {\n      _;\n    }\n  }\n  \n  event Deposit(address indexed depositer, address indexed depositedTo, uint256 amount, uint256 indexed blockNumber);\n  event Challenge(address indexed depositer, address indexed depositedTo, uint256 amount, uint256 indexed blockNumber);\n  event ChallangeResolved(address indexed depositer, address indexed depositedTo, uint256 amount, uint256 indexed blockNumber, bytes signedTx); \n  event Refund(address indexed withdrawer, uint256 amount, uint256 indexed blockNumber);\n  event Withdrawal(address indexed withdrawer, uint256 amount, uint256 indexed blockNumber);\n  event Parsed(bytes data, address to, address from);\n\n  function finalizeStake () onlyCustodian statePreStaked public {\n    stakedAmount = address(this).balance;\n    depositCap = address(this).balance.div(2);\n    depositedAmount = 0;\n    contractState = \"staked\";\n  }\n\n  function deposit() payable public {\n    deposits[msg.sender] += msg.value;\n  }\n  \n  bytes public print;\n  bytes32 public byte32Tx;\n  Transaction public transaction;\n  RLP.RLPItem[] public rlpItem;\n\n  function parse(bytes txString, bytes32 msgHash) public {\n    RLP.RLPItem[] memory list = txString.toRLPItem().toList();\n\n    // can potentially insert: if (signedTransaction.length !== 9) { throw new Error('invalid transaction'); } items()\n    transaction.nonce = list[0].toUint();\n    transaction.gasPrice = list[1].toUint();\n    transaction.gasLimit = list[2].toUint();\n    transaction.to = address(list[3].toUint());\n    //if value is 0, will revert\n    transaction.value = list[4].toUint();\n    //also can fail\n    transaction.data = list[5].toData();\n    transaction.v = uint8(list[6].toUint());\n    transaction.r = list[7].toBytes32();\n    transaction.s = list[8].toBytes32();\n    transaction.from = ecrecover(msgHash, 28, transaction.r, transaction.s);\n    Parsed(transaction.data, transaction.to, transaction.from);\n  }\n\n  function bytesToBytes32(bytes b, uint offset) private pure returns (bytes32) {\n    bytes32 out;\n    for (uint i = 0; i < 32; i++) {\n      out |= bytes32(b[offset + i] & 0xFF) >> (i * 8);\n    }\n    return out;\n  }\n\n  function stringToBytes( string s) internal returns (bytes memory b3){\n    b3 = bytes(s);\n    return b3;\n  }\n\n  // function rlpEncode (RLP.RLPItem[] RLPList) internal returns (bytes memory RLPEncoded) {\n  //   for (uint i = 0; i < 6; i++) {\n\n  //   }\n  // }\n\n  function ecrecovery(bytes32 hash, bytes sig) public returns (address) {\n    bytes32 r;\n    bytes32 s;\n    uint8 v;\n\n    if (sig.length != 65) {\n      return 0;\n    }\n\n    assembly {\n      r := mload(add(sig, 32))\n      s := mload(add(sig, 64))\n      v := and(mload(add(sig, 65)), 255)\n    }\n\n    // https://github.com/ethereum/go-ethereum/issues/2053\n    if (v < 27) {\n      v += 27;\n    }\n\n    if (v != 27 && v != 28) {\n      return 0;\n    }\n\n    /* prefix might be needed for geth only\n     * https://github.com/ethereum/go-ethereum/issues/3731\n     */\n    // bytes memory prefix = \"\\x19Ethereum Signed Message:\\n32\";\n    // hash = sha3(prefix, hash);\n\n    return ecrecover(hash, v, r, s);\n  }\n\n  function ecverify(bytes32 hash, bytes sig, address signer) public returns (bool) {\n    return signer == ecrecovery(hash, sig);\n  }\n\n\n}\n",
  "sourcePath": "/Users/zhen/Code/peaceNotRelay/contracts/DepositContract.sol",
  "compiler": {
    "name": "solc",
    "version": "0.4.24+commit.e67f0147.Emscripten.clang"
  },
  "schemaVersion": "2.0.1",
  "updatedAt": "2018-07-26T06:55:33.736Z"
}