{
  "contractName": "DepositContract",
  "abi": [
    {
      "constant": true,
      "inputs": [
        {
          "name": "",
          "type": "uint256"
        }
      ],
      "name": "mintHashToAmount",
      "outputs": [
        {
          "name": "",
          "type": "uint256"
        }
      ],
      "payable": false,
      "stateMutability": "view",
      "type": "function"
    },
    {
      "constant": true,
      "inputs": [],
      "name": "testTx",
      "outputs": [
        {
          "name": "nonce",
          "type": "uint256"
        },
        {
          "name": "gasPrice",
          "type": "uint256"
        },
        {
          "name": "gasLimit",
          "type": "uint256"
        },
        {
          "name": "to",
          "type": "address"
        },
        {
          "name": "value",
          "type": "uint256"
        },
        {
          "name": "data",
          "type": "bytes"
        },
        {
          "name": "v",
          "type": "uint8"
        },
        {
          "name": "r",
          "type": "bytes32"
        },
        {
          "name": "s",
          "type": "bytes32"
        },
        {
          "name": "from",
          "type": "address"
        }
      ],
      "payable": false,
      "stateMutability": "view",
      "type": "function"
    },
    {
      "inputs": [
        {
          "name": "_custodian",
          "type": "address"
        }
      ],
      "payable": false,
      "stateMutability": "nonpayable",
      "type": "constructor"
    },
    {
      "anonymous": false,
      "inputs": [
        {
          "indexed": true,
          "name": "depositer",
          "type": "address"
        },
        {
          "indexed": false,
          "name": "amount",
          "type": "uint256"
        },
        {
          "indexed": false,
          "name": "mintHash",
          "type": "uint256"
        }
      ],
      "name": "Deposit",
      "type": "event"
    },
    {
      "anonymous": false,
      "inputs": [
        {
          "indexed": true,
          "name": "depositer",
          "type": "address"
        },
        {
          "indexed": true,
          "name": "depositedTo",
          "type": "address"
        },
        {
          "indexed": false,
          "name": "amount",
          "type": "uint256"
        },
        {
          "indexed": true,
          "name": "blockNumber",
          "type": "uint256"
        }
      ],
      "name": "Challenge",
      "type": "event"
    },
    {
      "anonymous": false,
      "inputs": [
        {
          "indexed": true,
          "name": "depositer",
          "type": "address"
        },
        {
          "indexed": true,
          "name": "depositedTo",
          "type": "address"
        },
        {
          "indexed": false,
          "name": "amount",
          "type": "uint256"
        },
        {
          "indexed": true,
          "name": "blockNumber",
          "type": "uint256"
        },
        {
          "indexed": false,
          "name": "signedTx",
          "type": "bytes"
        }
      ],
      "name": "ChallangeResolved",
      "type": "event"
    },
    {
      "anonymous": false,
      "inputs": [
        {
          "indexed": true,
          "name": "withdrawer",
          "type": "address"
        },
        {
          "indexed": false,
          "name": "amount",
          "type": "uint256"
        },
        {
          "indexed": true,
          "name": "blockNumber",
          "type": "uint256"
        }
      ],
      "name": "Refund",
      "type": "event"
    },
    {
      "anonymous": false,
      "inputs": [
        {
          "indexed": true,
          "name": "withdrawer",
          "type": "address"
        },
        {
          "indexed": false,
          "name": "amount",
          "type": "uint256"
        },
        {
          "indexed": true,
          "name": "blockNumber",
          "type": "uint256"
        }
      ],
      "name": "Withdrawal",
      "type": "event"
    },
    {
      "anonymous": false,
      "inputs": [
        {
          "indexed": false,
          "name": "data",
          "type": "bytes"
        },
        {
          "indexed": false,
          "name": "to",
          "type": "address"
        },
        {
          "indexed": false,
          "name": "from",
          "type": "address"
        }
      ],
      "name": "Parsed",
      "type": "event"
    },
    {
      "constant": false,
      "inputs": [
        {
          "name": "_tokenContract",
          "type": "address"
        }
      ],
      "name": "setTokenContract",
      "outputs": [],
      "payable": false,
      "stateMutability": "nonpayable",
      "type": "function"
    },
    {
      "constant": false,
      "inputs": [],
      "name": "finalizeStake",
      "outputs": [],
      "payable": false,
      "stateMutability": "nonpayable",
      "type": "function"
    },
    {
      "constant": false,
      "inputs": [
        {
          "name": "_mintHash",
          "type": "uint256"
        }
      ],
      "name": "deposit",
      "outputs": [],
      "payable": true,
      "stateMutability": "payable",
      "type": "function"
    },
    {
      "constant": false,
      "inputs": [
        {
          "name": "_rawTx",
          "type": "bytes"
        },
        {
          "name": "_msgHash",
          "type": "bytes32"
        }
      ],
      "name": "parse",
      "outputs": [
        {
          "name": "nonce",
          "type": "uint256"
        },
        {
          "name": "gasPrice",
          "type": "uint256"
        },
        {
          "name": "gasLimit",
          "type": "uint256"
        },
        {
          "name": "to",
          "type": "address"
        },
        {
          "name": "value",
          "type": "uint256"
        },
        {
          "name": "data",
          "type": "bytes"
        },
        {
          "name": "v",
          "type": "uint8"
        },
        {
          "name": "r",
          "type": "bytes32"
        },
        {
          "name": "s",
          "type": "bytes32"
        },
        {
          "name": "from",
          "type": "address"
        }
      ],
      "payable": false,
      "stateMutability": "nonpayable",
      "type": "function"
    },
    {
      "constant": false,
      "inputs": [
        {
          "name": "hash",
          "type": "bytes32"
        },
        {
          "name": "sig",
          "type": "bytes"
        }
      ],
      "name": "ecrecovery",
      "outputs": [
        {
          "name": "",
          "type": "address"
        }
      ],
      "payable": false,
      "stateMutability": "nonpayable",
      "type": "function"
    },
    {
      "constant": false,
      "inputs": [
        {
          "name": "hash",
          "type": "bytes32"
        },
        {
          "name": "sig",
          "type": "bytes"
        },
        {
          "name": "signer",
          "type": "address"
        }
      ],
      "name": "ecverify",
      "outputs": [
        {
          "name": "",
          "type": "bool"
        }
      ],
      "payable": false,
      "stateMutability": "nonpayable",
      "type": "function"
    }
  ],
  "bytecode": "0x60806040526040805190810160405280600981526020017f7072655374616b65640000000000000000000000000000000000000000000000815250600090805190602001906200005192919062000242565b5063e32e7aff7c010000000000000000000000000000000000000000000000000000000002600860006101000a81548163ffffffff02191690837c010000000000000000000000000000000000000000000000000000000090040217905550632e1a7d4d7c010000000000000000000000000000000000000000000000000000000002600860046101000a81548163ffffffff02191690837c0100000000000000000000000000000000000000000000000000000000900402179055506323b872dd7c0100000000000000000000000000000000000000000000000000000000026008806101000a81548163ffffffff02191690837c01000000000000000000000000000000000000000000000000000000009004021790555063eae028927c0100000000000000000000000000000000000000000000000000000000026008600c6101000a81548163ffffffff02191690837c010000000000000000000000000000000000000000000000000000000090040217905550348015620001d657600080fd5b50604051602080620019818339810180604052810190808051906020019092919050505080600260006101000a81548173ffffffffffffffffffffffffffffffffffffffff021916908373ffffffffffffffffffffffffffffffffffffffff16021790555050620002f1565b828054600181600116156101000203166002900490600052602060002090601f016020900481019282601f106200028557805160ff1916838001178555620002b6565b82800160010185558215620002b6579182015b82811115620002b557825182559160200191906001019062000298565b5b509050620002c59190620002c9565b5090565b620002ee91905b80821115620002ea576000816000905550600101620002d0565b5090565b90565b61168080620003016000396000f30060806040526004361061008e576000357c0100000000000000000000000000000000000000000000000000000000900463ffffffff1680632310b38414610093578063360dc40b146100aa57806339cdde32146100eb5780633edbbe0f1461019a57806377d32e94146102d7578063b6b55f251461038e578063bbcd5bbe146103ae578063c00c98be146103f1575b600080fd5b34801561009f57600080fd5b506100a861058e565b005b3480156100b657600080fd5b506100d560048036038101908080359060200190929190505050610739565b6040518082815260200191505060405180910390f35b3480156100f757600080fd5b506101806004803603810190808035600019169060200190929190803590602001908201803590602001908080601f0160208091040260200160405190810160405280939291908181526020018383808284378201915050505050509192919290803573ffffffffffffffffffffffffffffffffffffffff169060200190929190505050610751565b604051808215151515815260200191505060405180910390f35b3480156101a657600080fd5b506101af610794565b604051808b81526020018a81526020018981526020018873ffffffffffffffffffffffffffffffffffffffff1673ffffffffffffffffffffffffffffffffffffffff168152602001878152602001806020018660ff1660ff168152602001856000191660001916815260200184600019166000191681526020018373ffffffffffffffffffffffffffffffffffffffff1673ffffffffffffffffffffffffffffffffffffffff168152602001828103825287818151815260200191508051906020019080838360005b83811015610293578082015181840152602081019050610278565b50505050905090810190601f1680156102c05780820380516001836020036101000a031916815260200191505b509b50505050505050505050505060405180910390f35b3480156102e357600080fd5b5061034c6004803603810190808035600019169060200190929190803590602001908201803590602001908080601f01602080910402602001604051908101604052809392919081815260200183838082843782019150505050505091929192905050506108bb565b604051808273ffffffffffffffffffffffffffffffffffffffff1673ffffffffffffffffffffffffffffffffffffffff16815260200191505060405180910390f35b6103ac600480360381019080803590602001909291905050506109b3565b005b3480156103ba57600080fd5b506103ef600480360381019080803573ffffffffffffffffffffffffffffffffffffffff169060200190929190505050610a59565b005b3480156103fd57600080fd5b50610466600480360381019080803590602001908201803590602001908080601f01602080910402602001604051908101604052809392919081815260200183838082843782019150505050505091929192908035600019169060200190929190505050610ba3565b604051808b81526020018a81526020018981526020018873ffffffffffffffffffffffffffffffffffffffff1673ffffffffffffffffffffffffffffffffffffffff168152602001878152602001806020018660ff1660ff168152602001856000191660001916815260200184600019166000191681526020018373ffffffffffffffffffffffffffffffffffffffff1673ffffffffffffffffffffffffffffffffffffffff168152602001828103825287818151815260200191508051906020019080838360005b8381101561054a57808201518184015260208101905061052f565b50505050905090810190601f1680156105775780820380516001836020036101000a031916815260200191505b509b50505050505050505050505060405180910390f35b3373ffffffffffffffffffffffffffffffffffffffff16600260009054906101000a900473ffffffffffffffffffffffffffffffffffffffff1673ffffffffffffffffffffffffffffffffffffffff1614156107375760405180807f7072655374616b6564000000000000000000000000000000000000000000000081525060090190506040518091039020600019166000604051808280546001816001161561010002031660029004801561067b5780601f1061065957610100808354040283529182019161067b565b820191906000526020600020905b815481529060010190602001808311610667575b50509150506040518091039020600019161415610736573073ffffffffffffffffffffffffffffffffffffffff16316004819055506106db60023073ffffffffffffffffffffffffffffffffffffffff1631610f0690919063ffffffff16565b60058190555060006006819055506040805190810160405280600681526020017f7374616b656400000000000000000000000000000000000000000000000000008152506000908051906020019061073492919061155a565b505b5b565b60076020528060005260406000206000915090505481565b600061075d84846108bb565b73ffffffffffffffffffffffffffffffffffffffff168273ffffffffffffffffffffffffffffffffffffffff161490509392505050565b600b8060000154908060010154908060020154908060030160009054906101000a900473ffffffffffffffffffffffffffffffffffffffff1690806004015490806005018054600181600116156101000203166002900480601f01602080910402602001604051908101604052809291908181526020018280546001816001161561010002031660029004801561086c5780601f106108415761010080835404028352916020019161086c565b820191906000526020600020905b81548152906001019060200180831161084f57829003601f168201915b5050505050908060060160009054906101000a900460ff16908060070154908060080154908060090160009054906101000a900473ffffffffffffffffffffffffffffffffffffffff1690508a565b600080600080604185511415156108d557600093506109aa565b602085015192506040850151915060ff6041860151169050601b8160ff16101561090057601b810190505b601b8160ff16141580156109185750601c8160ff1614155b1561092657600093506109aa565b600186828585604051600081526020016040526040518085600019166000191681526020018460ff1660ff1681526020018360001916600019168152602001826000191660001916815260200194505050505060206040516020810390808403906000865af115801561099d573d6000803e3d6000fd5b5050506020604051035193505b50505092915050565b346006600082825401925050819055506109e9346007600084815260200190815260200160002054610f2190919063ffffffff16565b60076000838152602001908152602001600020819055503373ffffffffffffffffffffffffffffffffffffffff167f90890809c654f11d6e72a28fa60149770a0d11ec6c92319d6ceb2bb0a4ea1a153483604051808381526020018281526020019250505060405180910390a250565b3373ffffffffffffffffffffffffffffffffffffffff16600260009054906101000a900473ffffffffffffffffffffffffffffffffffffffff1673ffffffffffffffffffffffffffffffffffffffff161415610ba05760405180807f7072655374616b65640000000000000000000000000000000000000000000000815250600901905060405180910390206000191660006040518082805460018160011615610100020316600290048015610b465780601f10610b24576101008083540402835291820191610b46565b820191906000526020600020905b815481529060010190602001808311610b32575b50509150506040518091039020600019161415610b9f5780600160006101000a81548173ffffffffffffffffffffffffffffffffffffffff021916908373ffffffffffffffffffffffffffffffffffffffff1602179055505b5b50565b600080600080600060606000806000806060610bc6610bc18e610f3f565b610f9a565b9050610be9816000815181101515610bda57fe5b90602001906020020151611057565b9a50610c0c816001815181101515610bfd57fe5b90602001906020020151611057565b9950610c2f816002815181101515610c2057fe5b90602001906020020151611057565b9850610c52816003815181101515610c4357fe5b906020019060200201516110aa565b9750610c75816004815181101515610c6657fe5b906020019060200201516110f1565b1515610c9f57610c9c816004815181101515610c8d57fe5b90602001906020020151611057565b96505b610cc0816005815181101515610cb157fe5b906020019060200201516110f1565b1515610cea57610ce7816005815181101515610cd857fe5b90602001906020020151611134565b95505b610d0b816006815181101515610cfc57fe5b90602001906020020151611057565b9450610d2e816007815181101515610d1f57fe5b906020019060200201516111a2565b9350610d51816008815181101515610d4257fe5b906020019060200201516111a2565b925060018c601c8686604051600081526020016040526040518085600019166000191681526020018460ff1681526020018360001916600019168152602001826000191660001916815260200194505050505060206040516020810390808403906000865af1158015610dc8573d6000803e3d6000fd5b5050506020604051035191507f6084f2e20b432cf2978c012e01f2d513510bb68b8f7a22c96a6a836b191dc54a86898460405180806020018473ffffffffffffffffffffffffffffffffffffffff1673ffffffffffffffffffffffffffffffffffffffff1681526020018373ffffffffffffffffffffffffffffffffffffffff1673ffffffffffffffffffffffffffffffffffffffff168152602001828103825285818151815260200191508051906020019080838360005b83811015610e9c578082015181840152602081019050610e81565b50505050905090810190601f168015610ec95780820380516001836020036101000a031916815260200191505b5094505050505060405180910390a18a8a8a8a8a8a8a8a8a8a9a509a509a509a509a509a509a509a509a509a50509295989b9194979a5092959850565b6000808284811515610f1457fe5b0490508091505092915050565b6000808284019050838110151515610f3557fe5b8091505092915050565b610f476115da565b600080835191506000821415610f755760408051908101604052806000815260200160008152509250610f93565b60208401905060408051908101604052808281526020018381525092505b5050919050565b60606000610fa66115f4565b6000610fb1856111b7565b1515610fbc57600080fd5b610fc5856111e9565b92508260405190808252806020026020018201604052801561100157816020015b610fee611615565b815260200190600190039081610fe65790505b50935061100d85611263565b91505b611019826112ab565b1561104f57611027826112d5565b848281518110151561103557fe5b906020019060200201819052508080600101915050611010565b505050919050565b600080600061106584611331565b151561107057600080fd5b61107984611362565b91509150602081118061108c5750600081145b1561109657600080fd5b806020036101000a82510492505050919050565b60008060006110b884611331565b15156110c357600080fd5b6110cc84611362565b915091506014811415156110df57600080fd5b600c6101000a82510492505050919050565b60008060006110ff846113e3565b1561110d576000925061112d565b83600001519050805160001a9150608082148061112a575060c082145b92505b5050919050565b606060008061114284611331565b151561114d57600080fd5b61115684611362565b91509150806040519080825280601f01601f19166020018201604052801561118d5781602001602082028038833980820191505090505b50925061119b8284836113f3565b5050919050565b60006111ad82611057565b6001029050919050565b6000806000836020015114156111d057600091506111e3565b8260000151905060c0815160001a101591505b50919050565b6000806000806000806111fb876111b7565b151561120a5760009550611259565b86600001519350835160001a945061122187611434565b840192506001876020015185010391505b818311151561125557611244836114c0565b830192508080600101915050611232565b8095505b5050505050919050565b61126b6115f4565b6000611276836111b7565b151561128157600080fd5b61128a83611434565b83600001510190508282600001819052508082602001818152505050919050565b60006112b56115da565b826000015190508060200151816000015101836020015110915050919050565b6112dd6115da565b6000806112e9846112ab565b1561132557836020015191506112fe826114c0565b9050818360000181815250508083602001818152505080820184602001818152505061132a565b600080fd5b5050919050565b60008060008360200151141561134a576000915061135c565b8260000151905060c0815160001a1091505b50919050565b600080600080600061137386611331565b151561137e57600080fd5b85600001519150815160001a925060808310156113a157819450600193506113db565b60b88310156113bf57600186602001510393506001820194506113da565b60b78303905080600187602001510303935060018183010194505b5b505050915091565b6000808260200151149050919050565b60006020601f83010484602085015b8284146114215760208402808301518183015260018501945050611402565b6000865160200187015250505050505050565b6000806000808460200151141561144e57600092506114b9565b83600001519050805160001a9150608082101561146e57600092506114b9565b60b882108061148a575060c08210158015611489575060f882105b5b1561149857600192506114b9565b60c08210156114af57600160b783030192506114b9565b600160f783030192505b5050919050565b600080825160001a905060808110156114dc5760019150611554565b60b88110156114f357600160808203019150611553565b60c081101561151d5760b78103806020036101000a60018501510480820160010193505050611552565b60f881101561153457600160c08203019150611551565b60f78103806020036101000a600185015104808201600101935050505b5b5b5b50919050565b828054600181600116156101000203166002900490600052602060002090601f016020900481019282601f1061159b57805160ff19168380011785556115c9565b828001600101855582156115c9579182015b828111156115c85782518255916020019190600101906115ad565b5b5090506115d6919061162f565b5090565b604080519081016040528060008152602001600081525090565b606060405190810160405280611608611615565b8152602001600081525090565b604080519081016040528060008152602001600081525090565b61165191905b8082111561164d576000816000905550600101611635565b5090565b905600a165627a7a723058203e2880fe07b1f37506ac92af40f9ec536231aae7afbdbbc8952c778c990908e60029",
  "source": "pragma solidity ^0.4.24;\n// pragma experimental ABIEncoderV2;\n\nimport \"./SafeMath.sol\";\nimport \"./Ownable.sol\";\nimport \"./RLP.sol\";\nimport \"./BytesLib.sol\";\n\ncontract DepositContract {\n  using SafeMath for uint256;\n  using RLP for RLP.RLPItem;\n  using RLP for RLP.Iterator;\n  using RLP for bytes;\n  using BytesLib for bytes;\n\n  string contractState = \"preStaked\";\n  address tokenContract;\n  address custodian;\n  address custodianETC;\n  uint256 stakedAmount;\n  uint256 depositCap;\n  uint256 depositedAmount;\n  mapping (uint256 => uint256) public mintHashToAmount;\n\n\n  struct Transaction {\n    uint nonce;\n    uint gasPrice;\n    uint gasLimit;\n    address to;\n    uint value;\n    bytes data;\n    uint8 v;\n    bytes32 r;\n    bytes32 s;\n    address from;\n  }\n\n  constructor (address _custodian) {\n    custodian = _custodian;\n  }\n\n  modifier onlyCustodian() {\n    if (custodian == msg.sender) {\n      _;\n    }\n  }\n\n  modifier statePreStaked () {\n    if (keccak256(contractState) == keccak256(\"preStaked\"))  {\n      _;\n    }\n  }\n\n  modifier stateStaked () {\n    if (keccak256(contractState) == keccak256(\"staked\"))  {\n      _;\n    }\n  }\n  \n  event Deposit(address indexed depositer, uint256 amount, uint256 mintHash);\n  event Challenge(address indexed depositer, address indexed depositedTo, uint256 amount, uint256 indexed blockNumber);\n  event ChallangeResolved(address indexed depositer, address indexed depositedTo, uint256 amount, uint256 indexed blockNumber, bytes signedTx); \n  event Refund(address indexed withdrawer, uint256 amount, uint256 indexed blockNumber);\n  event Withdrawal(address indexed withdrawer, uint256 amount, uint256 indexed blockNumber);\n  event Parsed(bytes data, address to, address from);\n\n  bytes4 mintSignature = 0xe32e7aff;\n  bytes4 withdrawSignature = 0x2e1a7d4d;\n  bytes4 transferFromSignature = 0x23b872dd;\n  bytes4 custodianApproveSignature = 0xeae02892;\n\n\n  function setTokenContract(address _tokenContract) onlyCustodian statePreStaked public {\n    tokenContract = _tokenContract;\n  }\n\n  function finalizeStake () onlyCustodian statePreStaked public {\n    stakedAmount = address(this).balance;\n    depositCap = address(this).balance.div(2);\n    depositedAmount = 0;\n    contractState = \"staked\";\n  }\n\n  function deposit(uint256 _mintHash) payable public {\n    depositedAmount += msg.value;\n    mintHashToAmount[_mintHash] = mintHashToAmount[_mintHash].add(msg.value);\n    emit Deposit(msg.sender, msg.value, _mintHash);\n  }\n\n  // mintHashToTimestamp\n  mapping (uint256 => uint256) challengeTime;\n  // mintHashToAddress\n  mapping (uint256 => address) challengeAddress;\n\n\n  //takes in bytes _withdrawalTx, bytes _lastTx, bytes _custodianTx\n  // function withdraw(address _to, uint256 _mintHash, bytes[] _txArray, bytes32[] _txMsgHashes) public {\n  //   // Transaction memory withdrawalTx; \n  //   // // Transaction memory lastTx; \n  //   // // Transaction memory custodianTx;\n  //   // (withdrawalTx.nonce,\n  //   // withdrawalTx.gasPrice,\n  //   // withdrawalTx.gasLimit,\n  //   // withdrawalTx.value,\n  //   // withdrawalTx.to,\n  //   // withdrawalTx.data,\n  //   // withdrawalTx.v,\n  //   // withdrawalTx.r,\n  //   // withdrawalTx.s,\n  //   // withdrawalTx.from) = parse(_txArray[0], _txMsgHashes[0]);\n  //   // // Transaction lastTx = parse(_lastTx);\n  //   // // Transaction custodianTx = parse(_custodianTx);\n  //   // // require(withdrawalTx.from == lastTx.to);\n  //   // //TODO: compare custodianTx and lastTx token_ids here\n  //   // //start challenge\n  //   // challengeTime[_mintHash] = now + 10 minutes;\n  //   // challengeAddress[_mintHash] = _to;\n  // }\n\n\n  Transaction public testTx;\n\n  //ADD ONLY WHEN STAKED\n  // function submitFraud(bytes rawTx, bytes32 msgHash) public {\n  //   Transaction memory parsedTx = parse(rawTx, msgHash);\n  //   require(keccak256(parsedTx.from) == keccak256(custodian));\n  //   require(keccak256(parsedTx.to) == keccak256(tokenContract));\n  //   require(verifyMintTxParams(parsedTx.data) == 0);\n  //   //penalise custodian, possibly change to transfer against reentrancy\n  //   msg.sender.send(100);\n  // }\n\n  /* Util functions --------------------------------------------------*/\n  function parse(bytes _rawTx, bytes32 _msgHash) public returns (    \n    uint nonce,\n    uint gasPrice,\n    uint gasLimit,\n    address to,\n    uint value,\n    bytes data,\n    uint8 v,\n    bytes32 r,\n    bytes32 s,\n    address from\n    ) {\n    RLP.RLPItem[] memory list = _rawTx.toRLPItem().toList();\n    // can potentially insert: if (signedTransaction.length !== 9) { throw new Error('invalid transaction'); } items()\n    nonce = list[0].toUint();\n    gasPrice = list[1].toUint();\n    gasLimit = list[2].toUint();\n    to = list[3].toAddress();\n    if (!list[4].isEmpty()) {\n      value = list[4].toUint();\n    }\n    if (!list[5].isEmpty()) {\n      data = list[5].toData();\n    }\n    v = uint8(list[6].toUint());\n    r = list[7].toBytes32(); \n    s = list[8].toBytes32();\n    from = ecrecover(_msgHash, 28, r, s);\n    emit Parsed(data, to, from);\n    return (\n    nonce,\n    gasPrice,\n    gasLimit,\n    to,\n    value,\n    data,\n    v,\n    r,\n    s,\n    from);\n  }\n\n  //hashes appropriate data then verifies against depositLog\n  // function verifyMintTxParams(bytes data) public returns (uint8) {\n  //   assert(data.slice(0,10).equal(mintSignature));\n  //   // return depositLog[keccak256(data.slice(10, 266))];\n  // }\n\n  //NEEDS TESTING\n  // function parseXYZ(bytes data) public returns (uint X, address Y, uint Z, uint txNonce) {\n  //   require(data.slice(0,10).equal(mintSignature));\n  //   X = data.slice(10, 74).toUint(0);\n  //   Y = data.slice(74, 138).toAddress(0);\n  //   Z = data.slice(138, 202).toUint(0);\n  //   txNonce = data.slice(202, 266).toUint(0);\n  //   return (X, Y, Z, txNonce);\n  // }\n\n  function parseData(bytes data, uint256 i) internal returns (bytes) {\n    if (i == 0) {\n      return data.slice(0,5);\n    } else {\n      return data.slice(5 + i * 32,32);\n    }\n  }\n\n\n\n  function bytesToBytes32(bytes b, uint offset) private pure returns (bytes32) {\n    bytes32 out;\n    for (uint i = 0; i < 32; i++) {\n      out |= bytes32(b[offset + i] & 0xFF) >> (i * 8);\n    }\n    return out;\n  }\n\n  function stringToBytes( string s) internal returns (bytes memory b3){\n    b3 = bytes(s);\n    return b3;\n  }\n\n  // Nick Johnson https://ethereum.stackexchange.com/questions/4170/how-to-convert-a-uint-to-bytes-in-solidity\n  function uint256ToBytes(uint256 x) internal returns (bytes b) {\n    b = new bytes(32);\n    assembly { mstore(add(b, 32), x) }\n  }\n\n  // Tjaden Hess https://ethereum.stackexchange.com/questions/884/how-to-convert-an-address-to-bytes-in-solidity\n  function addressToBytes(address a) internal returns (bytes b) {\n    assembly {\n        let m := mload(0x40)\n        mstore(add(m, 20), xor(0x140000000000000000000000000000000000000000, a))\n        mstore(0x40, add(m, 52))\n        b := m\n    }\n  }\n\n  \n\n  function ecrecovery(bytes32 hash, bytes sig) public returns (address) {\n    bytes32 r;\n    bytes32 s;\n    uint8 v;\n\n    if (sig.length != 65) {\n      return 0;\n    }\n\n    assembly {\n      r := mload(add(sig, 32))\n      s := mload(add(sig, 64))\n      v := and(mload(add(sig, 65)), 255)\n    }\n\n    // https://github.com/ethereum/go-ethereum/issues/2053\n    if (v < 27) {\n      v += 27;\n    }\n\n    if (v != 27 && v != 28) {\n      return 0;\n    }\n\n    /* prefix might be needed for geth only\n     * https://github.com/ethereum/go-ethereum/issues/3731\n     */\n    // bytes memory prefix = \"\\x19Ethereum Signed Message:\\n32\";\n    // hash = sha3(prefix, hash);\n\n    return ecrecover(hash, v, r, s);\n  }\n\n  function ecverify(bytes32 hash, bytes sig, address signer) public returns (bool) {\n    return signer == ecrecovery(hash, sig);\n  }\n\n}\n",
  "sourcePath": "/Users/zhen/Code/peaceNotRelay/contracts/DepositContract.sol",
  "compiler": {
    "name": "solc",
    "version": "0.4.24+commit.e67f0147.Emscripten.clang"
  },
  "schemaVersion": "2.0.0",
  "updatedAt": "2018-08-06T03:15:22.694Z"
}