{
  "contractName": "DepositContract",
  "abi": [
    {
      "constant": true,
      "inputs": [
        {
          "name": "",
          "type": "uint256"
        }
      ],
      "name": "mintHashToMinter",
      "outputs": [
        {
          "name": "",
          "type": "address"
        }
      ],
      "payable": false,
      "stateMutability": "view",
      "type": "function"
    },
    {
      "constant": true,
      "inputs": [
        {
          "name": "",
          "type": "uint256"
        }
      ],
      "name": "mintHashToAmount",
      "outputs": [
        {
          "name": "",
          "type": "uint256"
        }
      ],
      "payable": false,
      "stateMutability": "view",
      "type": "function"
    },
    {
      "inputs": [
        {
          "name": "_custodian",
          "type": "address"
        }
      ],
      "payable": false,
      "stateMutability": "nonpayable",
      "type": "constructor"
    },
    {
      "anonymous": false,
      "inputs": [
        {
          "indexed": true,
          "name": "depositer",
          "type": "address"
        },
        {
          "indexed": false,
          "name": "amount",
          "type": "uint256"
        },
        {
          "indexed": false,
          "name": "mintHash",
          "type": "uint256"
        },
        {
          "indexed": false,
          "name": "minter",
          "type": "address"
        }
      ],
      "name": "Deposit",
      "type": "event"
    },
    {
      "anonymous": false,
      "inputs": [
        {
          "indexed": true,
          "name": "depositer",
          "type": "address"
        },
        {
          "indexed": true,
          "name": "depositedTo",
          "type": "address"
        },
        {
          "indexed": false,
          "name": "amount",
          "type": "uint256"
        },
        {
          "indexed": true,
          "name": "blockNumber",
          "type": "uint256"
        }
      ],
      "name": "Challenge",
      "type": "event"
    },
    {
      "anonymous": false,
      "inputs": [
        {
          "indexed": false,
          "name": "mintHash",
          "type": "uint256"
        }
      ],
      "name": "ChallengeResolved",
      "type": "event"
    },
    {
      "anonymous": false,
      "inputs": [
        {
          "indexed": true,
          "name": "withdrawer",
          "type": "address"
        },
        {
          "indexed": true,
          "name": "mintHash",
          "type": "uint256"
        },
        {
          "indexed": false,
          "name": "stakedAmount",
          "type": "uint256"
        }
      ],
      "name": "Withdrawal",
      "type": "event"
    },
    {
      "anonymous": false,
      "inputs": [
        {
          "indexed": false,
          "name": "tx1",
          "type": "bytes"
        },
        {
          "indexed": false,
          "name": "tx2",
          "type": "bytes"
        },
        {
          "indexed": false,
          "name": "tx3",
          "type": "bytes"
        }
      ],
      "name": "Test",
      "type": "event"
    },
    {
      "anonymous": false,
      "inputs": [
        {
          "indexed": false,
          "name": "out",
          "type": "bytes"
        }
      ],
      "name": "Trace",
      "type": "event"
    },
    {
      "anonymous": false,
      "inputs": [
        {
          "indexed": false,
          "name": "out",
          "type": "address"
        }
      ],
      "name": "TraceAddress",
      "type": "event"
    },
    {
      "anonymous": false,
      "inputs": [
        {
          "indexed": false,
          "name": "out",
          "type": "bytes32"
        }
      ],
      "name": "Trace32",
      "type": "event"
    },
    {
      "anonymous": false,
      "inputs": [
        {
          "indexed": false,
          "name": "out",
          "type": "uint256"
        }
      ],
      "name": "TraceUint256",
      "type": "event"
    },
    {
      "constant": false,
      "inputs": [
        {
          "name": "_tokenContract",
          "type": "address"
        }
      ],
      "name": "setTokenContract",
      "outputs": [],
      "payable": false,
      "stateMutability": "nonpayable",
      "type": "function"
    },
    {
      "constant": false,
      "inputs": [
        {
          "name": "_custodianETC",
          "type": "address"
        }
      ],
      "name": "setCustodianETC",
      "outputs": [],
      "payable": false,
      "stateMutability": "nonpayable",
      "type": "function"
    },
    {
      "constant": false,
      "inputs": [],
      "name": "finalizeStake",
      "outputs": [],
      "payable": false,
      "stateMutability": "nonpayable",
      "type": "function"
    },
    {
      "constant": false,
      "inputs": [
        {
          "name": "_mintHash",
          "type": "uint256"
        },
        {
          "name": "_minter",
          "type": "address"
        }
      ],
      "name": "deposit",
      "outputs": [],
      "payable": true,
      "stateMutability": "payable",
      "type": "function"
    },
    {
      "constant": false,
      "inputs": [
        {
          "name": "_to",
          "type": "address"
        },
        {
          "name": "_mintHash",
          "type": "uint256"
        },
        {
          "name": "_rawTxBundle",
          "type": "bytes32[]"
        },
        {
          "name": "_txLengths",
          "type": "uint256[]"
        },
        {
          "name": "_txMsgHashes",
          "type": "bytes32[]"
        },
        {
          "name": "_declaredNonce",
          "type": "uint256"
        }
      ],
      "name": "withdraw",
      "outputs": [],
      "payable": true,
      "stateMutability": "payable",
      "type": "function"
    },
    {
      "constant": false,
      "inputs": [
        {
          "name": "_mintHash",
          "type": "uint256"
        }
      ],
      "name": "claim",
      "outputs": [],
      "payable": false,
      "stateMutability": "nonpayable",
      "type": "function"
    },
    {
      "constant": false,
      "inputs": [
        {
          "name": "_mintHash",
          "type": "uint256"
        }
      ],
      "name": "claimStake",
      "outputs": [],
      "payable": false,
      "stateMutability": "nonpayable",
      "type": "function"
    },
    {
      "constant": false,
      "inputs": [
        {
          "name": "_to",
          "type": "address"
        },
        {
          "name": "_mintHash",
          "type": "uint256"
        },
        {
          "name": "_rawTxBundle",
          "type": "bytes32[]"
        },
        {
          "name": "_txLengths",
          "type": "uint256[]"
        },
        {
          "name": "_txMsgHashes",
          "type": "bytes32[]"
        }
      ],
      "name": "challengeWithFutureCustody",
      "outputs": [],
      "payable": false,
      "stateMutability": "nonpayable",
      "type": "function"
    },
    {
      "constant": false,
      "inputs": [
        {
          "name": "_to",
          "type": "address"
        },
        {
          "name": "_mintHash",
          "type": "uint256"
        },
        {
          "name": "_rawTxBundle",
          "type": "bytes32[]"
        },
        {
          "name": "_txLengths",
          "type": "uint256[]"
        },
        {
          "name": "_txMsgHashes",
          "type": "bytes32[]"
        }
      ],
      "name": "initiateChallengeWithPastCustody",
      "outputs": [],
      "payable": true,
      "stateMutability": "payable",
      "type": "function"
    },
    {
      "constant": false,
      "inputs": [
        {
          "name": "_to",
          "type": "address"
        },
        {
          "name": "_mintHash",
          "type": "uint256"
        },
        {
          "name": "_rawTxBundle",
          "type": "bytes32[]"
        },
        {
          "name": "_txLengths",
          "type": "uint256[]"
        },
        {
          "name": "_txMsgHashes",
          "type": "bytes32[]"
        }
      ],
      "name": "challengeWithPastCustody",
      "outputs": [],
      "payable": false,
      "stateMutability": "nonpayable",
      "type": "function"
    },
    {
      "constant": false,
      "inputs": [
        {
          "name": "_to",
          "type": "address"
        },
        {
          "name": "_mintHash",
          "type": "uint256"
        },
        {
          "name": "_rawTxBundle",
          "type": "bytes32[]"
        },
        {
          "name": "_txLengths",
          "type": "uint256[]"
        },
        {
          "name": "_txMsgHashes",
          "type": "bytes32[]"
        }
      ],
      "name": "submitCustodianDoubleSign",
      "outputs": [],
      "payable": false,
      "stateMutability": "nonpayable",
      "type": "function"
    },
    {
      "constant": false,
      "inputs": [
        {
          "name": "hash",
          "type": "bytes32"
        },
        {
          "name": "sig",
          "type": "bytes"
        }
      ],
      "name": "ecrecovery",
      "outputs": [
        {
          "name": "",
          "type": "address"
        }
      ],
      "payable": false,
      "stateMutability": "nonpayable",
      "type": "function"
    },
    {
      "constant": false,
      "inputs": [
        {
          "name": "hash",
          "type": "bytes32"
        },
        {
          "name": "sig",
          "type": "bytes"
        },
        {
          "name": "signer",
          "type": "address"
        }
      ],
      "name": "ecverify",
      "outputs": [
        {
          "name": "",
          "type": "bool"
        }
      ],
      "payable": false,
      "stateMutability": "nonpayable",
      "type": "function"
    }
  ],
  "bytecode": "0x60806040526040805190810160405280600981526020017f7072655374616b6564000000000000000000000000000000000000000000000081525060009080519060200190620000519291906200024a565b5063e32e7aff7c010000000000000000000000000000000000000000000000000000000002600960006101000a81548163ffffffff02191690837c010000000000000000000000000000000000000000000000000000000090040217905550632e1a7d4d7c010000000000000000000000000000000000000000000000000000000002600960046101000a81548163ffffffff02191690837c01000000000000000000000000000000000000000000000000000000009004021790555063fe99049a7c010000000000000000000000000000000000000000000000000000000002600960086101000a81548163ffffffff02191690837c010000000000000000000000000000000000000000000000000000000090040217905550636e3c045e7c0100000000000000000000000000000000000000000000000000000000026009600c6101000a81548163ffffffff02191690837c010000000000000000000000000000000000000000000000000000000090040217905550620325aa600a55348015620001de57600080fd5b50604051602080620048088339810180604052810190808051906020019092919050505080600260006101000a81548173ffffffffffffffffffffffffffffffffffffffff021916908373ffffffffffffffffffffffffffffffffffffffff16021790555050620002f9565b828054600181600116156101000203166002900490600052602060002090601f016020900481019282601f106200028d57805160ff1916838001178555620002be565b82800160010185558215620002be579182015b82811115620002bd578251825591602001919060010190620002a0565b5b509050620002cd9190620002d1565b5090565b620002f691905b80821115620002f2576000816000905550600101620002d8565b5090565b90565b6144ff80620003096000396000f3006080604052600436106100db576000357c0100000000000000000000000000000000000000000000000000000000900463ffffffff1680630c3a07eb146100e05780632310b3841461014d57806324241ebc14610164578063360dc40b1461027a578063379607f5146102bb57806339cdde32146102e857806344c7d6ef14610397578063475307ff146103c457806359c8969e146104075780636d08e8f91461051a5780636e553f651461062357806377d32e941461066357806396b6af5a1461071a578063bbcd5bbe14610830578063d7de57c614610873575b600080fd5b3480156100ec57600080fd5b5061010b60048036038101908080359060200190929190505050610989565b604051808273ffffffffffffffffffffffffffffffffffffffff1673ffffffffffffffffffffffffffffffffffffffff16815260200191505060405180910390f35b34801561015957600080fd5b506101626109bc565b005b34801561017057600080fd5b50610278600480360381019080803573ffffffffffffffffffffffffffffffffffffffff16906020019092919080359060200190929190803590602001908201803590602001908080602002602001604051908101604052809392919081815260200183836020028082843782019150505050505091929192908035906020019082018035906020019080806020026020016040519081016040528093929190818152602001838360200280828437820191505050505050919291929080359060200190820180359060200190808060200260200160405190810160405280939291908181526020018383602002808284378201915050505050509192919290505050610b54565b005b34801561028657600080fd5b506102a56004803603810190808035906020019092919050505061103f565b6040518082815260200191505060405180910390f35b3480156102c757600080fd5b506102e660048036038101908080359060200190929190505050611057565b005b3480156102f457600080fd5b5061037d6004803603810190808035600019169060200190929190803590602001908201803590602001908080601f0160208091040260200160405190810160405280939291908181526020018383808284378201915050505050509192919290803573ffffffffffffffffffffffffffffffffffffffff169060200190929190505050611258565b604051808215151515815260200191505060405180910390f35b3480156103a357600080fd5b506103c26004803603810190808035906020019092919050505061129b565b005b3480156103d057600080fd5b50610405600480360381019080803573ffffffffffffffffffffffffffffffffffffffff16906020019092919050505061144b565b005b610518600480360381019080803573ffffffffffffffffffffffffffffffffffffffff1690602001909291908035906020019092919080359060200190820180359060200190808060200260200160405190810160405280939291908181526020018383602002808284378201915050505050509192919290803590602001908201803590602001908080602002602001604051908101604052809392919081815260200183836020028082843782019150505050505091929192908035906020019082018035906020019080806020026020016040519081016040528093929190818152602001838360200280828437820191505050505050919291929080359060200190929190505050611595565b005b610621600480360381019080803573ffffffffffffffffffffffffffffffffffffffff16906020019092919080359060200190929190803590602001908201803590602001908080602002602001604051908101604052809392919081815260200183836020028082843782019150505050505091929192908035906020019082018035906020019080806020026020016040519081016040528093929190818152602001838360200280828437820191505050505050919291929080359060200190820180359060200190808060200260200160405190810160405280939291908181526020018383602002808284378201915050505050509192919290505050611c38565b005b61066160048036038101908080359060200190929190803573ffffffffffffffffffffffffffffffffffffffff1690602001909291905050506121ca565b005b34801561066f57600080fd5b506106d86004803603810190808035600019169060200190929190803590602001908201803590602001908080601f01602080910402602001604051908101604052809392919081815260200183838082843782019150505050505091929192905050506122f7565b604051808273ffffffffffffffffffffffffffffffffffffffff1673ffffffffffffffffffffffffffffffffffffffff16815260200191505060405180910390f35b34801561072657600080fd5b5061082e600480360381019080803573ffffffffffffffffffffffffffffffffffffffff169060200190929190803590602001909291908035906020019082018035906020019080806020026020016040519081016040528093929190818152602001838360200280828437820191505050505050919291929080359060200190820180359060200190808060200260200160405190810160405280939291908181526020018383602002808284378201915050505050509192919290803590602001908201803590602001908080602002602001604051908101604052809392919081815260200183836020028082843782019150505050505091929192905050506123ef565b005b34801561083c57600080fd5b50610871600480360381019080803573ffffffffffffffffffffffffffffffffffffffff169060200190929190505050612a19565b005b34801561087f57600080fd5b50610987600480360381019080803573ffffffffffffffffffffffffffffffffffffffff16906020019092919080359060200190929190803590602001908201803590602001908080602002602001604051908101604052809392919081815260200183836020028082843782019150505050505091929192908035906020019082018035906020019080806020026020016040519081016040528093929190818152602001838360200280828437820191505050505050919291929080359060200190820180359060200190808060200260200160405190810160405280939291908181526020018383602002808284378201915050505050509192919290505050612b63565b005b60086020528060005260406000206000915054906101000a900473ffffffffffffffffffffffffffffffffffffffff1681565b3373ffffffffffffffffffffffffffffffffffffffff16600260009054906101000a900473ffffffffffffffffffffffffffffffffffffffff1673ffffffffffffffffffffffffffffffffffffffff161415610b525760405180807f7072655374616b65640000000000000000000000000000000000000000000000815250600901905060405180910390206000191660006040518082805460018160011615610100020316600290048015610aa95780601f10610a87576101008083540402835291820191610aa9565b820191906000526020600020905b815481529060010190602001808311610a95575b50509150506040518091039020600019161415610b51573073ffffffffffffffffffffffffffffffffffffffff16316004819055503073ffffffffffffffffffffffffffffffffffffffff163160058190555060006006819055506040805190810160405280600681526020017f7374616b6564000000000000000000000000000000000000000000000000000081525060009080519060200190610b4f929190614359565b505b5b565b6000806060806000600b60008a81526020019081526020016000205414151515610b7d57600080fd5b42600b60008a815260200190815260200160002054111515610b9e57600080fd5b6000601060008a815260200190815260200160002054111515610bc057600080fd5b610bcb878786612fd1565b600092505b855183101561103457610c9a610c958585815481101515610bed57fe5b906000526020600020018054600181600116156101000203166002900480601f016020809104026020016040519081016040528092919081815260200182805460018160011615610100020316600290048015610c8b5780601f10610c6057610100808354040283529160200191610c8b565b820191906000526020600020905b815481529060010190602001808311610c6e57829003601f168201915b5050505050613088565b6130e3565b9150610d60610d5b8560018601815481101515610cb357fe5b906000526020600020018054600181600116156101000203166002900480601f016020809104026020016040519081016040528092919081815260200182805460018160011615610100020316600290048015610d515780601f10610d2657610100808354040283529160200191610d51565b820191906000526020600020905b815481529060010190602001808311610d3457829003601f168201915b5050505050613088565b6130e3565b9050610d8782828760018701815181101515610d7857fe5b906020019060200201516131a0565b610dc56000610db7610db0856005815181101515610da157fe5b90602001906020020151613892565b6003613900565b61395190919063ffffffff16565b88141515610e61576040517f08c379a00000000000000000000000000000000000000000000000000000000081526004018080602001828103825260238152602001807f6e6565647320746f20726566657220746f207468652073616d65206d696e744881526020017f617368000000000000000000000000000000000000000000000000000000000081525060400191505060405180910390fd5b610e9f600c610e91610e8a856005815181101515610e7b57fe5b90602001906020020151613892565b6001613900565b61397a90919063ffffffff16565b73ffffffffffffffffffffffffffffffffffffffff16600860008a815260200190815260200160002060009054906101000a900473ffffffffffffffffffffffffffffffffffffffff1673ffffffffffffffffffffffffffffffffffffffff16141515610f9a576040517f08c379a00000000000000000000000000000000000000000000000000000000081526004018080602001828103825260358152602001807f746f6b656e206e6565647320746f206265207472616e7366657265642066726f81526020017f6d206c6173742070726f76656e20637573746f6479000000000000000000000081525060400191505060405180910390fd5b610fd8600c610fca610fc3856005815181101515610fb457fe5b90602001906020020151613892565b6002613900565b61397a90919063ffffffff16565b600860008a815260200190815260200160002060006101000a81548173ffffffffffffffffffffffffffffffffffffffff021916908373ffffffffffffffffffffffffffffffffffffffff160217905550600283019250610bd0565b505050505050505050565b60076020528060005260406000206000915090505481565b6000600b6000838152602001908152602001600020541415151561107a57600080fd5b42600b60008381526020019081526020016000205410151561109b57600080fd5b600f600082815260200190815260200160002054601060008381526020019081526020016000205414806110e2575060006010600083815260200190815260200160002054145b15156111a2576040517f08c379a00000000000000000000000000000000000000000000000000000000081526004018080602001828103825260428152602001807f6569746865722061206368616c6c656e67652068617320737461727465642c2081526020017f6f7220686173206e6f74206265656e2070726f76656e20746f20656e644e6f6e81526020017f636500000000000000000000000000000000000000000000000000000000000081525060600191505060405180910390fd5b600d600082815260200190815260200160002060009054906101000a900473ffffffffffffffffffffffffffffffffffffffff1673ffffffffffffffffffffffffffffffffffffffff166108fc600e6000848152602001908152602001600020546007600085815260200190815260200160002054019081150290604051600060405180830381858888f193505050505060006007600083815260200190815260200160002081905550611255816139b2565b50565b600061126484846122f7565b73ffffffffffffffffffffffffffffffffffffffff168273ffffffffffffffffffffffffffffffffffffffff161490509392505050565b6000600b600083815260200190815260200160002054141515156112be57600080fd5b42600b6000838152602001908152602001600020541015156112df57600080fd5b600f60008281526020019081526020016000205460106000838152602001908152602001600020541415801561132957506000601060008381526020019081526020016000205414155b15156113c3576040517f08c379a000000000000000000000000000000000000000000000000000000000815260040180806020018281038252602b8152602001807f6368616c6c656e6765206e6f7420696e6974617465642f77697468647261776181526020017f6c20697320686f6e65737400000000000000000000000000000000000000000081525060400191505060405180910390fd5b600d600082815260200190815260200160002060009054906101000a900473ffffffffffffffffffffffffffffffffffffffff1673ffffffffffffffffffffffffffffffffffffffff166108fc600e6000848152602001908152602001600020549081150290604051600060405180830381858888f1935050505050611448816139b2565b50565b3373ffffffffffffffffffffffffffffffffffffffff16600260009054906101000a900473ffffffffffffffffffffffffffffffffffffffff1673ffffffffffffffffffffffffffffffffffffffff1614156115925760405180807f7072655374616b656400000000000000000000000000000000000000000000008152506009019050604051809103902060001916600060405180828054600181600116156101000203166002900480156115385780601f10611516576101008083540402835291820191611538565b820191906000526020600020905b815481529060010190602001808311611524575b505091505060405180910390206000191614156115915780600360006101000a81548173ffffffffffffffffffffffffffffffffffffffff021916908373ffffffffffffffffffffffffffffffffffffffff1602179055505b5b50565b6000606080606060006115c5866115b73a600a54613af690919063ffffffff16565b613af690919063ffffffff16565b34101515156115d357600080fd5b6115de898987612fd1565b6116a061169b8660008154811015156115f357fe5b906000526020600020018054600181600116156101000203166002900480601f0160208091040260200160405190810160405280929190818152602001828054600181600116156101000203166002900480156116915780601f1061166657610100808354040283529160200191611691565b820191906000526020600020905b81548152906001019060200180831161167457829003601f168201915b5050505050613088565b6130e3565b935061176461175f8660018154811015156116b757fe5b906000526020600020018054600181600116156101000203166002900480601f0160208091040260200160405190810160405280929190818152602001828054600181600116156101000203166002900480156117555780601f1061172a57610100808354040283529160200191611755565b820191906000526020600020905b81548152906001019060200180831161173857829003601f168201915b5050505050613088565b6130e3565b925061182861182386600281548110151561177b57fe5b906000526020600020018054600181600116156101000203166002900480601f0160208091040260200160405190810160405280929190818152602001828054600181600116156101000203166002900480156118195780601f106117ee57610100808354040283529160200191611819565b820191906000526020600020905b8154815290600101906020018083116117fc57829003601f168201915b5050505050613088565b6130e3565b915061184d838389600281518110151561183e57fe5b906020019060200201516131a0565b61188b600c61187d61187686600581518110151561186757fe5b90602001906020020151613892565b6002613900565b61397a90919063ffffffff16565b9050600160009054906101000a900473ffffffffffffffffffffffffffffffffffffffff1673ffffffffffffffffffffffffffffffffffffffff166118e78560038151811015156118d857fe5b90602001906020020151613b29565b73ffffffffffffffffffffffffffffffffffffffff1614151561190957600080fd5b600187600081518110151561191a57fe5b9060200190602002015161194586600681518110151561193657fe5b90602001906020020151613b70565b61196687600781518110151561195757fe5b90602001906020020151613bc3565b61198788600881518110151561197857fe5b90602001906020020151613bc3565b604051600081526020016040526040518085600019166000191681526020018460ff1660ff1681526020018360001916600019168152602001826000191660001916815260200194505050505060206040516020810390808403906000865af11580156119f8573d6000803e3d6000fd5b5050506020604051035173ffffffffffffffffffffffffffffffffffffffff168173ffffffffffffffffffffffffffffffffffffffff16141515611aca576040517f08c379a000000000000000000000000000000000000000000000000000000000815260040180806020018281038252602c8152602001807f5769746864726177616c5478206e6f74207369676e6564206279206c6173745481526020017f782072656365697069656e74000000000000000000000000000000000000000081525060400191505060405180910390fd5b6000600b60008c815260200190815260200160002054141515611aec57600080fd5b6102584201600b60008c81526020019081526020016000208190555085600f60008c81526020019081526020016000208190555080600c60008c815260200190815260200160002060006101000a81548173ffffffffffffffffffffffffffffffffffffffff021916908373ffffffffffffffffffffffffffffffffffffffff1602179055508a600d60008c815260200190815260200160002060006101000a81548173ffffffffffffffffffffffffffffffffffffffff021916908373ffffffffffffffffffffffffffffffffffffffff16021790555034600e60008c815260200190815260200160002081905550898b73ffffffffffffffffffffffffffffffffffffffff167fdf273cb619d95419a9cd0ec88123a0538c85064229baa6363788f743fff90deb346040518082815260200191505060405180910390a35050505050505050505050565b60006060806000600b60008981526020019081526020016000205414151515611c6057600080fd5b42600b600089815260200190815260200160002054111515611c8157600080fd5b611cce6005611cc0600f60008b815260200190815260200160002054611cb23a600a54613af690919063ffffffff16565b613af690919063ffffffff16565b613bd890919063ffffffff16565b3410151515611cdc57600080fd5b611ce7868685612fd1565b611da9611da4846000815481101515611cfc57fe5b906000526020600020018054600181600116156101000203166002900480601f016020809104026020016040519081016040528092919081815260200182805460018160011615610100020316600290048015611d9a5780601f10611d6f57610100808354040283529160200191611d9a565b820191906000526020600020905b815481529060010190602001808311611d7d57829003601f168201915b5050505050613088565b6130e3565b9150611e6d611e68846001815481101515611dc057fe5b906000526020600020018054600181600116156101000203166002900480601f016020809104026020016040519081016040528092919081815260200182805460018160011615610100020316600290048015611e5e5780601f10611e3357610100808354040283529160200191611e5e565b820191906000526020600020905b815481529060010190602001808311611e4157829003601f168201915b5050505050613088565b6130e3565b9050611e928282866001815181101515611e8357fe5b906020019060200201516131a0565b611ed06000611ec2611ebb856005815181101515611eac57fe5b90602001906020020151613892565b6003613900565b61395190919063ffffffff16565b87141515611f6c576040517f08c379a00000000000000000000000000000000000000000000000000000000081526004018080602001828103825260238152602001807f6e6565647320746f20726566657220746f207468652073616d65206d696e744881526020017f617368000000000000000000000000000000000000000000000000000000000081525060400191505060405180910390fd5b611faa600c611f9c611f95856005815181101515611f8657fe5b90602001906020020151613892565b6001613900565b61397a90919063ffffffff16565b73ffffffffffffffffffffffffffffffffffffffff166008600089815260200190815260200160002060009054906101000a900473ffffffffffffffffffffffffffffffffffffffff1673ffffffffffffffffffffffffffffffffffffffff161415156120a5576040517f08c379a00000000000000000000000000000000000000000000000000000000081526004018080602001828103825260358152602001807f746f6b656e206e6565647320746f206265207472616e7366657265642066726f81526020017f6d206c6173742070726f76656e20637573746f6479000000000000000000000081525060400191505060405180910390fd5b6120e3600c6120d56120ce8560058151811015156120bf57fe5b90602001906020020151613892565b6002613900565b61397a90919063ffffffff16565b6008600089815260200190815260200160002060006101000a81548173ffffffffffffffffffffffffffffffffffffffff021916908373ffffffffffffffffffffffffffffffffffffffff16021790555034600e600089815260200190815260200160002060008282540192505081905550876011600089815260200190815260200160002060006101000a81548173ffffffffffffffffffffffffffffffffffffffff021916908373ffffffffffffffffffffffffffffffffffffffff160217905550600160106000898152602001908152602001600020819055505050505050505050565b34600660008282540192505081905550612200346007600085815260200190815260200160002054613bf390919063ffffffff16565b6007600084815260200190815260200160002081905550806008600084815260200190815260200160002060006101000a81548173ffffffffffffffffffffffffffffffffffffffff021916908373ffffffffffffffffffffffffffffffffffffffff1602179055503373ffffffffffffffffffffffffffffffffffffffff167f02d7e648dd130fc184d383e55bb126ac4c9c60e8f94bf05acdf557ba2d540b47348484604051808481526020018381526020018273ffffffffffffffffffffffffffffffffffffffff1673ffffffffffffffffffffffffffffffffffffffff168152602001935050505060405180910390a25050565b6000806000806041855114151561231157600093506123e6565b602085015192506040850151915060ff6041860151169050601b8160ff16101561233c57601b810190505b601b8160ff16141580156123545750601c8160ff1614155b1561236257600093506123e6565b600186828585604051600081526020016040526040518085600019166000191681526020018460ff1660ff1681526020018360001916600019168152602001826000191660001916815260200194505050505060206040516020810390808403906000865af11580156123d9573d6000803e3d6000fd5b5050506020604051035193505b50505092915050565b6000606080606080612402888887612fd1565b6124c46124bf86600081548110151561241757fe5b906000526020600020018054600181600116156101000203166002900480601f0160208091040260200160405190810160405280929190818152602001828054600181600116156101000203166002900480156124b55780601f1061248a576101008083540402835291602001916124b5565b820191906000526020600020905b81548152906001019060200180831161249857829003601f168201915b5050505050613088565b6130e3565b93506125886125838660018154811015156124db57fe5b906000526020600020018054600181600116156101000203166002900480601f0160208091040260200160405190810160405280929190818152602001828054600181600116156101000203166002900480156125795780601f1061254e57610100808354040283529160200191612579565b820191906000526020600020905b81548152906001019060200180831161255c57829003601f168201915b5050505050613088565b6130e3565b925061264c61264786600281548110151561259f57fe5b906000526020600020018054600181600116156101000203166002900480601f01602080910402602001604051908101604052809291908181526020018280546001816001161561010002031660029004801561263d5780601f106126125761010080835404028352916020019161263d565b820191906000526020600020905b81548152906001019060200180831161262057829003601f168201915b5050505050613088565b6130e3565b915061271061270b86600381548110151561266357fe5b906000526020600020018054600181600116156101000203166002900480601f0160208091040260200160405190810160405280929190818152602001828054600181600116156101000203166002900480156127015780601f106126d657610100808354040283529160200191612701565b820191906000526020600020905b8154815290600101906020018083116126e457829003601f168201915b5050505050613088565b6130e3565b9050612735848488600181518110151561272657fe5b906020019060200201516131a0565b612758828288600381518110151561274957fe5b906020019060200201516131a0565b612796600061278861278187600581518110151561277257fe5b90602001906020020151613892565b6003613900565b61395190919063ffffffff16565b89141515612832576040517f08c379a00000000000000000000000000000000000000000000000000000000081526004018080602001828103825260238152602001807f6e6565647320746f20726566657220746f207468652073616d65206d696e744881526020017f617368000000000000000000000000000000000000000000000000000000000081525060400191505060405180910390fd5b612870600061286261285b85600581518110151561284c57fe5b90602001906020020151613892565b6003613900565b61395190919063ffffffff16565b8914151561290c576040517f08c379a00000000000000000000000000000000000000000000000000000000081526004018080602001828103825260238152602001807f6e6565647320746f20726566657220746f207468652073616d65206d696e744881526020017f617368000000000000000000000000000000000000000000000000000000000081525060400191505060405180910390fd5b61294a600061293c61293587600581518110151561292657fe5b90602001906020020151613892565b6004613900565b61395190919063ffffffff16565b612988600061297a61297386600581518110151561296457fe5b90602001906020020151613892565b6004613900565b61395190919063ffffffff16565b1415156129fd576040517f08c379a00000000000000000000000000000000000000000000000000000000081526004018080602001828103825260208152602001807f6e6565647320746f20726566657220746f207468652073616d65206e6f6e636581525060200191505060405180910390fd5b6000600481905550600060058190555050505050505050505050565b3373ffffffffffffffffffffffffffffffffffffffff16600260009054906101000a900473ffffffffffffffffffffffffffffffffffffffff1673ffffffffffffffffffffffffffffffffffffffff161415612b605760405180807f7072655374616b65640000000000000000000000000000000000000000000000815250600901905060405180910390206000191660006040518082805460018160011615610100020316600290048015612b065780601f10612ae4576101008083540402835291820191612b06565b820191906000526020600020905b815481529060010190602001808311612af2575b50509150506040518091039020600019161415612b5f5780600160006101000a81548173ffffffffffffffffffffffffffffffffffffffff021916908373ffffffffffffffffffffffffffffffffffffffff1602179055505b5b50565b60006060806000600b60008981526020019081526020016000205414151515612b8b57600080fd5b42600b600089815260200190815260200160002054111515612bac57600080fd5b612bb7868685612fd1565b612c79612c74846000815481101515612bcc57fe5b906000526020600020018054600181600116156101000203166002900480601f016020809104026020016040519081016040528092919081815260200182805460018160011615610100020316600290048015612c6a5780601f10612c3f57610100808354040283529160200191612c6a565b820191906000526020600020905b815481529060010190602001808311612c4d57829003601f168201915b5050505050613088565b6130e3565b9150612d3d612d38846001815481101515612c9057fe5b906000526020600020018054600181600116156101000203166002900480601f016020809104026020016040519081016040528092919081815260200182805460018160011615610100020316600290048015612d2e5780601f10612d0357610100808354040283529160200191612d2e565b820191906000526020600020905b815481529060010190602001808311612d1157829003601f168201915b5050505050613088565b6130e3565b9050612d628282866001815181101515612d5357fe5b906020019060200201516131a0565b612da0600c612d92612d8b856005815181101515612d7c57fe5b90602001906020020151613892565b6001613900565b61397a90919063ffffffff16565b73ffffffffffffffffffffffffffffffffffffffff16600c600089815260200190815260200160002060009054906101000a900473ffffffffffffffffffffffffffffffffffffffff1673ffffffffffffffffffffffffffffffffffffffff16141515612e9b576040517f08c379a00000000000000000000000000000000000000000000000000000000081526004018080602001828103825260358152602001807f746f6b656e206e6565647320746f206265207472616e7366657265642066726f81526020017f6d206c6173742070726f76656e20637573746f6479000000000000000000000081525060400191505060405180910390fd5b612ed96000612ecb612ec4856005815181101515612eb557fe5b90602001906020020151613892565b6003613900565b61395190919063ffffffff16565b87141515612f75576040517f08c379a00000000000000000000000000000000000000000000000000000000081526004018080602001828103825260238152602001807f6e6565647320746f20726566657220746f207468652073616d65206d696e744881526020017f617368000000000000000000000000000000000000000000000000000000000081525060400191505060405180910390fd5b8773ffffffffffffffffffffffffffffffffffffffff166108fc600e60008a8152602001908152602001600020549081150290604051600060405180830381858888f1935050505050612fc7876139b2565b5050505050505050565b60008060009150600090505b83518110156130815761300885838684815181101515612ff957fe5b90602001906020020151613c11565b838281548110151561301657fe5b9060005260206000200190805190602001906130339291906143d9565b5061305e848281518110151561304557fe5b9060200190602002015183613bf390919063ffffffff16565b915060408281151561306c57fe5b06604003820191508080600101915050612fdd565b5050505050565b613090614459565b6000808351915060008214156130be57604080519081016040528060008152602001600081525092506130dc565b60208401905060408051908101604052808281526020018381525092505b5050919050565b606060006130ef614473565b60006130fa85613d16565b151561310557600080fd5b61310e85613d48565b92508260405190808252806020026020018201604052801561314a57816020015b613137614494565b81526020019060019003908161312f5790505b50935061315685613dc2565b91505b61316282613e0a565b156131985761317082613e34565b848281518110151561317e57fe5b906020019060200201819052508080600101915050613159565b505050919050565b600160009054906101000a900473ffffffffffffffffffffffffffffffffffffffff1673ffffffffffffffffffffffffffffffffffffffff166131fa8460038151811015156131eb57fe5b90602001906020020151613b29565b73ffffffffffffffffffffffffffffffffffffffff1614151561321c57600080fd5b600160009054906101000a900473ffffffffffffffffffffffffffffffffffffffff1673ffffffffffffffffffffffffffffffffffffffff1661327683600381518110151561326757fe5b90602001906020020151613b29565b73ffffffffffffffffffffffffffffffffffffffff1614151561329857600080fd5b600960089054906101000a90047c0100000000000000000000000000000000000000000000000000000000027bffffffffffffffffffffffffffffffffffffffffffffffffffffffff191661331861331161330a8660058151811015156132fb57fe5b90602001906020020151613892565b6000613900565b6000613e90565b7bffffffffffffffffffffffffffffffffffffffffffffffffffffffff19161415156133d2576040517f08c379a00000000000000000000000000000000000000000000000000000000081526004018080602001828103825260288152602001807f5f7472616e736665725478206973206e6f74207472616e7366657246726f6d2081526020017f66756e6374696f6e00000000000000000000000000000000000000000000000081525060400191505060405180910390fd5b6009600c9054906101000a90047c0100000000000000000000000000000000000000000000000000000000027bffffffffffffffffffffffffffffffffffffffffffffffffffffffff191661345261344b61344485600581518110151561343557fe5b90602001906020020151613892565b6000613900565b6000613e90565b7bffffffffffffffffffffffffffffffffffffffffffffffffffffffff191614151561350c576040517f08c379a00000000000000000000000000000000000000000000000000000000081526004018080602001828103825260258152602001807f5f637573746f6469616e5478206973206e6f7420637573746f6469616e41707081526020017f726f76616c00000000000000000000000000000000000000000000000000000081525060400191505060405180910390fd5b60018161353084600681518110151561352157fe5b90602001906020020151613b70565b61355185600781518110151561354257fe5b90602001906020020151613bc3565b61357286600881518110151561356357fe5b90602001906020020151613bc3565b604051600081526020016040526040518085600019166000191681526020018460ff1660ff1681526020018360001916600019168152602001826000191660001916815260200194505050505060206040516020810390808403906000865af11580156135e3573d6000803e3d6000fd5b5050506020604051035173ffffffffffffffffffffffffffffffffffffffff16600360009054906101000a900473ffffffffffffffffffffffffffffffffffffffff1673ffffffffffffffffffffffffffffffffffffffff161415156136d7576040517f08c379a000000000000000000000000000000000000000000000000000000000815260040180806020018281038252602a8152602001807f5f637573746f6469616e54782073686f756c64206265207369676e656420627981526020017f20637573746f6469616e0000000000000000000000000000000000000000000081525060400191505060405180910390fd5b61373e6137056136fe8460058151811015156136ef57fe5b90602001906020020151613892565b6001613900565b61373061372986600581518110151561371a57fe5b90602001906020020151613892565b6003613900565b613f8990919063ffffffff16565b15156137b2576040517f08c379a00000000000000000000000000000000000000000000000000000000081526004018080602001828103825260168152602001807f746f6b656e5f69647320646f206e6f74206d617463680000000000000000000081525060200191505060405180910390fd5b6138196137e06137d98460058151811015156137ca57fe5b90602001906020020151613892565b6002613900565b61380b6138048660058151811015156137f557fe5b90602001906020020151613892565b6004613900565b613f8990919063ffffffff16565b151561388d576040517f08c379a00000000000000000000000000000000000000000000000000000000081526004018080602001828103825260138152602001807f6e6f6e63657320646f206e6f74206d617463680000000000000000000000000081525060200191505060405180910390fd5b505050565b60606000806138a084613ff8565b15156138ab57600080fd5b6138b484614029565b91509150806040519080825280601f01601f1916602001820160405280156138eb5781602001602082028038833980820191505090505b5092506138f98284836140aa565b5050919050565b606060008214156139295761392260006005856140eb9092919063ffffffff16565b905061394b565b613948602060018403026004016020856140eb9092919063ffffffff16565b90505b92915050565b6000806020830184511015151561396757600080fd5b8260208501015190508091505092915050565b6000806014830184511015151561399057600080fd5b6c01000000000000000000000000836020860101510490508091505092915050565b6000600e6000838152602001908152602001600020819055506000600d600083815260200190815260200160002060006101000a81548173ffffffffffffffffffffffffffffffffffffffff021916908373ffffffffffffffffffffffffffffffffffffffff1602179055506000600c600083815260200190815260200160002060006101000a81548173ffffffffffffffffffffffffffffffffffffffff021916908373ffffffffffffffffffffffffffffffffffffffff1602179055506000600f6000838152602001908152602001600020819055506000600b600083815260200190815260200160002081905550600060106000838152602001908152602001600020819055507f7874ca11ed47a2bbe287f114874e02e047a1261400f57712590c8f364b126501816040518082815260200191505060405180910390a150565b60008082840290506000841480613b175750828482811515613b1457fe5b04145b1515613b1f57fe5b8091505092915050565b6000806000613b3784613ff8565b1515613b4257600080fd5b613b4b84614029565b91509150601481141515613b5e57600080fd5b600c6101000a82510492505050919050565b6000806000613b7e84613ff8565b1515613b8957600080fd5b613b9284614029565b915091506020811180613ba55750600081145b15613baf57600080fd5b806020036101000a82510492505050919050565b6000613bce82613b70565b6001029050919050565b6000808284811515613be657fe5b0490508091505092915050565b6000808284019050838110151515613c0757fe5b8091505092915050565b6060806000806000613c2d604088613bd890919063ffffffff16565b9250613c428688613bf390919063ffffffff16565b9150613c58604083613bd890919063ffffffff16565b90505b80831015613ca457613c95613c868985815181101515613c7757fe5b90602001906020020151614178565b856141a990919063ffffffff16565b93508280600101935050613c5b565b613d06613cf7600060016002604087811515613cbc57fe5b06811515613cc657fe5b0403613ce88c86815181101515613cd957fe5b90602001906020020151614178565b6140eb9092919063ffffffff16565b856141a990919063ffffffff16565b9350839450505050509392505050565b600080600083602001511415613d2f5760009150613d42565b8260000151905060c0815160001a101591505b50919050565b600080600080600080613d5a87613d16565b1515613d695760009550613db8565b86600001519350835160001a9450613d8087614233565b840192506001876020015185010391505b8183111515613db457613da3836142bf565b830192508080600101915050613d91565b8095505b5050505050919050565b613dca614473565b6000613dd583613d16565b1515613de057600080fd5b613de983614233565b83600001510190508282600001819052508082602001818152505050919050565b6000613e14614459565b826000015190508060200151816000015101836020015110915050919050565b613e3c614459565b600080613e4884613e0a565b15613e845783602001519150613e5d826142bf565b90508183600001818152505080836020018181525050808201846020018181525050613e89565b600080fd5b5050919050565b60008060008090505b6004811015613f7e576008810260ff7f01000000000000000000000000000000000000000000000000000000000000000286838701815181101515613eda57fe5b9060200101517f010000000000000000000000000000000000000000000000000000000000000090047f010000000000000000000000000000000000000000000000000000000000000002167effffffffffffffffffffffffffffffffffffffffffffffffffffffffffffff19167bffffffffffffffffffffffffffffffffffffffffffffffffffffffff19169060020a9004821791508080600101915050613e99565b819250505092915050565b6000806001905083518351811460018114613fa75760009250613fec565b600160208701838101602088015b600284838510011415613fe75780518351141515613fd65760009650600093505b602083019250602081019050613fb5565b505050505b50508091505092915050565b6000806000836020015114156140115760009150614023565b8260000151905060c0815160001a1091505b50919050565b600080600080600061403a86613ff8565b151561404557600080fd5b85600001519150815160001a9250608083101561406857819450600193506140a2565b60b883101561408657600186602001510393506001820194506140a1565b60b78303905080600187602001510303935060018183010194505b5b505050915091565b60006020601f83010484602085015b8284146140d857602084028083015181830152600185019450506140b9565b6000865160200187015250505050505050565b60608082840185511015151561410057600080fd5b82156000811461411b5760405191506020820160405261416c565b6040519150601f8416801560200281840101858101878315602002848b0101015b81831015614159578051835260208301925060208101905061413c565b50868552601f19601f8301166040525050505b50809150509392505050565b6060816040516020018082600019166000191681526020019150506040516020818303038152906040529050919050565b6060806040519050835180825260208201818101602087015b818310156141df57805183526020830192506020810190506141c2565b50855192508351830184528091508282019050602086015b8183101561421457805183526020830192506020810190506141f7565b50601f19601f8851850115830101166040525050508091505092915050565b6000806000808460200151141561424d57600092506142b8565b83600001519050805160001a9150608082101561426d57600092506142b8565b60b8821080614289575060c08210158015614288575060f882105b5b1561429757600192506142b8565b60c08210156142ae57600160b783030192506142b8565b600160f783030192505b5050919050565b600080825160001a905060808110156142db5760019150614353565b60b88110156142f257600160808203019150614352565b60c081101561431c5760b78103806020036101000a60018501510480820160010193505050614351565b60f881101561433357600160c08203019150614350565b60f78103806020036101000a600185015104808201600101935050505b5b5b5b50919050565b828054600181600116156101000203166002900490600052602060002090601f016020900481019282601f1061439a57805160ff19168380011785556143c8565b828001600101855582156143c8579182015b828111156143c75782518255916020019190600101906143ac565b5b5090506143d591906144ae565b5090565b828054600181600116156101000203166002900490600052602060002090601f016020900481019282601f1061441a57805160ff1916838001178555614448565b82800160010185558215614448579182015b8281111561444757825182559160200191906001019061442c565b5b50905061445591906144ae565b5090565b604080519081016040528060008152602001600081525090565b606060405190810160405280614487614494565b8152602001600081525090565b604080519081016040528060008152602001600081525090565b6144d091905b808211156144cc5760008160009055506001016144b4565b5090565b905600a165627a7a723058205911d541853cf35b7bb40a408946e5f668528d8cc5034acc1b37eaa8f3a9ad030029",
  "source": "pragma solidity ^0.4.24;\n// pragma experimental ABIEncoderV2;\n\nimport \"./dependencies/SafeMath.sol\";\nimport \"./dependencies/Ownable.sol\";\nimport \"./dependencies/RLP.sol\";\nimport \"./dependencies/BytesLib.sol\";\n\ncontract DepositContract {\n  using SafeMath for uint256;\n  using RLP for RLP.RLPItem;\n  using RLP for RLP.Iterator;\n  using RLP for bytes;\n  using BytesLib for bytes;\n\n  string contractState = \"preStaked\";\n  address tokenContract;\n  address custodian;\n  address custodianETC;\n  uint256 stakedAmount;\n  uint256 depositCap;\n  uint256 depositedAmount;\n  mapping (uint256 => uint256) public mintHashToAmount;\n  mapping (uint256 => address) public mintHashToMinter;\n\n  struct Transaction {\n    uint nonce;\n    uint gasPrice;\n    uint gasLimit;\n    address to;\n    uint value;\n    bytes data;\n    uint8 v;\n    bytes32 r;\n    bytes32 s;\n    address from;\n  }\n\n  constructor (address _custodian) {\n    custodian = _custodian;\n  }\n\n  modifier onlyCustodian() {\n    if (custodian == msg.sender) {\n      _;\n    }\n  }\n\n  modifier statePreStaked () {\n    if (keccak256(contractState) == keccak256(\"preStaked\"))  {\n      _;\n    }\n  }\n\n  modifier stateStaked () {\n    if (keccak256(contractState) == keccak256(\"staked\"))  {\n      _;\n    }\n  }\n  \n  event Deposit(address indexed depositer, uint256 amount, uint256 mintHash, address minter);\n  event Challenge(address indexed depositer, address indexed depositedTo, uint256 amount, uint256 indexed blockNumber);\n  event ChallengeResolved(uint256 mintHash); \n  event Withdrawal(address indexed withdrawer, uint256 indexed mintHash, uint256 stakedAmount);\n\n  bytes4 mintSignature = 0xe32e7aff;\n  bytes4 withdrawSignature = 0x2e1a7d4d;\n  bytes4 transferFromSignature = 0xfe99049a;\n  bytes4 custodianApproveSignature = 0x6e3c045e;\n  uint256 gasPerChallenge = 206250;\n\n  function setTokenContract(address _tokenContract) onlyCustodian statePreStaked public {\n    tokenContract = _tokenContract;\n  }\n\n\n  function setCustodianETC(address _custodianETC) onlyCustodian statePreStaked public {\n    custodianETC = _custodianETC;\n  }\n\n  function finalizeStake () onlyCustodian statePreStaked public {\n    stakedAmount = address(this).balance;\n    depositCap = address(this).balance;\n    depositedAmount = 0;\n    contractState = \"staked\";\n  }\n\n  function deposit(uint256 _mintHash, address _minter) payable public {\n    depositedAmount += msg.value;\n    mintHashToAmount[_mintHash] = mintHashToAmount[_mintHash].add(msg.value);\n    mintHashToMinter[_mintHash] = _minter;\n    emit Deposit(msg.sender, msg.value, _mintHash, _minter);\n  }\n\n  // mintHashToTimestamp\n  mapping (uint256 => uint256) challengeTime;\n  // mintHashToAddress\n  mapping (uint256 => address) challengeAddressClaim;\n  // mintHashToAddress\n  mapping (uint256 => address) challengeRecipient;\n  //mintToStake \n  mapping (uint256 => uint256) challengeStake;\n  //mintToEndNonce/depth\n  mapping (uint256 => uint256) challengeEndNonce;\n  //mintHashToNonce\n  mapping (uint256 => uint256) challengeNonce;\n  //mintHashToChallengerAddress\n  mapping (uint256 => address) challenger;\n\n  //For Debugging purposes\n  event Test(bytes tx1, bytes tx2, bytes tx3);\n  event Trace(bytes out);\n  event TraceAddress(address out);\n  event Trace32(bytes32 out);\n  event TraceUint256(uint256 out);\n  /*\n  /**\n   * @dev Initiates a withdrawal process. Starts the challenge period \n   * Requires the msg sender to stake a payment (payable function)\n   // TODO: check amount to stake, decern challenge time\n   * @param _to address to send withdrawal \n   * @param _mintHash uint256 ID of token on TokenContract\n   * @param _rawTxBundle bytes32[] bundle that takes in concatination of bytes _withdrawalTx, bytes _lastTx, bytes _custodianTx\n   * @param _txLengths lengths of transactions in rawTxBundle, used for efficiency purposes\n   * @param _txMsgHashes msghashes of transactions in bundle\n   + @param _declaredNonce depth of chain of custody from token contract. IMPORTANT TO BE HONEST\n  */\n  function withdraw(address _to, uint256 _mintHash, bytes32[] _rawTxBundle, uint256[] _txLengths, bytes32[] _txMsgHashes, uint256 _declaredNonce) public payable  {\n    // TODO:  decern challenge time, \n    //check amount to stake\n    require(msg.value >= gasPerChallenge.mul(tx.gasprice).mul(_declaredNonce));\n    // splits bundle into individual rawTxs\n    bytes[] rawTxList;\n    splitTxBundle(_rawTxBundle, _txLengths, rawTxList);\n\n    RLP.RLPItem[] memory withdrawTx = rawTxList[0].toRLPItem().toList();\n    RLP.RLPItem[] memory lastTx = rawTxList[1].toRLPItem().toList();\n    RLP.RLPItem[] memory custodianTx = rawTxList[2].toRLPItem().toList();\n\n    checkTransferTxAndCustodianTx(lastTx, custodianTx, _txMsgHashes[2]);\n\n    address lastCustody = parseData(lastTx[5].toData(), 2).toAddress(12);\n    require(withdrawTx[3].toAddress() == tokenContract);\n    require(lastCustody == ecrecover(_txMsgHashes[0], uint8(withdrawTx[6].toUint()), withdrawTx[7].toBytes32(), withdrawTx[8].toBytes32()), \"WithdrawalTx not signed by lastTx receipient\");\n\n    //require that a challenge has not started\n    require(challengeTime[_mintHash] == 0);\n    //start challenge\n    challengeTime[_mintHash] = now + 10 minutes;\n    challengeEndNonce[_mintHash] = _declaredNonce;\n    challengeAddressClaim[_mintHash] = lastCustody;\n    challengeRecipient[_mintHash] = _to;\n    challengeStake[_mintHash] = msg.value;\n    emit Withdrawal(_to, _mintHash, msg.value);\n  }\n\n  /*\n  /**\n   * @dev For withdrawee to claims honest withdrawal\n   * @param _mintHash uint256 ID of token on TokenContract\n  */\n  function claim(uint256 _mintHash) public {\n    require(challengeTime[_mintHash] != 0);\n    require(challengeTime[_mintHash] < now);\n    require(challengeNonce[_mintHash] == challengeEndNonce[_mintHash] || challengeNonce[_mintHash] == 0, \"either a challenge has started, or has not been proven to endNonce\");\n    \n    challengeRecipient[_mintHash].send((mintHashToAmount[_mintHash] ) + challengeStake[_mintHash]);\n\n    mintHashToAmount[_mintHash] = 0;\n    resetChallenge(_mintHash);\n  }\n\n  /*\n  /**\n   * @dev For challenger to claim stake on fradulent challenge (challengeWithPastCustody())\n   * @param _mintHash uint256 ID of token on TokenContract\n  */\n  function claimStake(uint256 _mintHash) public {\n    require(challengeTime[_mintHash] != 0);\n    require(challengeTime[_mintHash] < now);\n    require(challengeNonce[_mintHash] != challengeEndNonce[_mintHash] && challengeNonce[_mintHash] != 0, \"challenge not initated/withdrawal is honest\");\n    \n    challengeRecipient[_mintHash].send(challengeStake[_mintHash]);\n    \n    resetChallenge(_mintHash);\n  }\n  /*\n  /**\n   * @dev Challenges with future custody using a transaction proving transfer of token\n   * once future custody is proven, it ends pays the challenger\n   * @param _to address to send stake given success\n   * @param _mintHash uint256 ID of token on TokenContract\n   * @param _rawTxBundle bytes32[] bundle that takes in concatination of bytes _transactionTx, bytes _custodianTx\n   * @param _txLengths lengths of transactions in rawTxBundle, used for efficiency purposes\n   * @param _txMsgHashes msghashes of transactions in bundle\n  */\n  function challengeWithFutureCustody(address _to, uint256 _mintHash, bytes32[] _rawTxBundle, uint256[] _txLengths, bytes32[] _txMsgHashes) public { \n    require(challengeTime[_mintHash] != 0);\n    require(challengeTime[_mintHash] > now);\n\n    // splits bundle into individual rawTxs\n    bytes[] rawTxList;\n    splitTxBundle(_rawTxBundle, _txLengths, rawTxList);\n\n    RLP.RLPItem[] memory transferTx = rawTxList[0].toRLPItem().toList();\n    RLP.RLPItem[] memory custodianTx = rawTxList[1].toRLPItem().toList();\n\n    //TODO: NEED TO CHECK NONCE \n    checkTransferTxAndCustodianTx(transferTx, custodianTx, _txMsgHashes[1]);\n    require(challengeAddressClaim[_mintHash] == parseData(transferTx[5].toData(), 1).toAddress(12), \"token needs to be transfered from last proven custody\");\n    require(_mintHash == parseData(transferTx[5].toData(), 3).toUint(0), \"needs to refer to the same mintHash\");\n    \n    _to.send(challengeStake[_mintHash]);\n    resetChallenge(_mintHash);\n  }\n\n/*\n  /**\n   * @dev Initiates a challenge with past custody using a chain of custody leading to the declared nonce\n   * once challenge period ends. It should be designed such that it punishes challenging an honest withdrawal and incentivises challenging a fradulent one\n   * requires challenger to stake.\n   // TODO: extend challenge period when called\n   * @param _to address to send stake given success\n   * @param _mintHash uint256 ID of token on TokenContract\n   * @param _rawTxBundle bytes32[] bundle that takes in concatination of bytes _transactionTx, bytes _custodianTx\n   * @param _txLengths lengths of transactions in rawTxBundle, used for efficiency purposes\n   * @param _txMsgHashes msghashes of transactions in bundle\n  */\n  function initiateChallengeWithPastCustody(address _to, uint256 _mintHash, bytes32[] _rawTxBundle, uint256[] _txLengths, bytes32[] _txMsgHashes) payable public {\n    require(challengeTime[_mintHash] != 0);\n    require(challengeTime[_mintHash] > now);\n    require(msg.value >= gasPerChallenge.mul(tx.gasprice).mul(challengeEndNonce[_mintHash]).div(5));\n\n    // splits bundle into individual rawTxs\n    bytes[] rawTxList;\n    splitTxBundle(_rawTxBundle, _txLengths, rawTxList);\n\n    RLP.RLPItem[] memory transferTx = rawTxList[0].toRLPItem().toList();\n    RLP.RLPItem[] memory custodianTx = rawTxList[1].toRLPItem().toList();\n\n    checkTransferTxAndCustodianTx(transferTx, custodianTx, _txMsgHashes[1]);\n    //TODO: save on require statement by not including _mintHash in arguments\n    require(_mintHash == parseData(transferTx[5].toData(), 3).toUint(0), \"needs to refer to the same mintHash\");\n    require(mintHashToMinter[_mintHash] == parseData(transferTx[5].toData(), 1).toAddress(12), \"token needs to be transfered from last proven custody\");\n    //moves up root mint referecce to recipient address\n    mintHashToMinter[_mintHash] = parseData(transferTx[5].toData(), 2).toAddress(12);\n\n    challengeStake[_mintHash] += msg.value;\n    challenger[_mintHash] = _to;\n    challengeNonce[_mintHash] = 1;\n  }\n\n  /*\n  /**\n   * @dev Add to the chain of custody leading to the declared nonce\n   * once challenge period ends claim funds through claimStake()\n   // TODO: remove loops (less efficient then single calls)\n   * @param _to address to send stake given success\n   * @param _mintHash uint256 ID of token on TokenContract\n   * @param _rawTxBundle bytes32[] bundle that takes in concatination of bytes _transactionTx, bytes _custodianTx\n   * @param _txLengths lengths of transactions in rawTxBundle, used for efficiency purposes\n   * @param _txMsgHashes msghashes of transactions in bundle\n  */\n  function challengeWithPastCustody(address _to, uint256 _mintHash, bytes32[] _rawTxBundle, uint256[] _txLengths, bytes32[] _txMsgHashes) public { \n    require(challengeTime[_mintHash] != 0);\n    require(challengeTime[_mintHash] > now);\n    require(challengeNonce[_mintHash] > 0);\n\n    // splits bundle into individual rawTxs\n    bytes[] rawTxList;\n    splitTxBundle(_rawTxBundle, _txLengths, rawTxList);\n\n    //get rid of loops\n    for (uint i = 0; i < _txLengths.length; i +=2) {\n      RLP.RLPItem[] memory transferTx = rawTxList[i].toRLPItem().toList();\n      RLP.RLPItem[] memory custodianTx = rawTxList[i + 1].toRLPItem().toList();\n\n      checkTransferTxAndCustodianTx(transferTx, custodianTx, _txMsgHashes[i+1]);\n      //TODO: save on require statement by not including _mintHash in arguments\n      require(_mintHash == parseData(transferTx[5].toData(), 3).toUint(0), \"needs to refer to the same mintHash\");\n      require(mintHashToMinter[_mintHash] == parseData(transferTx[5].toData(), 1).toAddress(12), \"token needs to be transfered from last proven custody\");\n      //moves up root mint referecce to recipient address\n      mintHashToMinter[_mintHash] = parseData(transferTx[5].toData(), 2).toAddress(12);\n    }\n  }\n\n  /*\n  /**\n   * @dev In the existance of two mintHashes with the same nonce indicates the presence of double spending\n   * Burn the custodian for a double spend\n   // TODO: how much to punish custodian??? can we pay out the stake instead of just burning it, pause contract??\n   * @param _to address to send stake given success\n   * @param _mintHash uint256 ID of token on TokenContract\n   * @param _rawTxBundle bytes32[] bundle that takes in concatination of bytes _transactionTx, bytes _custodianTx\n   * @param _txLengths lengths of transactions in rawTxBundle, used for efficiency purposes\n   * @param _txMsgHashes msghashes of transactions in bundle\n  */\n  function submitCustodianDoubleSign(address _to, uint256 _mintHash, bytes32[] _rawTxBundle, uint256[] _txLengths, bytes32[] _txMsgHashes) public {\n    \n    bytes[] rawTxList;\n    splitTxBundle(_rawTxBundle, _txLengths, rawTxList);\n\n    RLP.RLPItem[] memory transferTx = rawTxList[0].toRLPItem().toList();\n    RLP.RLPItem[] memory custodianTx = rawTxList[1].toRLPItem().toList();\n    RLP.RLPItem[] memory transferTx2 = rawTxList[2].toRLPItem().toList();\n    RLP.RLPItem[] memory custodianTx2 = rawTxList[3].toRLPItem().toList();\n\n    checkTransferTxAndCustodianTx(transferTx, custodianTx, _txMsgHashes[1]);\n    checkTransferTxAndCustodianTx(transferTx2, custodianTx2, _txMsgHashes[3]);\n    require(_mintHash == parseData(transferTx[5].toData(), 3).toUint(0), \"needs to refer to the same mintHash\");\n    require(_mintHash == parseData(transferTx2[5].toData(), 3).toUint(0), \"needs to refer to the same mintHash\");\n    require(parseData(transferTx2[5].toData(), 4).toUint(0) == parseData(transferTx[5].toData(), 4).toUint(0), \"needs to refer to the same nonce\");\n\n    //TODO: how much to punish custodian??? can we pay out the stake instead of just burning it, pause contract??\n    stakedAmount = 0;\n    depositCap = 0;\n  }\n\n  /*\n  /**\n   * @dev Check the validity of the transfer and custodian transaction\n   * @param  _transferTx RLP item array representing transferTx\n   * @param _mintHash RLP item array representing corresponding custodianTx\n   * @param _rawTxBundle bytes32 _custodianTx msgHash\n  */\n  function checkTransferTxAndCustodianTx(RLP.RLPItem[] _transferTx, RLP.RLPItem[] _custodianTx, bytes32 _custodianTxMsgHash) internal {\n    require(_transferTx[3].toAddress() == tokenContract);\n    require(_custodianTx[3].toAddress() == tokenContract);\n    require(bytesToBytes4(parseData(_transferTx[5].toData(), 0), 0) == transferFromSignature, \"_transferTx is not transferFrom function\");\n    require(bytesToBytes4(parseData(_custodianTx[5].toData(), 0), 0) == custodianApproveSignature, \"_custodianTx is not custodianApproval\");\n    require(custodianETC == ecrecover(_custodianTxMsgHash, uint8(_custodianTx[6].toUint()), _custodianTx[7].toBytes32(), _custodianTx[8].toBytes32()), \"_custodianTx should be signed by custodian\");\n    //TODO: which is more efficient, checking parameters or hash?\n    require(parseData(_transferTx[5].toData(),3).equal(parseData(_custodianTx[5].toData(),1)), \"token_ids do not match\");\n    require(parseData(_transferTx[5].toData(),4).equal(parseData(_custodianTx[5].toData(),2)), \"nonces do not match\");\n  }\n\n  /*\n  /**\n   * @dev Splits a rawTxBundle received to its individual transactions. \n   * Necessary due to limitation in amount of data transferable through solidity arguments\n   * @param  _transferTx RLP item array representing transferTx\n   * @param _mintHash RLP item array representing corresponding custodianTx\n   * @param _rawTxBundle bytes32 _custodianTx msgHash\n  */\n  function splitTxBundle(bytes32[] _rawTxBundle, uint256[] _txLengths, bytes[] storage _rawTxList) internal {\n    uint256 txStartPosition = 0;\n    for (uint i = 0; i < _txLengths.length; i++) {\n      _rawTxList[i] = sliceBytes32Arr(_rawTxBundle, txStartPosition, _txLengths[i]);\n      txStartPosition = txStartPosition.add(_txLengths[i]);\n      txStartPosition = txStartPosition + (64 - txStartPosition % 64);\n    }\n  }\n\n  /*\n  /**\n   * @dev Splits a rawTxBundle received to its individual transactions. \n   * Necessary due to limitation in amount of data transferable through solidity arguments\n   * @param  _transferTx RLP item array representing transferTx\n   * @param _mintHash RLP item array representing corresponding custodianTx\n   * @param _rawTxBundle bytes32 _custodianTx msgHash\n  */\n  //TODO: MAKE MORE EFFICENT \n  function sliceBytes32Arr(bytes32[] _bytes32ArrBundle, uint256 _startPosition, uint256 _length) internal returns (bytes) {\n    bytes memory out;\n    uint256 i = _startPosition.div(64);\n    uint256 endPosition = _startPosition.add(_length);\n    uint256 z = endPosition.div(64);\n    for (i ; i < z; i++) {\n      out = out.concat(bytes32ToBytes(_bytes32ArrBundle[i]));\n    }\n    out = out.concat(bytes32ToBytes(_bytes32ArrBundle[z]).slice(0, (endPosition % 64 / 2) - 1));\n    return out;\n  }\n\n  function resetChallenge(uint256 _mintHash) internal {\n    challengeStake[_mintHash] = 0;\n    challengeRecipient[_mintHash] = 0;\n    challengeAddressClaim[_mintHash] = 0;\n    challengeEndNonce[_mintHash] = 0;\n    challengeTime[_mintHash] = 0; \n    challengeNonce[_mintHash] = 0;\n    emit ChallengeResolved(_mintHash);\n  }\n\n  /* Util functions --------------------------------------------------*/\n\n  function parseData(bytes data, uint256 i) internal returns (bytes) {\n    if (i == 0) {\n      return data.slice(0,5);\n    } else {\n      return data.slice(4 + ((i-1) * 32), 32);\n    }\n  }\n\n  //https://ethereum.stackexchange.com/questions/40920/convert-bytes32-to-bytes\n  //TODO: Look for more efficient method\n  function bytes32ToBytes(bytes32 _data) internal pure returns (bytes) {\n    return abi.encodePacked(_data);\n  }\n\n  function bytesToBytes32(bytes b, uint offset) private pure returns (bytes32) {\n    bytes32 out;\n    for (uint i = 0; i < 32; i++) {\n      out |= bytes32(b[offset + i] & 0xFF) >> (i * 8);\n    }\n    return out;\n  }\n\n  function bytesToBytes4(bytes b, uint offset) private pure returns (bytes4) {\n    bytes4 out;\n    for (uint i = 0; i < 4; i++) {\n      out |= bytes4(b[offset + i] & 0xFF) >> (i * 8);\n    }\n    return out;\n  }\n\n  function stringToBytes( string s) internal returns (bytes memory b3){\n    b3 = bytes(s);\n    return b3;\n  }\n\n  // Nick Johnson https://ethereum.stackexchange.com/questions/4170/how-to-convert-a-uint-to-bytes-in-solidity\n  function uint256ToBytes(uint256 x) internal returns (bytes b) {\n    b = new bytes(32);\n    assembly { mstore(add(b, 32), x) }\n  }\n\n  // Tjaden Hess https://ethereum.stackexchange.com/questions/884/how-to-convert-an-address-to-bytes-in-solidity\n  function addressToBytes(address a) internal returns (bytes b) {\n    assembly {\n        let m := mload(0x40)\n        mstore(add(m, 20), xor(0x140000000000000000000000000000000000000000, a))\n        mstore(0x40, add(m, 52))\n        b := m\n    }\n  }\n\n  function ecrecovery(bytes32 hash, bytes sig) public returns (address) {\n    bytes32 r;\n    bytes32 s;\n    uint8 v;\n\n    if (sig.length != 65) {\n      return 0;\n    }\n\n    assembly {\n      r := mload(add(sig, 32))\n      s := mload(add(sig, 64))\n      v := and(mload(add(sig, 65)), 255)\n    }\n\n    // https://github.com/ethereum/go-ethereum/issues/2053\n    if (v < 27) {\n      v += 27;\n    }\n\n    if (v != 27 && v != 28) {\n      return 0;\n    }\n\n    /* prefix might be needed for geth only\n     * https://github.com/ethereum/go-ethereum/issues/3731\n     */\n    // bytes memory prefix = \"\\x19Ethereum Signed Message:\\n32\";\n    // hash = sha3(prefix, hash);\n\n    return ecrecover(hash, v, r, s);\n  }\n\n  function ecverify(bytes32 hash, bytes sig, address signer) public returns (bool) {\n    return signer == ecrecovery(hash, sig);\n  }\n\n}\n",
  "sourcePath": "/Users/ben/Documents/GitHub/peaceNotRelay/contracts/DepositContract.sol",
  "compiler": {
    "name": "solc",
    "version": "0.4.24+commit.e67f0147.Emscripten.clang"
  },
  "schemaVersion": "2.0.1",
  "updatedAt": "2018-08-17T05:29:57.753Z"
}