{
  "contractName": "DepositContract",
  "abi": [
    {
      "constant": true,
      "inputs": [
        {
          "name": "",
          "type": "uint256"
        }
      ],
      "name": "mintHashToAmount",
      "outputs": [
        {
          "name": "",
          "type": "uint256"
        }
      ],
      "payable": false,
      "stateMutability": "view",
      "type": "function"
    },
    {
      "constant": true,
      "inputs": [],
      "name": "testTx",
      "outputs": [
        {
          "name": "nonce",
          "type": "uint256"
        },
        {
          "name": "gasPrice",
          "type": "uint256"
        },
        {
          "name": "gasLimit",
          "type": "uint256"
        },
        {
          "name": "to",
          "type": "address"
        },
        {
          "name": "value",
          "type": "uint256"
        },
        {
          "name": "data",
          "type": "bytes"
        },
        {
          "name": "v",
          "type": "uint8"
        },
        {
          "name": "r",
          "type": "bytes32"
        },
        {
          "name": "s",
          "type": "bytes32"
        },
        {
          "name": "from",
          "type": "address"
        }
      ],
      "payable": false,
      "stateMutability": "view",
      "type": "function"
    },
    {
      "inputs": [
        {
          "name": "_custodian",
          "type": "address"
        }
      ],
      "payable": false,
      "stateMutability": "nonpayable",
      "type": "constructor"
    },
    {
      "anonymous": false,
      "inputs": [
        {
          "indexed": true,
          "name": "depositer",
          "type": "address"
        },
        {
          "indexed": false,
          "name": "amount",
          "type": "uint256"
        },
        {
          "indexed": false,
          "name": "mintHash",
          "type": "uint256"
        }
      ],
      "name": "Deposit",
      "type": "event"
    },
    {
      "anonymous": false,
      "inputs": [
        {
          "indexed": true,
          "name": "depositer",
          "type": "address"
        },
        {
          "indexed": true,
          "name": "depositedTo",
          "type": "address"
        },
        {
          "indexed": false,
          "name": "amount",
          "type": "uint256"
        },
        {
          "indexed": true,
          "name": "blockNumber",
          "type": "uint256"
        }
      ],
      "name": "Challenge",
      "type": "event"
    },
    {
      "anonymous": false,
      "inputs": [
        {
          "indexed": true,
          "name": "depositer",
          "type": "address"
        },
        {
          "indexed": true,
          "name": "depositedTo",
          "type": "address"
        },
        {
          "indexed": false,
          "name": "amount",
          "type": "uint256"
        },
        {
          "indexed": true,
          "name": "blockNumber",
          "type": "uint256"
        },
        {
          "indexed": false,
          "name": "signedTx",
          "type": "bytes"
        }
      ],
      "name": "ChallangeResolved",
      "type": "event"
    },
    {
      "anonymous": false,
      "inputs": [
        {
          "indexed": true,
          "name": "withdrawer",
          "type": "address"
        },
        {
          "indexed": false,
          "name": "amount",
          "type": "uint256"
        },
        {
          "indexed": true,
          "name": "blockNumber",
          "type": "uint256"
        }
      ],
      "name": "Refund",
      "type": "event"
    },
    {
      "anonymous": false,
      "inputs": [
        {
          "indexed": true,
          "name": "withdrawer",
          "type": "address"
        },
        {
          "indexed": false,
          "name": "amount",
          "type": "uint256"
        },
        {
          "indexed": true,
          "name": "blockNumber",
          "type": "uint256"
        }
      ],
      "name": "Withdrawal",
      "type": "event"
    },
    {
      "anonymous": false,
      "inputs": [
        {
          "indexed": false,
          "name": "data",
          "type": "bytes"
        },
        {
          "indexed": false,
          "name": "to",
          "type": "address"
        },
        {
          "indexed": false,
          "name": "from",
          "type": "address"
        }
      ],
      "name": "Parsed",
      "type": "event"
    },
    {
      "constant": false,
      "inputs": [
        {
          "name": "_tokenContract",
          "type": "address"
        }
      ],
      "name": "setTokenContract",
      "outputs": [],
      "payable": false,
      "stateMutability": "nonpayable",
      "type": "function"
    },
    {
      "constant": false,
      "inputs": [],
      "name": "finalizeStake",
      "outputs": [],
      "payable": false,
      "stateMutability": "nonpayable",
      "type": "function"
    },
    {
      "constant": false,
      "inputs": [
        {
          "name": "_mintHash",
          "type": "uint256"
        }
      ],
      "name": "deposit",
      "outputs": [],
      "payable": true,
      "stateMutability": "payable",
      "type": "function"
    },
    {
      "constant": false,
      "inputs": [
        {
          "name": "_to",
          "type": "address"
        },
        {
          "name": "_mintHash",
          "type": "uint256"
        },
        {
          "name": "_rawTxBundle",
          "type": "bytes"
        },
        {
          "name": "_txLengths",
          "type": "uint256[]"
        },
        {
          "name": "_txMsgHashes",
          "type": "bytes32[]"
        }
      ],
      "name": "withdraw",
      "outputs": [],
      "payable": false,
      "stateMutability": "nonpayable",
      "type": "function"
    },
    {
      "constant": false,
      "inputs": [
        {
          "name": "_rawTx",
          "type": "bytes"
        },
        {
          "name": "_msgHash",
          "type": "bytes32"
        }
      ],
      "name": "parse",
      "outputs": [
        {
          "name": "nonce",
          "type": "uint256"
        },
        {
          "name": "gasPrice",
          "type": "uint256"
        },
        {
          "name": "gasLimit",
          "type": "uint256"
        },
        {
          "name": "to",
          "type": "address"
        },
        {
          "name": "value",
          "type": "uint256"
        },
        {
          "name": "data",
          "type": "bytes"
        },
        {
          "name": "v",
          "type": "uint8"
        },
        {
          "name": "r",
          "type": "bytes32"
        },
        {
          "name": "s",
          "type": "bytes32"
        },
        {
          "name": "from",
          "type": "address"
        }
      ],
      "payable": false,
      "stateMutability": "nonpayable",
      "type": "function"
    },
    {
      "constant": false,
      "inputs": [
        {
          "name": "hash",
          "type": "bytes32"
        },
        {
          "name": "sig",
          "type": "bytes"
        }
      ],
      "name": "ecrecovery",
      "outputs": [
        {
          "name": "",
          "type": "address"
        }
      ],
      "payable": false,
      "stateMutability": "nonpayable",
      "type": "function"
    },
    {
      "constant": false,
      "inputs": [
        {
          "name": "hash",
          "type": "bytes32"
        },
        {
          "name": "sig",
          "type": "bytes"
        },
        {
          "name": "signer",
          "type": "address"
        }
      ],
      "name": "ecverify",
      "outputs": [
        {
          "name": "",
          "type": "bool"
        }
      ],
      "payable": false,
      "stateMutability": "nonpayable",
      "type": "function"
    }
  ],
  "bytecode": "0x60806040526040805190810160405280600981526020017f7072655374616b65640000000000000000000000000000000000000000000000815250600090805190602001906200005192919062000242565b5063e32e7aff7c010000000000000000000000000000000000000000000000000000000002600860006101000a81548163ffffffff02191690837c010000000000000000000000000000000000000000000000000000000090040217905550632e1a7d4d7c010000000000000000000000000000000000000000000000000000000002600860046101000a81548163ffffffff02191690837c0100000000000000000000000000000000000000000000000000000000900402179055506323b872dd7c0100000000000000000000000000000000000000000000000000000000026008806101000a81548163ffffffff02191690837c01000000000000000000000000000000000000000000000000000000009004021790555063eae028927c0100000000000000000000000000000000000000000000000000000000026008600c6101000a81548163ffffffff02191690837c010000000000000000000000000000000000000000000000000000000090040217905550348015620001d657600080fd5b5060405160208062001d798339810180604052810190808051906020019092919050505080600260006101000a81548173ffffffffffffffffffffffffffffffffffffffff021916908373ffffffffffffffffffffffffffffffffffffffff16021790555050620002f1565b828054600181600116156101000203166002900490600052602060002090601f016020900481019282601f106200028557805160ff1916838001178555620002b6565b82800160010185558215620002b6579182015b82811115620002b557825182559160200191906001019062000298565b5b509050620002c59190620002c9565b5090565b620002ee91905b80821115620002ea576000816000905550600101620002d0565b5090565b90565b611a7880620003016000396000f300608060405260043610610099576000357c0100000000000000000000000000000000000000000000000000000000900463ffffffff1680632310b3841461009e578063360dc40b146100b557806339cdde32146100f65780633edbbe0f146101a557806377d32e94146102e2578063b6b55f2514610399578063bbcd5bbe146103b9578063c00c98be146103fc578063cab5223214610599575b600080fd5b3480156100aa57600080fd5b506100b36106b2565b005b3480156100c157600080fd5b506100e06004803603810190808035906020019092919050505061085d565b6040518082815260200191505060405180910390f35b34801561010257600080fd5b5061018b6004803603810190808035600019169060200190929190803590602001908201803590602001908080601f0160208091040260200160405190810160405280939291908181526020018383808284378201915050505050509192919290803573ffffffffffffffffffffffffffffffffffffffff169060200190929190505050610875565b604051808215151515815260200191505060405180910390f35b3480156101b157600080fd5b506101ba6108b8565b604051808b81526020018a81526020018981526020018873ffffffffffffffffffffffffffffffffffffffff1673ffffffffffffffffffffffffffffffffffffffff168152602001878152602001806020018660ff1660ff168152602001856000191660001916815260200184600019166000191681526020018373ffffffffffffffffffffffffffffffffffffffff1673ffffffffffffffffffffffffffffffffffffffff168152602001828103825287818151815260200191508051906020019080838360005b8381101561029e578082015181840152602081019050610283565b50505050905090810190601f1680156102cb5780820380516001836020036101000a031916815260200191505b509b50505050505050505050505060405180910390f35b3480156102ee57600080fd5b506103576004803603810190808035600019169060200190929190803590602001908201803590602001908080601f01602080910402602001604051908101604052809392919081815260200183838082843782019150505050505091929192905050506109df565b604051808273ffffffffffffffffffffffffffffffffffffffff1673ffffffffffffffffffffffffffffffffffffffff16815260200191505060405180910390f35b6103b760048036038101908080359060200190929190505050610ad7565b005b3480156103c557600080fd5b506103fa600480360381019080803573ffffffffffffffffffffffffffffffffffffffff169060200190929190505050610b7d565b005b34801561040857600080fd5b50610471600480360381019080803590602001908201803590602001908080601f01602080910402602001604051908101604052809392919081815260200183838082843782019150505050505091929192908035600019169060200190929190505050610cc7565b604051808b81526020018a81526020018981526020018873ffffffffffffffffffffffffffffffffffffffff1673ffffffffffffffffffffffffffffffffffffffff168152602001878152602001806020018660ff1660ff168152602001856000191660001916815260200184600019166000191681526020018373ffffffffffffffffffffffffffffffffffffffff1673ffffffffffffffffffffffffffffffffffffffff168152602001828103825287818151815260200191508051906020019080838360005b8381101561055557808201518184015260208101905061053a565b50505050905090810190601f1680156105825780820380516001836020036101000a031916815260200191505b509b50505050505050505050505060405180910390f35b3480156105a557600080fd5b506106b0600480360381019080803573ffffffffffffffffffffffffffffffffffffffff16906020019092919080359060200190929190803590602001908201803590602001908080601f0160208091040260200160405190810160405280939291908181526020018383808284378201915050505050509192919290803590602001908201803590602001908080602002602001604051908101604052809392919081815260200183836020028082843782019150505050505091929192908035906020019082018035906020019080806020026020016040519081016040528093929190818152602001838360200280828437820191505050505050919291929050505061102a565b005b3373ffffffffffffffffffffffffffffffffffffffff16600260009054906101000a900473ffffffffffffffffffffffffffffffffffffffff1673ffffffffffffffffffffffffffffffffffffffff16141561085b5760405180807f7072655374616b6564000000000000000000000000000000000000000000000081525060090190506040518091039020600019166000604051808280546001816001161561010002031660029004801561079f5780601f1061077d57610100808354040283529182019161079f565b820191906000526020600020905b81548152906001019060200180831161078b575b5050915050604051809103902060001916141561085a573073ffffffffffffffffffffffffffffffffffffffff16316004819055506107ff60023073ffffffffffffffffffffffffffffffffffffffff16316111e890919063ffffffff16565b60058190555060006006819055506040805190810160405280600681526020017f7374616b65640000000000000000000000000000000000000000000000000000815250600090805190602001906108589291906118c9565b505b5b565b60076020528060005260406000206000915090505481565b600061088184846109df565b73ffffffffffffffffffffffffffffffffffffffff168273ffffffffffffffffffffffffffffffffffffffff161490509392505050565b600b8060000154908060010154908060020154908060030160009054906101000a900473ffffffffffffffffffffffffffffffffffffffff1690806004015490806005018054600181600116156101000203166002900480601f0160208091040260200160405190810160405280929190818152602001828054600181600116156101000203166002900480156109905780601f1061096557610100808354040283529160200191610990565b820191906000526020600020905b81548152906001019060200180831161097357829003601f168201915b5050505050908060060160009054906101000a900460ff16908060070154908060080154908060090160009054906101000a900473ffffffffffffffffffffffffffffffffffffffff1690508a565b600080600080604185511415156109f95760009350610ace565b602085015192506040850151915060ff6041860151169050601b8160ff161015610a2457601b810190505b601b8160ff1614158015610a3c5750601c8160ff1614155b15610a4a5760009350610ace565b600186828585604051600081526020016040526040518085600019166000191681526020018460ff1660ff1681526020018360001916600019168152602001826000191660001916815260200194505050505060206040516020810390808403906000865af1158015610ac1573d6000803e3d6000fd5b5050506020604051035193505b50505092915050565b34600660008282540192505081905550610b0d34600760008481526020019081526020016000205461120390919063ffffffff16565b60076000838152602001908152602001600020819055503373ffffffffffffffffffffffffffffffffffffffff167f90890809c654f11d6e72a28fa60149770a0d11ec6c92319d6ceb2bb0a4ea1a153483604051808381526020018281526020019250505060405180910390a250565b3373ffffffffffffffffffffffffffffffffffffffff16600260009054906101000a900473ffffffffffffffffffffffffffffffffffffffff1673ffffffffffffffffffffffffffffffffffffffff161415610cc45760405180807f7072655374616b65640000000000000000000000000000000000000000000000815250600901905060405180910390206000191660006040518082805460018160011615610100020316600290048015610c6a5780601f10610c48576101008083540402835291820191610c6a565b820191906000526020600020905b815481529060010190602001808311610c56575b50509150506040518091039020600019161415610cc35780600160006101000a81548173ffffffffffffffffffffffffffffffffffffffff021916908373ffffffffffffffffffffffffffffffffffffffff1602179055505b5b50565b600080600080600060606000806000806060610cea610ce58e611221565b61127c565b9050610d0d816000815181101515610cfe57fe5b90602001906020020151611339565b9a50610d30816001815181101515610d2157fe5b90602001906020020151611339565b9950610d53816002815181101515610d4457fe5b90602001906020020151611339565b9850610d76816003815181101515610d6757fe5b9060200190602002015161138c565b9750610d99816004815181101515610d8a57fe5b906020019060200201516113d3565b1515610dc357610dc0816004815181101515610db157fe5b90602001906020020151611339565b96505b610de4816005815181101515610dd557fe5b906020019060200201516113d3565b1515610e0e57610e0b816005815181101515610dfc57fe5b90602001906020020151611416565b95505b610e2f816006815181101515610e2057fe5b90602001906020020151611339565b9450610e52816007815181101515610e4357fe5b90602001906020020151611484565b9350610e75816008815181101515610e6657fe5b90602001906020020151611484565b925060018c601c8686604051600081526020016040526040518085600019166000191681526020018460ff1681526020018360001916600019168152602001826000191660001916815260200194505050505060206040516020810390808403906000865af1158015610eec573d6000803e3d6000fd5b5050506020604051035191507f6084f2e20b432cf2978c012e01f2d513510bb68b8f7a22c96a6a836b191dc54a86898460405180806020018473ffffffffffffffffffffffffffffffffffffffff1673ffffffffffffffffffffffffffffffffffffffff1681526020018373ffffffffffffffffffffffffffffffffffffffff1673ffffffffffffffffffffffffffffffffffffffff168152602001828103825285818151815260200191508051906020019080838360005b83811015610fc0578082015181840152602081019050610fa5565b50505050905090810190601f168015610fed5780820380516001836020036101000a031916815260200191505b5094505050505060405180910390a18a8a8a8a8a8a8a8a8a8a9a509a509a509a509a509a509a509a509a509a50509295989b9194979a5092959850565b6060600080611037611949565b60009250600091505b85518210156110c95761107583878481518110151561105b57fe5b90602001906020020151896114999092919063ffffffff16565b848381518110151561108357fe5b906020019060200201819052506110ba86838151811015156110a157fe5b906020019060200201518461120390919063ffffffff16565b92508180600101925050611040565b6111038460008151811015156110db57fe5b906020019060200201518660008151811015156110f457fe5b90602001906020020151610cc7565b90919293949596979850909192939495969750909192939495965090919293949550909192939450909192935090919250909150905081610120018173ffffffffffffffffffffffffffffffffffffffff1673ffffffffffffffffffffffffffffffffffffffff16815250506102584201600960008a81526020019081526020016000208190555088600a60008a815260200190815260200160002060006101000a81548173ffffffffffffffffffffffffffffffffffffffff021916908373ffffffffffffffffffffffffffffffffffffffff160217905550505050505050505050565b60008082848115156111f657fe5b0490508091505092915050565b600080828401905083811015151561121757fe5b8091505092915050565b6112296119d2565b6000808351915060008214156112575760408051908101604052806000815260200160008152509250611275565b60208401905060408051908101604052808281526020018381525092505b5050919050565b606060006112886119ec565b600061129385611526565b151561129e57600080fd5b6112a785611558565b9250826040519080825280602002602001820160405280156112e357816020015b6112d0611a0d565b8152602001906001900390816112c85790505b5093506112ef856115d2565b91505b6112fb8261161a565b156113315761130982611644565b848281518110151561131757fe5b9060200190602002018190525080806001019150506112f2565b505050919050565b6000806000611347846116a0565b151561135257600080fd5b61135b846116d1565b91509150602081118061136e5750600081145b1561137857600080fd5b806020036101000a82510492505050919050565b600080600061139a846116a0565b15156113a557600080fd5b6113ae846116d1565b915091506014811415156113c157600080fd5b600c6101000a82510492505050919050565b60008060006113e184611752565b156113ef576000925061140f565b83600001519050805160001a9150608082148061140c575060c082145b92505b5050919050565b6060600080611424846116a0565b151561142f57600080fd5b611438846116d1565b91509150806040519080825280601f01601f19166020018201604052801561146f5781602001602082028038833980820191505090505b50925061147d828483611762565b5050919050565b600061148f82611339565b6001029050919050565b6060808284018551101515156114ae57600080fd5b8215600081146114c95760405191506020820160405261151a565b6040519150601f8416801560200281840101858101878315602002848b0101015b8183101561150757805183526020830192506020810190506114ea565b50868552601f19601f8301166040525050505b50809150509392505050565b60008060008360200151141561153f5760009150611552565b8260000151905060c0815160001a101591505b50919050565b60008060008060008061156a87611526565b151561157957600095506115c8565b86600001519350835160001a9450611590876117a3565b840192506001876020015185010391505b81831115156115c4576115b38361182f565b8301925080806001019150506115a1565b8095505b5050505050919050565b6115da6119ec565b60006115e583611526565b15156115f057600080fd5b6115f9836117a3565b83600001510190508282600001819052508082602001818152505050919050565b60006116246119d2565b826000015190508060200151816000015101836020015110915050919050565b61164c6119d2565b6000806116588461161a565b15611694578360200151915061166d8261182f565b90508183600001818152505080836020018181525050808201846020018181525050611699565b600080fd5b5050919050565b6000806000836020015114156116b957600091506116cb565b8260000151905060c0815160001a1091505b50919050565b60008060008060006116e2866116a0565b15156116ed57600080fd5b85600001519150815160001a92506080831015611710578194506001935061174a565b60b883101561172e5760018660200151039350600182019450611749565b60b78303905080600187602001510303935060018183010194505b5b505050915091565b6000808260200151149050919050565b60006020601f83010484602085015b8284146117905760208402808301518183015260018501945050611771565b6000865160200187015250505050505050565b600080600080846020015114156117bd5760009250611828565b83600001519050805160001a915060808210156117dd5760009250611828565b60b88210806117f9575060c082101580156117f8575060f882105b5b156118075760019250611828565b60c082101561181e57600160b78303019250611828565b600160f783030192505b5050919050565b600080825160001a9050608081101561184b57600191506118c3565b60b8811015611862576001608082030191506118c2565b60c081101561188c5760b78103806020036101000a600185015104808201600101935050506118c1565b60f88110156118a357600160c082030191506118c0565b60f78103806020036101000a600185015104808201600101935050505b5b5b5b50919050565b828054600181600116156101000203166002900490600052602060002090601f016020900481019282601f1061190a57805160ff1916838001178555611938565b82800160010185558215611938579182015b8281111561193757825182559160200191906001019061191c565b5b5090506119459190611a27565b5090565b61014060405190810160405280600081526020016000815260200160008152602001600073ffffffffffffffffffffffffffffffffffffffff1681526020016000815260200160608152602001600060ff1681526020016000801916815260200160008019168152602001600073ffffffffffffffffffffffffffffffffffffffff1681525090565b604080519081016040528060008152602001600081525090565b606060405190810160405280611a00611a0d565b8152602001600081525090565b604080519081016040528060008152602001600081525090565b611a4991905b80821115611a45576000816000905550600101611a2d565b5090565b905600a165627a7a72305820e73e4c2240f31b304104fc5405fa2079808b7268b90a3c55aeb7fbeb4e4894680029",
  "source": "pragma solidity ^0.4.24;\n// pragma experimental ABIEncoderV2;\n\nimport \"./SafeMath.sol\";\nimport \"./Ownable.sol\";\nimport \"./RLP.sol\";\nimport \"./BytesLib.sol\";\n\ncontract DepositContract {\n  using SafeMath for uint256;\n  using RLP for RLP.RLPItem;\n  using RLP for RLP.Iterator;\n  using RLP for bytes;\n  using BytesLib for bytes;\n\n  string contractState = \"preStaked\";\n  address tokenContract;\n  address custodian;\n  address custodianETC;\n  uint256 stakedAmount;\n  uint256 depositCap;\n  uint256 depositedAmount;\n  mapping (uint256 => uint256) public mintHashToAmount;\n\n\n  struct Transaction {\n    uint nonce;\n    uint gasPrice;\n    uint gasLimit;\n    address to;\n    uint value;\n    bytes data;\n    uint8 v;\n    bytes32 r;\n    bytes32 s;\n    address from;\n  }\n\n  constructor (address _custodian) {\n    custodian = _custodian;\n  }\n\n  modifier onlyCustodian() {\n    if (custodian == msg.sender) {\n      _;\n    }\n  }\n\n  modifier statePreStaked () {\n    if (keccak256(contractState) == keccak256(\"preStaked\"))  {\n      _;\n    }\n  }\n\n  modifier stateStaked () {\n    if (keccak256(contractState) == keccak256(\"staked\"))  {\n      _;\n    }\n  }\n  \n  event Deposit(address indexed depositer, uint256 amount, uint256 mintHash);\n  event Challenge(address indexed depositer, address indexed depositedTo, uint256 amount, uint256 indexed blockNumber);\n  event ChallangeResolved(address indexed depositer, address indexed depositedTo, uint256 amount, uint256 indexed blockNumber, bytes signedTx); \n  event Refund(address indexed withdrawer, uint256 amount, uint256 indexed blockNumber);\n  event Withdrawal(address indexed withdrawer, uint256 amount, uint256 indexed blockNumber);\n  event Parsed(bytes data, address to, address from);\n\n  bytes4 mintSignature = 0xe32e7aff;\n  bytes4 withdrawSignature = 0x2e1a7d4d;\n  bytes4 transferFromSignature = 0x23b872dd;\n  bytes4 custodianApproveSignature = 0xeae02892;\n\n\n  function setTokenContract(address _tokenContract) onlyCustodian statePreStaked public {\n    tokenContract = _tokenContract;\n  }\n\n  function finalizeStake () onlyCustodian statePreStaked public {\n    stakedAmount = address(this).balance;\n    depositCap = address(this).balance.div(2);\n    depositedAmount = 0;\n    contractState = \"staked\";\n  }\n\n  function deposit(uint256 _mintHash) payable public {\n    depositedAmount += msg.value;\n    mintHashToAmount[_mintHash] = mintHashToAmount[_mintHash].add(msg.value);\n    emit Deposit(msg.sender, msg.value, _mintHash);\n  }\n\n  // mintHashToTimestamp\n  mapping (uint256 => uint256) challengeTime;\n  // mintHashToAddress\n  mapping (uint256 => address) challengeAddress;\n\n\n  //takes in bytes _withdrawalTx, bytes _lastTx, bytes _custodianTx\n  function withdraw(address _to, uint256 _mintHash, bytes _rawTxBundle, uint256[] _txLengths, bytes32[] _txMsgHashes) public {\n    //splits bundle into individual rawTxs\n    bytes[] memory rawTxList;\n    uint256 txStartPosition = 0;\n    for (uint i = 0; i < _txLengths.length; i++) {\n      rawTxList[i] = _rawTxBundle.slice(txStartPosition, _txLengths[i]);\n      txStartPosition = txStartPosition.add(_txLengths[i]);\n    }\n\n\n    Transaction memory withdrawalTx; \n    // // Transaction memory lastTx; \n    // // Transaction memory custodianTx;\n    (,,,,,,,,,withdrawalTx.from) = parse(rawTxList[0], _txMsgHashes[0]);\n    // Transaction lastTx = parse(_lastTx);\n    // Transaction custodianTx = parse(_custodianTx);\n    // require(withdrawalTx.from == lastTx.to);\n    //TODO: compare custodianTx and lastTx token_ids here\n    //start challenge\n    challengeTime[_mintHash] = now + 10 minutes;\n    challengeAddress[_mintHash] = _to;\n  }\n\n\n  Transaction public testTx;\n\n  //ADD ONLY WHEN STAKED\n  // function submitFraud(bytes rawTx, bytes32 msgHash) public {\n  //   Transaction memory parsedTx = parse(rawTx, msgHash);\n  //   require(keccak256(parsedTx.from) == keccak256(custodian));\n  //   require(keccak256(parsedTx.to) == keccak256(tokenContract));\n  //   require(verifyMintTxParams(parsedTx.data) == 0);\n  //   //penalise custodian, possibly change to transfer against reentrancy\n  //   msg.sender.send(100);\n  // }\n\n  /* Util functions --------------------------------------------------*/\n  // function splitRawTxBundle(bytes _rawTxBundle, uint256 _start, uint256 _end) public returns ()\n\n  function parse(bytes _rawTx, bytes32 _msgHash) public returns (    \n    uint nonce,\n    uint gasPrice,\n    uint gasLimit,\n    address to,\n    uint value,\n    bytes data,\n    uint8 v,\n    bytes32 r,\n    bytes32 s,\n    address from\n    ) {\n    RLP.RLPItem[] memory list = _rawTx.toRLPItem().toList();\n    // can potentially insert: if (signedTransaction.length !== 9) { throw new Error('invalid transaction'); } items()\n    nonce = list[0].toUint();\n    gasPrice = list[1].toUint();\n    gasLimit = list[2].toUint();\n    to = list[3].toAddress();\n    if (!list[4].isEmpty()) {\n      value = list[4].toUint();\n    }\n    if (!list[5].isEmpty()) {\n      data = list[5].toData();\n    }\n    v = uint8(list[6].toUint());\n    r = list[7].toBytes32(); \n    s = list[8].toBytes32();\n    from = ecrecover(_msgHash, 28, r, s);\n    emit Parsed(data, to, from);\n    return (\n    nonce,\n    gasPrice,\n    gasLimit,\n    to,\n    value,\n    data,\n    v,\n    r,\n    s,\n    from);\n  }\n\n  //hashes appropriate data then verifies against depositLog\n  // function verifyMintTxParams(bytes data) public returns (uint8) {\n  //   assert(data.slice(0,10).equal(mintSignature));\n  //   // return depositLog[keccak256(data.slice(10, 266))];\n  // }\n\n  //NEEDS TESTING\n  // function parseXYZ(bytes data) public returns (uint X, address Y, uint Z, uint txNonce) {\n  //   require(data.slice(0,10).equal(mintSignature));\n  //   X = data.slice(10, 74).toUint(0);\n  //   Y = data.slice(74, 138).toAddress(0);\n  //   Z = data.slice(138, 202).toUint(0);\n  //   txNonce = data.slice(202, 266).toUint(0);\n  //   return (X, Y, Z, txNonce);\n  // }\n\n  function parseData(bytes data, uint256 i) internal returns (bytes) {\n    if (i == 0) {\n      return data.slice(0,5);\n    } else {\n      return data.slice(5 + i * 32,32);\n    }\n  }\n\n\n\n  function bytesToBytes32(bytes b, uint offset) private pure returns (bytes32) {\n    bytes32 out;\n    for (uint i = 0; i < 32; i++) {\n      out |= bytes32(b[offset + i] & 0xFF) >> (i * 8);\n    }\n    return out;\n  }\n\n  function stringToBytes( string s) internal returns (bytes memory b3){\n    b3 = bytes(s);\n    return b3;\n  }\n\n  // Nick Johnson https://ethereum.stackexchange.com/questions/4170/how-to-convert-a-uint-to-bytes-in-solidity\n  function uint256ToBytes(uint256 x) internal returns (bytes b) {\n    b = new bytes(32);\n    assembly { mstore(add(b, 32), x) }\n  }\n\n  // Tjaden Hess https://ethereum.stackexchange.com/questions/884/how-to-convert-an-address-to-bytes-in-solidity\n  function addressToBytes(address a) internal returns (bytes b) {\n    assembly {\n        let m := mload(0x40)\n        mstore(add(m, 20), xor(0x140000000000000000000000000000000000000000, a))\n        mstore(0x40, add(m, 52))\n        b := m\n    }\n  }\n\n  \n\n  function ecrecovery(bytes32 hash, bytes sig) public returns (address) {\n    bytes32 r;\n    bytes32 s;\n    uint8 v;\n\n    if (sig.length != 65) {\n      return 0;\n    }\n\n    assembly {\n      r := mload(add(sig, 32))\n      s := mload(add(sig, 64))\n      v := and(mload(add(sig, 65)), 255)\n    }\n\n    // https://github.com/ethereum/go-ethereum/issues/2053\n    if (v < 27) {\n      v += 27;\n    }\n\n    if (v != 27 && v != 28) {\n      return 0;\n    }\n\n    /* prefix might be needed for geth only\n     * https://github.com/ethereum/go-ethereum/issues/3731\n     */\n    // bytes memory prefix = \"\\x19Ethereum Signed Message:\\n32\";\n    // hash = sha3(prefix, hash);\n\n    return ecrecover(hash, v, r, s);\n  }\n\n  function ecverify(bytes32 hash, bytes sig, address signer) public returns (bool) {\n    return signer == ecrecovery(hash, sig);\n  }\n\n}\n",
  "sourcePath": "/Users/zhen/Code/peaceNotRelay/contracts/DepositContract.sol",
  "compiler": {
    "name": "solc",
    "version": "0.4.24+commit.e67f0147.Emscripten.clang"
  },
  "schemaVersion": "2.0.0",
  "updatedAt": "2018-08-06T14:08:38.448Z"
}