{
  "contractName": "DepositContractMock",
  "abi": [
    {
      "constant": false,
      "inputs": [],
      "name": "finalizeStake",
      "outputs": [],
      "payable": false,
      "stateMutability": "nonpayable",
      "type": "function"
    },
    {
      "constant": true,
      "inputs": [
        {
          "name": "",
          "type": "uint256"
        }
      ],
      "name": "mintHashToAmount",
      "outputs": [
        {
          "name": "",
          "type": "uint256"
        }
      ],
      "payable": false,
      "stateMutability": "view",
      "type": "function"
    },
    {
      "constant": false,
      "inputs": [
        {
          "name": "hash",
          "type": "bytes32"
        },
        {
          "name": "sig",
          "type": "bytes"
        },
        {
          "name": "signer",
          "type": "address"
        }
      ],
      "name": "ecverify",
      "outputs": [
        {
          "name": "",
          "type": "bool"
        }
      ],
      "payable": false,
      "stateMutability": "nonpayable",
      "type": "function"
    },
    {
      "constant": true,
      "inputs": [],
      "name": "testTx",
      "outputs": [
        {
          "name": "nonce",
          "type": "uint256"
        },
        {
          "name": "gasPrice",
          "type": "uint256"
        },
        {
          "name": "gasLimit",
          "type": "uint256"
        },
        {
          "name": "to",
          "type": "address"
        },
        {
          "name": "value",
          "type": "uint256"
        },
        {
          "name": "data",
          "type": "bytes"
        },
        {
          "name": "v",
          "type": "uint8"
        },
        {
          "name": "r",
          "type": "bytes32"
        },
        {
          "name": "s",
          "type": "bytes32"
        },
        {
          "name": "from",
          "type": "address"
        }
      ],
      "payable": false,
      "stateMutability": "view",
      "type": "function"
    },
    {
      "constant": false,
      "inputs": [
        {
          "name": "hash",
          "type": "bytes32"
        },
        {
          "name": "sig",
          "type": "bytes"
        }
      ],
      "name": "ecrecovery",
      "outputs": [
        {
          "name": "",
          "type": "address"
        }
      ],
      "payable": false,
      "stateMutability": "nonpayable",
      "type": "function"
    },
    {
      "constant": false,
      "inputs": [
        {
          "name": "_mintHash",
          "type": "uint256"
        }
      ],
      "name": "deposit",
      "outputs": [],
      "payable": true,
      "stateMutability": "payable",
      "type": "function"
    },
    {
      "constant": false,
      "inputs": [
        {
          "name": "_tokenContract",
          "type": "address"
        }
      ],
      "name": "setTokenContract",
      "outputs": [],
      "payable": false,
      "stateMutability": "nonpayable",
      "type": "function"
    },
    {
      "constant": false,
      "inputs": [
        {
          "name": "_rawTx",
          "type": "bytes"
        },
        {
          "name": "_msgHash",
          "type": "bytes32"
        }
      ],
      "name": "parse",
      "outputs": [
        {
          "name": "nonce",
          "type": "uint256"
        },
        {
          "name": "gasPrice",
          "type": "uint256"
        },
        {
          "name": "gasLimit",
          "type": "uint256"
        },
        {
          "name": "to",
          "type": "address"
        },
        {
          "name": "value",
          "type": "uint256"
        },
        {
          "name": "data",
          "type": "bytes"
        },
        {
          "name": "v",
          "type": "uint8"
        },
        {
          "name": "r",
          "type": "bytes32"
        },
        {
          "name": "s",
          "type": "bytes32"
        },
        {
          "name": "from",
          "type": "address"
        }
      ],
      "payable": false,
      "stateMutability": "nonpayable",
      "type": "function"
    },
    {
      "inputs": [
        {
          "name": "_custodian",
          "type": "address"
        }
      ],
      "payable": false,
      "stateMutability": "nonpayable",
      "type": "constructor"
    },
    {
      "anonymous": false,
      "inputs": [
        {
          "indexed": true,
          "name": "depositer",
          "type": "address"
        },
        {
          "indexed": false,
          "name": "amount",
          "type": "uint256"
        },
        {
          "indexed": false,
          "name": "mintHash",
          "type": "uint256"
        }
      ],
      "name": "Deposit",
      "type": "event"
    },
    {
      "anonymous": false,
      "inputs": [
        {
          "indexed": true,
          "name": "depositer",
          "type": "address"
        },
        {
          "indexed": true,
          "name": "depositedTo",
          "type": "address"
        },
        {
          "indexed": false,
          "name": "amount",
          "type": "uint256"
        },
        {
          "indexed": true,
          "name": "blockNumber",
          "type": "uint256"
        }
      ],
      "name": "Challenge",
      "type": "event"
    },
    {
      "anonymous": false,
      "inputs": [
        {
          "indexed": true,
          "name": "depositer",
          "type": "address"
        },
        {
          "indexed": true,
          "name": "depositedTo",
          "type": "address"
        },
        {
          "indexed": false,
          "name": "amount",
          "type": "uint256"
        },
        {
          "indexed": true,
          "name": "blockNumber",
          "type": "uint256"
        },
        {
          "indexed": false,
          "name": "signedTx",
          "type": "bytes"
        }
      ],
      "name": "ChallangeResolved",
      "type": "event"
    },
    {
      "anonymous": false,
      "inputs": [
        {
          "indexed": true,
          "name": "withdrawer",
          "type": "address"
        },
        {
          "indexed": false,
          "name": "amount",
          "type": "uint256"
        },
        {
          "indexed": true,
          "name": "blockNumber",
          "type": "uint256"
        }
      ],
      "name": "Refund",
      "type": "event"
    },
    {
      "anonymous": false,
      "inputs": [
        {
          "indexed": true,
          "name": "withdrawer",
          "type": "address"
        },
        {
          "indexed": false,
          "name": "amount",
          "type": "uint256"
        },
        {
          "indexed": true,
          "name": "blockNumber",
          "type": "uint256"
        }
      ],
      "name": "Withdrawal",
      "type": "event"
    },
    {
      "anonymous": false,
      "inputs": [
        {
          "indexed": false,
          "name": "data",
          "type": "bytes"
        },
        {
          "indexed": false,
          "name": "to",
          "type": "address"
        },
        {
          "indexed": false,
          "name": "from",
          "type": "address"
        }
      ],
      "name": "Parsed",
      "type": "event"
    },
    {
      "constant": false,
      "inputs": [
        {
          "name": "_data",
          "type": "bytes"
        },
        {
          "name": "_i",
          "type": "uint256"
        }
      ],
      "name": "_parseData",
      "outputs": [],
      "payable": false,
      "stateMutability": "nonpayable",
      "type": "function"
    }
  ],
  "bytecode": "0x60806040526040805190810160405280600981526020017f7072655374616b65640000000000000000000000000000000000000000000000815250600090805190602001906200005192919062000266565b5063e32e7aff7c010000000000000000000000000000000000000000000000000000000002600860006101000a81548163ffffffff02191690837c010000000000000000000000000000000000000000000000000000000090040217905550632e1a7d4d7c010000000000000000000000000000000000000000000000000000000002600860046101000a81548163ffffffff02191690837c0100000000000000000000000000000000000000000000000000000000900402179055506323b872dd7c0100000000000000000000000000000000000000000000000000000000026008806101000a81548163ffffffff02191690837c01000000000000000000000000000000000000000000000000000000009004021790555063eae028927c0100000000000000000000000000000000000000000000000000000000026008600c6101000a81548163ffffffff02191690837c010000000000000000000000000000000000000000000000000000000090040217905550348015620001d657600080fd5b5060405160208062001b0d83398101806040528101908080519060200190929190505050600260009054906101000a900473ffffffffffffffffffffffffffffffffffffffff1680600260006101000a81548173ffffffffffffffffffffffffffffffffffffffff021916908373ffffffffffffffffffffffffffffffffffffffff160217905550505062000315565b828054600181600116156101000203166002900490600052602060002090601f016020900481019282601f10620002a957805160ff1916838001178555620002da565b82800160010185558215620002da579182015b82811115620002d9578251825591602001919060010190620002bc565b5b509050620002e99190620002ed565b5090565b6200031291905b808211156200030e576000816000905550600101620002f4565b5090565b90565b6117e880620003256000396000f300608060405260043610610099576000357c0100000000000000000000000000000000000000000000000000000000900463ffffffff1680632310b3841461009e578063360dc40b146100b557806339cdde32146100f65780633edbbe0f146101a557806377d32e94146102e25780638fef56cc14610399578063b6b55f251461040c578063bbcd5bbe1461042c578063c00c98be1461046f575b600080fd5b3480156100aa57600080fd5b506100b361060c565b005b3480156100c157600080fd5b506100e0600480360381019080803590602001909291905050506107b7565b6040518082815260200191505060405180910390f35b34801561010257600080fd5b5061018b6004803603810190808035600019169060200190929190803590602001908201803590602001908080601f0160208091040260200160405190810160405280939291908181526020018383808284378201915050505050509192919290803573ffffffffffffffffffffffffffffffffffffffff1690602001909291905050506107cf565b604051808215151515815260200191505060405180910390f35b3480156101b157600080fd5b506101ba610812565b604051808b81526020018a81526020018981526020018873ffffffffffffffffffffffffffffffffffffffff1673ffffffffffffffffffffffffffffffffffffffff168152602001878152602001806020018660ff1660ff168152602001856000191660001916815260200184600019166000191681526020018373ffffffffffffffffffffffffffffffffffffffff1673ffffffffffffffffffffffffffffffffffffffff168152602001828103825287818151815260200191508051906020019080838360005b8381101561029e578082015181840152602081019050610283565b50505050905090810190601f1680156102cb5780820380516001836020036101000a031916815260200191505b509b50505050505050505050505060405180910390f35b3480156102ee57600080fd5b506103576004803603810190808035600019169060200190929190803590602001908201803590602001908080601f0160208091040260200160405190810160405280939291908181526020018383808284378201915050505050509192919290505050610939565b604051808273ffffffffffffffffffffffffffffffffffffffff1673ffffffffffffffffffffffffffffffffffffffff16815260200191505060405180910390f35b3480156103a557600080fd5b5061040a600480360381019080803590602001908201803590602001908080601f016020809104026020016040519081016040528093929190818152602001838380828437820191505050505050919291929080359060200190929190505050610a31565b005b61042a60048036038101908080359060200190929190505050610a40565b005b34801561043857600080fd5b5061046d600480360381019080803573ffffffffffffffffffffffffffffffffffffffff169060200190929190505050610ae6565b005b34801561047b57600080fd5b506104e4600480360381019080803590602001908201803590602001908080601f01602080910402602001604051908101604052809392919081815260200183838082843782019150505050505091929192908035600019169060200190929190505050610c30565b604051808b81526020018a81526020018981526020018873ffffffffffffffffffffffffffffffffffffffff1673ffffffffffffffffffffffffffffffffffffffff168152602001878152602001806020018660ff1660ff168152602001856000191660001916815260200184600019166000191681526020018373ffffffffffffffffffffffffffffffffffffffff1673ffffffffffffffffffffffffffffffffffffffff168152602001828103825287818151815260200191508051906020019080838360005b838110156105c85780820151818401526020810190506105ad565b50505050905090810190601f1680156105f55780820380516001836020036101000a031916815260200191505b509b50505050505050505050505060405180910390f35b3373ffffffffffffffffffffffffffffffffffffffff16600260009054906101000a900473ffffffffffffffffffffffffffffffffffffffff1673ffffffffffffffffffffffffffffffffffffffff1614156107b55760405180807f7072655374616b656400000000000000000000000000000000000000000000008152506009019050604051809103902060001916600060405180828054600181600116156101000203166002900480156106f95780601f106106d75761010080835404028352918201916106f9565b820191906000526020600020905b8154815290600101906020018083116106e5575b505091505060405180910390206000191614156107b4573073ffffffffffffffffffffffffffffffffffffffff163160048190555061075960023073ffffffffffffffffffffffffffffffffffffffff1631610f9390919063ffffffff16565b60058190555060006006819055506040805190810160405280600681526020017f7374616b65640000000000000000000000000000000000000000000000000000815250600090805190602001906107b29291906116c2565b505b5b565b60076020528060005260406000206000915090505481565b60006107db8484610939565b73ffffffffffffffffffffffffffffffffffffffff168273ffffffffffffffffffffffffffffffffffffffff161490509392505050565b600b8060000154908060010154908060020154908060030160009054906101000a900473ffffffffffffffffffffffffffffffffffffffff1690806004015490806005018054600181600116156101000203166002900480601f0160208091040260200160405190810160405280929190818152602001828054600181600116156101000203166002900480156108ea5780601f106108bf576101008083540402835291602001916108ea565b820191906000526020600020905b8154815290600101906020018083116108cd57829003601f168201915b5050505050908060060160009054906101000a900460ff16908060070154908060080154908060090160009054906101000a900473ffffffffffffffffffffffffffffffffffffffff1690508a565b600080600080604185511415156109535760009350610a28565b602085015192506040850151915060ff6041860151169050601b8160ff16101561097e57601b810190505b601b8160ff16141580156109965750601c8160ff1614155b156109a45760009350610a28565b600186828585604051600081526020016040526040518085600019166000191681526020018460ff1660ff1681526020018360001916600019168152602001826000191660001916815260200194505050505060206040516020810390808403906000865af1158015610a1b573d6000803e3d6000fd5b5050506020604051035193505b50505092915050565b610a3b8282610fae565b505050565b34600660008282540192505081905550610a76346007600084815260200190815260200160002054610ffc90919063ffffffff16565b60076000838152602001908152602001600020819055503373ffffffffffffffffffffffffffffffffffffffff167f90890809c654f11d6e72a28fa60149770a0d11ec6c92319d6ceb2bb0a4ea1a153483604051808381526020018281526020019250505060405180910390a250565b3373ffffffffffffffffffffffffffffffffffffffff16600260009054906101000a900473ffffffffffffffffffffffffffffffffffffffff1673ffffffffffffffffffffffffffffffffffffffff161415610c2d5760405180807f7072655374616b65640000000000000000000000000000000000000000000000815250600901905060405180910390206000191660006040518082805460018160011615610100020316600290048015610bd35780601f10610bb1576101008083540402835291820191610bd3565b820191906000526020600020905b815481529060010190602001808311610bbf575b50509150506040518091039020600019161415610c2c5780600160006101000a81548173ffffffffffffffffffffffffffffffffffffffff021916908373ffffffffffffffffffffffffffffffffffffffff1602179055505b5b50565b600080600080600060606000806000806060610c53610c4e8e61101a565b611075565b9050610c76816000815181101515610c6757fe5b90602001906020020151611132565b9a50610c99816001815181101515610c8a57fe5b90602001906020020151611132565b9950610cbc816002815181101515610cad57fe5b90602001906020020151611132565b9850610cdf816003815181101515610cd057fe5b90602001906020020151611185565b9750610d02816004815181101515610cf357fe5b906020019060200201516111cc565b1515610d2c57610d29816004815181101515610d1a57fe5b90602001906020020151611132565b96505b610d4d816005815181101515610d3e57fe5b906020019060200201516111cc565b1515610d7757610d74816005815181101515610d6557fe5b9060200190602002015161120f565b95505b610d98816006815181101515610d8957fe5b90602001906020020151611132565b9450610dbb816007815181101515610dac57fe5b9060200190602002015161127d565b9350610dde816008815181101515610dcf57fe5b9060200190602002015161127d565b925060018c601c8686604051600081526020016040526040518085600019166000191681526020018460ff1681526020018360001916600019168152602001826000191660001916815260200194505050505060206040516020810390808403906000865af1158015610e55573d6000803e3d6000fd5b5050506020604051035191507f6084f2e20b432cf2978c012e01f2d513510bb68b8f7a22c96a6a836b191dc54a86898460405180806020018473ffffffffffffffffffffffffffffffffffffffff1673ffffffffffffffffffffffffffffffffffffffff1681526020018373ffffffffffffffffffffffffffffffffffffffff1673ffffffffffffffffffffffffffffffffffffffff168152602001828103825285818151815260200191508051906020019080838360005b83811015610f29578082015181840152602081019050610f0e565b50505050905090810190601f168015610f565780820380516001836020036101000a031916815260200191505b5094505050505060405180910390a18a8a8a8a8a8a8a8a8a8a9a509a509a509a509a509a509a509a509a509a50509295989b9194979a5092959850565b6000808284811515610fa157fe5b0490508091505092915050565b60606000821415610fd757610fd060006005856112929092919063ffffffff16565b9050610ff6565b610ff3602083026005016020856112929092919063ffffffff16565b90505b92915050565b600080828401905083811015151561101057fe5b8091505092915050565b611022611742565b600080835191506000821415611050576040805190810160405280600081526020016000815250925061106e565b60208401905060408051908101604052808281526020018381525092505b5050919050565b6060600061108161175c565b600061108c8561131f565b151561109757600080fd5b6110a085611351565b9250826040519080825280602002602001820160405280156110dc57816020015b6110c961177d565b8152602001906001900390816110c15790505b5093506110e8856113cb565b91505b6110f482611413565b1561112a576111028261143d565b848281518110151561111057fe5b9060200190602002018190525080806001019150506110eb565b505050919050565b600080600061114084611499565b151561114b57600080fd5b611154846114ca565b9150915060208111806111675750600081145b1561117157600080fd5b806020036101000a82510492505050919050565b600080600061119384611499565b151561119e57600080fd5b6111a7846114ca565b915091506014811415156111ba57600080fd5b600c6101000a82510492505050919050565b60008060006111da8461154b565b156111e85760009250611208565b83600001519050805160001a91506080821480611205575060c082145b92505b5050919050565b606060008061121d84611499565b151561122857600080fd5b611231846114ca565b91509150806040519080825280601f01601f1916602001820160405280156112685781602001602082028038833980820191505090505b50925061127682848361155b565b5050919050565b600061128882611132565b6001029050919050565b6060808284018551101515156112a757600080fd5b8215600081146112c257604051915060208201604052611313565b6040519150601f8416801560200281840101858101878315602002848b0101015b8183101561130057805183526020830192506020810190506112e3565b50868552601f19601f8301166040525050505b50809150509392505050565b600080600083602001511415611338576000915061134b565b8260000151905060c0815160001a101591505b50919050565b6000806000806000806113638761131f565b151561137257600095506113c1565b86600001519350835160001a94506113898761159c565b840192506001876020015185010391505b81831115156113bd576113ac83611628565b83019250808060010191505061139a565b8095505b5050505050919050565b6113d361175c565b60006113de8361131f565b15156113e957600080fd5b6113f28361159c565b83600001510190508282600001819052508082602001818152505050919050565b600061141d611742565b826000015190508060200151816000015101836020015110915050919050565b611445611742565b60008061145184611413565b1561148d578360200151915061146682611628565b90508183600001818152505080836020018181525050808201846020018181525050611492565b600080fd5b5050919050565b6000806000836020015114156114b257600091506114c4565b8260000151905060c0815160001a1091505b50919050565b60008060008060006114db86611499565b15156114e657600080fd5b85600001519150815160001a925060808310156115095781945060019350611543565b60b88310156115275760018660200151039350600182019450611542565b60b78303905080600187602001510303935060018183010194505b5b505050915091565b6000808260200151149050919050565b60006020601f83010484602085015b828414611589576020840280830151818301526001850194505061156a565b6000865160200187015250505050505050565b600080600080846020015114156115b65760009250611621565b83600001519050805160001a915060808210156115d65760009250611621565b60b88210806115f2575060c082101580156115f1575060f882105b5b156116005760019250611621565b60c082101561161757600160b78303019250611621565b600160f783030192505b5050919050565b600080825160001a9050608081101561164457600191506116bc565b60b881101561165b576001608082030191506116bb565b60c08110156116855760b78103806020036101000a600185015104808201600101935050506116ba565b60f881101561169c57600160c082030191506116b9565b60f78103806020036101000a600185015104808201600101935050505b5b5b5b50919050565b828054600181600116156101000203166002900490600052602060002090601f016020900481019282601f1061170357805160ff1916838001178555611731565b82800160010185558215611731579182015b82811115611730578251825591602001919060010190611715565b5b50905061173e9190611797565b5090565b604080519081016040528060008152602001600081525090565b60606040519081016040528061177061177d565b8152602001600081525090565b604080519081016040528060008152602001600081525090565b6117b991905b808211156117b557600081600090555060010161179d565b5090565b905600a165627a7a723058200ad89356011e508723a3ee6d1a6aa67e21dab756e4c8fd61eb000f27733d770e0029",
  "source": "pragma solidity ^0.4.24;\n\nimport \"../DepositContract.sol\";\n\ncontract DepositContractMock is DepositContract {\n  constructor(address _custodian) public\n    DepositContract(custodian)\n  { }\n\n  function _parseData(bytes _data, uint256 _i) public {\n    super.parseData(_data, _i);\n  }\n\n  // function _parseData(bytes _data, uint256 _i) public {\n  //   super.parseData(_data, _i);\n  // }\n\n\n}",
  "sourcePath": "/Users/zhen/Code/peaceNotRelay/contracts/mocks/DepositContractMock.sol",
  "compiler": {
    "name": "solc",
    "version": "0.4.24+commit.e67f0147.Emscripten.clang"
  },
  "schemaVersion": "2.0.0",
  "updatedAt": "2018-08-06T03:09:34.822Z"
}