{
  "contractName": "TokenContract",
  "abi": [
    {
      "constant": true,
      "inputs": [
        {
          "name": "_interfaceId",
          "type": "bytes4"
        }
      ],
      "name": "supportsInterface",
      "outputs": [
        {
          "name": "",
          "type": "bool"
        }
      ],
      "payable": false,
      "stateMutability": "view",
      "type": "function"
    },
    {
      "constant": true,
      "inputs": [
        {
          "name": "_tokenId",
          "type": "uint256"
        }
      ],
      "name": "getApproved",
      "outputs": [
        {
          "name": "",
          "type": "address"
        }
      ],
      "payable": false,
      "stateMutability": "view",
      "type": "function"
    },
    {
      "constant": false,
      "inputs": [
        {
          "name": "_to",
          "type": "address"
        },
        {
          "name": "_tokenId",
          "type": "uint256"
        }
      ],
      "name": "approve",
      "outputs": [],
      "payable": false,
      "stateMutability": "nonpayable",
      "type": "function"
    },
    {
      "constant": true,
      "inputs": [],
      "name": "InterfaceId_ERC165",
      "outputs": [
        {
          "name": "",
          "type": "bytes4"
        }
      ],
      "payable": false,
      "stateMutability": "view",
      "type": "function"
    },
    {
      "constant": true,
      "inputs": [
        {
          "name": "",
          "type": "bytes32"
        }
      ],
      "name": "burnLog",
      "outputs": [
        {
          "name": "",
          "type": "uint8"
        }
      ],
      "payable": false,
      "stateMutability": "view",
      "type": "function"
    },
    {
      "constant": false,
      "inputs": [
        {
          "name": "_from",
          "type": "address"
        },
        {
          "name": "_to",
          "type": "address"
        },
        {
          "name": "_tokenId",
          "type": "uint256"
        }
      ],
      "name": "safeTransferFrom",
      "outputs": [],
      "payable": false,
      "stateMutability": "nonpayable",
      "type": "function"
    },
    {
      "constant": true,
      "inputs": [
        {
          "name": "_tokenId",
          "type": "uint256"
        }
      ],
      "name": "exists",
      "outputs": [
        {
          "name": "",
          "type": "bool"
        }
      ],
      "payable": false,
      "stateMutability": "view",
      "type": "function"
    },
    {
      "constant": true,
      "inputs": [
        {
          "name": "_tokenId",
          "type": "uint256"
        }
      ],
      "name": "ownerOf",
      "outputs": [
        {
          "name": "",
          "type": "address"
        }
      ],
      "payable": false,
      "stateMutability": "view",
      "type": "function"
    },
    {
      "constant": true,
      "inputs": [
        {
          "name": "",
          "type": "uint256"
        }
      ],
      "name": "custodianApproval",
      "outputs": [
        {
          "name": "",
          "type": "address"
        }
      ],
      "payable": false,
      "stateMutability": "view",
      "type": "function"
    },
    {
      "constant": true,
      "inputs": [
        {
          "name": "_owner",
          "type": "address"
        }
      ],
      "name": "balanceOf",
      "outputs": [
        {
          "name": "",
          "type": "uint256"
        }
      ],
      "payable": false,
      "stateMutability": "view",
      "type": "function"
    },
    {
      "constant": true,
      "inputs": [],
      "name": "mintNonce",
      "outputs": [
        {
          "name": "",
          "type": "uint32"
        }
      ],
      "payable": false,
      "stateMutability": "view",
      "type": "function"
    },
    {
      "constant": false,
      "inputs": [
        {
          "name": "_to",
          "type": "address"
        },
        {
          "name": "_approved",
          "type": "bool"
        }
      ],
      "name": "setApprovalForAll",
      "outputs": [],
      "payable": false,
      "stateMutability": "nonpayable",
      "type": "function"
    },
    {
      "constant": false,
      "inputs": [
        {
          "name": "_from",
          "type": "address"
        },
        {
          "name": "_to",
          "type": "address"
        },
        {
          "name": "_tokenId",
          "type": "uint256"
        },
        {
          "name": "_data",
          "type": "bytes"
        }
      ],
      "name": "safeTransferFrom",
      "outputs": [],
      "payable": false,
      "stateMutability": "nonpayable",
      "type": "function"
    },
    {
      "constant": true,
      "inputs": [
        {
          "name": "",
          "type": "bytes32"
        }
      ],
      "name": "mintLog",
      "outputs": [
        {
          "name": "",
          "type": "uint8"
        }
      ],
      "payable": false,
      "stateMutability": "view",
      "type": "function"
    },
    {
      "constant": true,
      "inputs": [
        {
          "name": "_owner",
          "type": "address"
        },
        {
          "name": "_operator",
          "type": "address"
        }
      ],
      "name": "isApprovedForAll",
      "outputs": [
        {
          "name": "",
          "type": "bool"
        }
      ],
      "payable": false,
      "stateMutability": "view",
      "type": "function"
    },
    {
      "inputs": [
        {
          "name": "_custodian",
          "type": "address"
        }
      ],
      "payable": false,
      "stateMutability": "nonpayable",
      "type": "constructor"
    },
    {
      "anonymous": false,
      "inputs": [
        {
          "indexed": false,
          "name": "amount",
          "type": "uint256"
        },
        {
          "indexed": true,
          "name": "depositedTo",
          "type": "address"
        },
        {
          "indexed": false,
          "name": "nonce",
          "type": "uint256"
        },
        {
          "indexed": false,
          "name": "mintHash",
          "type": "bytes32"
        }
      ],
      "name": "Mint",
      "type": "event"
    },
    {
      "anonymous": false,
      "inputs": [
        {
          "indexed": true,
          "name": "depositer",
          "type": "address"
        },
        {
          "indexed": true,
          "name": "depositedTo",
          "type": "address"
        },
        {
          "indexed": false,
          "name": "amount",
          "type": "uint256"
        },
        {
          "indexed": true,
          "name": "blockNumber",
          "type": "uint256"
        }
      ],
      "name": "Challenge",
      "type": "event"
    },
    {
      "anonymous": false,
      "inputs": [
        {
          "indexed": true,
          "name": "depositer",
          "type": "address"
        },
        {
          "indexed": true,
          "name": "depositedTo",
          "type": "address"
        },
        {
          "indexed": false,
          "name": "amount",
          "type": "uint256"
        },
        {
          "indexed": true,
          "name": "blockNumber",
          "type": "uint256"
        },
        {
          "indexed": false,
          "name": "signedTx",
          "type": "bytes"
        }
      ],
      "name": "ChallangeResolved",
      "type": "event"
    },
    {
      "anonymous": false,
      "inputs": [
        {
          "indexed": true,
          "name": "withdrawer",
          "type": "address"
        },
        {
          "indexed": false,
          "name": "amount",
          "type": "uint256"
        },
        {
          "indexed": true,
          "name": "blockNumber",
          "type": "uint256"
        }
      ],
      "name": "Refund",
      "type": "event"
    },
    {
      "anonymous": false,
      "inputs": [
        {
          "indexed": false,
          "name": "tokenId",
          "type": "uint256"
        }
      ],
      "name": "Withdraw",
      "type": "event"
    },
    {
      "anonymous": false,
      "inputs": [
        {
          "indexed": false,
          "name": "data",
          "type": "bytes"
        },
        {
          "indexed": false,
          "name": "to",
          "type": "address"
        },
        {
          "indexed": false,
          "name": "from",
          "type": "address"
        }
      ],
      "name": "Parsed",
      "type": "event"
    },
    {
      "anonymous": false,
      "inputs": [
        {
          "indexed": false,
          "name": "from",
          "type": "address"
        },
        {
          "indexed": false,
          "name": "to",
          "type": "address"
        },
        {
          "indexed": false,
          "name": "_tokenId",
          "type": "uint256"
        }
      ],
      "name": "TransferRequest",
      "type": "event"
    },
    {
      "anonymous": false,
      "inputs": [
        {
          "indexed": true,
          "name": "_from",
          "type": "address"
        },
        {
          "indexed": true,
          "name": "_to",
          "type": "address"
        },
        {
          "indexed": true,
          "name": "_tokenId",
          "type": "uint256"
        }
      ],
      "name": "Transfer",
      "type": "event"
    },
    {
      "anonymous": false,
      "inputs": [
        {
          "indexed": true,
          "name": "_owner",
          "type": "address"
        },
        {
          "indexed": true,
          "name": "_approved",
          "type": "address"
        },
        {
          "indexed": true,
          "name": "_tokenId",
          "type": "uint256"
        }
      ],
      "name": "Approval",
      "type": "event"
    },
    {
      "anonymous": false,
      "inputs": [
        {
          "indexed": true,
          "name": "_owner",
          "type": "address"
        },
        {
          "indexed": true,
          "name": "_operator",
          "type": "address"
        },
        {
          "indexed": false,
          "name": "_approved",
          "type": "bool"
        }
      ],
      "name": "ApprovalForAll",
      "type": "event"
    },
    {
      "constant": false,
      "inputs": [
        {
          "name": "_depositContract",
          "type": "address"
        }
      ],
      "name": "setDepositContract",
      "outputs": [],
      "payable": false,
      "stateMutability": "nonpayable",
      "type": "function"
    },
    {
      "constant": false,
      "inputs": [],
      "name": "finalizeStake",
      "outputs": [],
      "payable": false,
      "stateMutability": "nonpayable",
      "type": "function"
    },
    {
      "constant": false,
      "inputs": [
        {
          "name": "_value",
          "type": "uint256"
        },
        {
          "name": "_to",
          "type": "address"
        }
      ],
      "name": "mint",
      "outputs": [],
      "payable": false,
      "stateMutability": "nonpayable",
      "type": "function"
    },
    {
      "constant": false,
      "inputs": [
        {
          "name": "_tokenId",
          "type": "uint256"
        }
      ],
      "name": "withdraw",
      "outputs": [],
      "payable": false,
      "stateMutability": "nonpayable",
      "type": "function"
    },
    {
      "constant": false,
      "inputs": [
        {
          "name": "_from",
          "type": "address"
        },
        {
          "name": "_to",
          "type": "address"
        },
        {
          "name": "_tokenId",
          "type": "uint256"
        }
      ],
      "name": "transferFrom",
      "outputs": [],
      "payable": false,
      "stateMutability": "nonpayable",
      "type": "function"
    },
    {
      "constant": false,
      "inputs": [
        {
          "name": "_tokenId",
          "type": "uint256"
        }
      ],
      "name": "custodianApprove",
      "outputs": [],
      "payable": false,
      "stateMutability": "nonpayable",
      "type": "function"
    },
    {
      "constant": false,
      "inputs": [
        {
          "name": "_tokenId",
          "type": "uint256"
        }
      ],
      "name": "revertTransfer",
      "outputs": [],
      "payable": false,
      "stateMutability": "nonpayable",
      "type": "function"
    }
  ],
  "bytecode": "0x60806040526040805190810160405280600981526020017f7072655374616b65640000000000000000000000000000000000000000000000815250600590805190602001906200005192919062000260565b506000600e60006101000a81548163ffffffff021916908363ffffffff1602179055503480156200008157600080fd5b50604051602080620026928339810180604052620000a3919081019062000325565b620000e06301ffc9a77c010000000000000000000000000000000000000000000000000000000002620001a2640100000000026401000000009004565b6200011d6380ac58cd7c010000000000000000000000000000000000000000000000000000000002620001a2640100000000026401000000009004565b6200015a634f558e797c010000000000000000000000000000000000000000000000000000000002620001a2640100000000026401000000009004565b80600760006101000a81548173ffffffffffffffffffffffffffffffffffffffff021916908373ffffffffffffffffffffffffffffffffffffffff1602179055505062000371565b63ffffffff7c010000000000000000000000000000000000000000000000000000000002817bffffffffffffffffffffffffffffffffffffffffffffffffffffffff191614151515620001f457600080fd5b6001600080837bffffffffffffffffffffffffffffffffffffffffffffffffffffffff19167bffffffffffffffffffffffffffffffffffffffffffffffffffffffff1916815260200190815260200160002060006101000a81548160ff02191690831515021790555050565b828054600181600116156101000203166002900490600052602060002090601f016020900481019282601f10620002a357805160ff1916838001178555620002d4565b82800160010185558215620002d4579182015b82811115620002d3578251825591602001919060010190620002b6565b5b509050620002e39190620002e7565b5090565b6200030c91905b8082111562000308576000816000905550600101620002ee565b5090565b90565b60006200031d825162000351565b905092915050565b6000602082840312156200033857600080fd5b600062000348848285016200030f565b91505092915050565b600073ffffffffffffffffffffffffffffffffffffffff82169050919050565b61231180620003816000396000f300608060405260043610610128576000357c0100000000000000000000000000000000000000000000000000000000900463ffffffff16806301ffc9a71461012d578063060fc6b11461016a578063081812fc14610193578063095ea7b3146101d05780630ec2e821146101f957806319fa8f501461022257806322903a191461024d5780632310b3841461028a57806323b872dd146102a15780632e1a7d4d146102ca57806342842e0e146102f35780634f558e791461031c5780636352211e1461035957806366d4f0431461039657806370a08231146103d3578063931679a21461041057806394bf804d1461043b578063a22cb46514610464578063b88d4fde1461048d578063da9e5962146104b6578063e985e9c5146104f3578063eae0289214610530575b600080fd5b34801561013957600080fd5b50610154600480360361014f9190810190611e58565b610559565b604051610161919061205b565b60405180910390f35b34801561017657600080fd5b50610191600480360361018c9190810190611eaa565b6105c0565b005b34801561019f57600080fd5b506101ba60048036036101b59190810190611eaa565b6105e1565b6040516101c79190611fbd565b60405180910390f35b3480156101dc57600080fd5b506101f760048036036101f29190810190611df3565b61061e565b005b34801561020557600080fd5b50610220600480360361021b9190810190611c88565b610763565b005b34801561022e57600080fd5b506102376108ad565b6040516102449190612076565b60405180910390f35b34801561025957600080fd5b50610274600480360361026f9190810190611e2f565b6108d4565b60405161028191906120fe565b60405180910390f35b34801561029657600080fd5b5061029f6108f4565b005b3480156102ad57600080fd5b506102c860048036036102c39190810190611ced565b610a97565b005b3480156102d657600080fd5b506102f160048036036102ec9190810190611eaa565b610bc0565b005b3480156102ff57600080fd5b5061031a60048036036103159190810190611ced565b610bfa565b005b34801561032857600080fd5b50610343600480360361033e9190810190611eaa565b610c1b565b604051610350919061205b565b60405180910390f35b34801561036557600080fd5b50610380600480360361037b9190810190611eaa565b610c8d565b60405161038d9190611fbd565b60405180910390f35b3480156103a257600080fd5b506103bd60048036036103b89190810190611eaa565b610d0b565b6040516103ca9190611fbd565b60405180910390f35b3480156103df57600080fd5b506103fa60048036036103f59190810190611c88565b610d3e565b6040516104079190612091565b60405180910390f35b34801561041c57600080fd5b50610425610dc2565b60405161043291906120e3565b60405180910390f35b34801561044757600080fd5b50610462600480360361045d9190810190611ed3565b610dd8565b005b34801561047057600080fd5b5061048b60048036036104869190810190611db7565b610f8b565b005b34801561049957600080fd5b506104b460048036036104af9190810190611d3c565b6110c3565b005b3480156104c257600080fd5b506104dd60048036036104d89190810190611e2f565b6110eb565b6040516104ea91906120fe565b60405180910390f35b3480156104ff57600080fd5b5061051a60048036036105159190810190611cb1565b61110b565b604051610527919061205b565b60405180910390f35b34801561053c57600080fd5b5061055760048036036105529190810190611eaa565b61119f565b005b6000806000837bffffffffffffffffffffffffffffffffffffffffffffffffffffffff19167bffffffffffffffffffffffffffffffffffffffffffffffffffffffff1916815260200190815260200160002060009054906101000a900460ff169050919050565b6105ca33826112cb565b15156105d557600080fd5b6105de81611360565b50565b60006002600083815260200190815260200160002060009054906101000a900473ffffffffffffffffffffffffffffffffffffffff169050919050565b600061062982610c8d565b90508073ffffffffffffffffffffffffffffffffffffffff168373ffffffffffffffffffffffffffffffffffffffff161415151561066657600080fd5b8073ffffffffffffffffffffffffffffffffffffffff163373ffffffffffffffffffffffffffffffffffffffff1614806106a657506106a5813361110b565b5b15156106b157600080fd5b826002600084815260200190815260200160002060006101000a81548173ffffffffffffffffffffffffffffffffffffffff021916908373ffffffffffffffffffffffffffffffffffffffff160217905550818373ffffffffffffffffffffffffffffffffffffffff168273ffffffffffffffffffffffffffffffffffffffff167f8c5be1e5ebec7d5bd14f71427d1e84f3dd0314c0f7b2291e5b200ac8c7c3b92560405160405180910390a4505050565b3373ffffffffffffffffffffffffffffffffffffffff16600760009054906101000a900473ffffffffffffffffffffffffffffffffffffffff1673ffffffffffffffffffffffffffffffffffffffff1614156108aa5760405180807f7072655374616b656400000000000000000000000000000000000000000000008152506009019050604051809103902060001916600560405180828054600181600116156101000203166002900480156108505780601f1061082e576101008083540402835291820191610850565b820191906000526020600020905b81548152906001019060200180831161083c575b505091505060405180910390206000191614156108a95780600660006101000a81548173ffffffffffffffffffffffffffffffffffffffff021916908373ffffffffffffffffffffffffffffffffffffffff1602179055505b5b50565b6301ffc9a77c01000000000000000000000000000000000000000000000000000000000281565b600d6020528060005260406000206000915054906101000a900460ff1681565b3373ffffffffffffffffffffffffffffffffffffffff16600760009054906101000a900473ffffffffffffffffffffffffffffffffffffffff1673ffffffffffffffffffffffffffffffffffffffff161415610a955760405180807f7072655374616b656400000000000000000000000000000000000000000000008152506009019050604051809103902060001916600560405180828054600181600116156101000203166002900480156109e15780601f106109bf5761010080835404028352918201916109e1565b820191906000526020600020905b8154815290600101906020018083116109cd575b50509150506040518091039020600019161415610a94573073ffffffffffffffffffffffffffffffffffffffff1631600981905550610a4160023073ffffffffffffffffffffffffffffffffffffffff163161142090919063ffffffff16565b600a819055506040805190810160405280600681526020017f7374616b6564000000000000000000000000000000000000000000000000000081525060059080519060200190610a92929190611b15565b505b5b565b610aa133826112cb565b1515610aac57600080fd5b600073ffffffffffffffffffffffffffffffffffffffff168373ffffffffffffffffffffffffffffffffffffffff1614151515610ae857600080fd5b600073ffffffffffffffffffffffffffffffffffffffff168273ffffffffffffffffffffffffffffffffffffffff1614151515610b2457600080fd5b610b2e838261143b565b81600f600083815260200190815260200160002060006101000a81548173ffffffffffffffffffffffffffffffffffffffff021916908373ffffffffffffffffffffffffffffffffffffffff1602179055507fb22781db7a1c1a87b86b7215e93e2ad8791bb8cc984291af99060086f14f0b4a838383604051610bb393929190611fd8565b60405180910390a1505050565b7f5b6b431d4476a211bb7d41c20d1aab9ae2321deee0d20be3d9fc9b1093fa6e3d81604051610bef9190612091565b60405180910390a150565b610c1683838360206040519081016040528060008152506110c3565b505050565b6000806001600084815260200190815260200160002060009054906101000a900473ffffffffffffffffffffffffffffffffffffffff169050600073ffffffffffffffffffffffffffffffffffffffff168173ffffffffffffffffffffffffffffffffffffffff161415915050919050565b6000806001600084815260200190815260200160002060009054906101000a900473ffffffffffffffffffffffffffffffffffffffff169050600073ffffffffffffffffffffffffffffffffffffffff168173ffffffffffffffffffffffffffffffffffffffff1614151515610d0257600080fd5b80915050919050565b600f6020528060005260406000206000915054906101000a900473ffffffffffffffffffffffffffffffffffffffff1681565b60008073ffffffffffffffffffffffffffffffffffffffff168273ffffffffffffffffffffffffffffffffffffffff1614151515610d7b57600080fd5b600360008373ffffffffffffffffffffffffffffffffffffffff1673ffffffffffffffffffffffffffffffffffffffff168152602001908152602001600020549050919050565b600e60009054906101000a900463ffffffff1681565b60608060606000610de88661153e565b9350610df385611582565b9250610e16600e60009054906101000a900463ffffffff1663ffffffff1661153e565b9150610e3d82610e2f85876115b490919063ffffffff16565b6115b490919063ffffffff16565b6040518082805190602001908083835b602083101515610e725780518252602082019150602081019050602083039250610e4d565b6001836020036101000a038019825116818451168082178552505050505050905001915050604051809103902090506001600c6000836000191660001916815260200190815260200160002060006101000a81548160ff021916908360ff160217905550610ee885610ee38361163e565b61164c565b8473ffffffffffffffffffffffffffffffffffffffff167fb0d4c6429c095b71c620c97c2487be945fdb5af1a507b9befa09bffb95d7d60b87600e60009054906101000a900463ffffffff1684604051610f44939291906120ac565b60405180910390a26001600e60008282829054906101000a900463ffffffff160192506101000a81548163ffffffff021916908363ffffffff160217905550505050505050565b3373ffffffffffffffffffffffffffffffffffffffff168273ffffffffffffffffffffffffffffffffffffffff1614151515610fc657600080fd5b80600460003373ffffffffffffffffffffffffffffffffffffffff1673ffffffffffffffffffffffffffffffffffffffff16815260200190815260200160002060008473ffffffffffffffffffffffffffffffffffffffff1673ffffffffffffffffffffffffffffffffffffffff16815260200190815260200160002060006101000a81548160ff0219169083151502179055508173ffffffffffffffffffffffffffffffffffffffff163373ffffffffffffffffffffffffffffffffffffffff167f17307eab39ab6107e8899845ad3d59bd9653f200f220920489ca2b5937696c31836040516110b7919061205b565b60405180910390a35050565b6110ce848484610a97565b6110da848484846116f2565b15156110e557600080fd5b50505050565b600c6020528060005260406000206000915054906101000a900460ff1681565b6000600460008473ffffffffffffffffffffffffffffffffffffffff1673ffffffffffffffffffffffffffffffffffffffff16815260200190815260200160002060008373ffffffffffffffffffffffffffffffffffffffff1673ffffffffffffffffffffffffffffffffffffffff16815260200190815260200160002060009054906101000a900460ff16905092915050565b6000803373ffffffffffffffffffffffffffffffffffffffff16600760009054906101000a900473ffffffffffffffffffffffffffffffffffffffff1673ffffffffffffffffffffffffffffffffffffffff1614156112c65761120183610c1b565b151561120c57600080fd5b600f600084815260200190815260200160002060009054906101000a900473ffffffffffffffffffffffffffffffffffffffff16915061124b83610c8d565b90506112578184611842565b6112618284611971565b828273ffffffffffffffffffffffffffffffffffffffff168273ffffffffffffffffffffffffffffffffffffffff167fddf252ad1be2c89b69c2b068fc378daa952ba7f163c4a11628f55a4df523b3ef60405160405180910390a46112c583611360565b5b505050565b6000806112d783610c8d565b90508073ffffffffffffffffffffffffffffffffffffffff168473ffffffffffffffffffffffffffffffffffffffff16148061134657508373ffffffffffffffffffffffffffffffffffffffff1661132e846105e1565b73ffffffffffffffffffffffffffffffffffffffff16145b806113575750611356818561110b565b5b91505092915050565b600073ffffffffffffffffffffffffffffffffffffffff16600f600083815260200190815260200160002060009054906101000a900473ffffffffffffffffffffffffffffffffffffffff1673ffffffffffffffffffffffffffffffffffffffff1614151561141d576000600f600083815260200190815260200160002060006101000a81548173ffffffffffffffffffffffffffffffffffffffff021916908373ffffffffffffffffffffffffffffffffffffffff1602179055505b50565b600080828481151561142e57fe5b0490508091505092915050565b8173ffffffffffffffffffffffffffffffffffffffff1661145b82610c8d565b73ffffffffffffffffffffffffffffffffffffffff1614151561147d57600080fd5b600073ffffffffffffffffffffffffffffffffffffffff166002600083815260200190815260200160002060009054906101000a900473ffffffffffffffffffffffffffffffffffffffff1673ffffffffffffffffffffffffffffffffffffffff1614151561153a5760006002600083815260200190815260200160002060006101000a81548173ffffffffffffffffffffffffffffffffffffffff021916908373ffffffffffffffffffffffffffffffffffffffff1602179055505b5050565b606060206040519080825280601f01601f1916602001820160405280156115745781602001602082028038833980820191505090505b509050816020820152919050565b606060405182741400000000000000000000000000000000000000001860148201526034810160405280915050919050565b6060806040519050835180825260208201818101602087015b818310156115ea57805183526020830192506020810190506115cd565b50855192508351830184528091508282019050602086015b8183101561161f5780518352602083019250602081019050611602565b50601f19601f8851850115830101166040525050508091505092915050565b600081600190049050919050565b600073ffffffffffffffffffffffffffffffffffffffff168273ffffffffffffffffffffffffffffffffffffffff161415151561168857600080fd5b6116928282611971565b808273ffffffffffffffffffffffffffffffffffffffff16600073ffffffffffffffffffffffffffffffffffffffff167fddf252ad1be2c89b69c2b068fc378daa952ba7f163c4a11628f55a4df523b3ef60405160405180910390a45050565b6000806117148573ffffffffffffffffffffffffffffffffffffffff16611acb565b15156117235760019150611839565b8473ffffffffffffffffffffffffffffffffffffffff1663150b7a02338887876040518563ffffffff167c010000000000000000000000000000000000000000000000000000000002815260040161177e949392919061200f565b602060405180830381600087803b15801561179857600080fd5b505af11580156117ac573d6000803e3d6000fd5b505050506040513d601f19601f820116820180604052506117d09190810190611e81565b905063150b7a027c0100000000000000000000000000000000000000000000000000000000027bffffffffffffffffffffffffffffffffffffffffffffffffffffffff1916817bffffffffffffffffffffffffffffffffffffffffffffffffffffffff19161491505b50949350505050565b8173ffffffffffffffffffffffffffffffffffffffff1661186282610c8d565b73ffffffffffffffffffffffffffffffffffffffff1614151561188457600080fd5b6118d76001600360008573ffffffffffffffffffffffffffffffffffffffff1673ffffffffffffffffffffffffffffffffffffffff16815260200190815260200160002054611ade90919063ffffffff16565b600360008473ffffffffffffffffffffffffffffffffffffffff1673ffffffffffffffffffffffffffffffffffffffff1681526020019081526020016000208190555060006001600083815260200190815260200160002060006101000a81548173ffffffffffffffffffffffffffffffffffffffff021916908373ffffffffffffffffffffffffffffffffffffffff1602179055505050565b600073ffffffffffffffffffffffffffffffffffffffff166001600083815260200190815260200160002060009054906101000a900473ffffffffffffffffffffffffffffffffffffffff1673ffffffffffffffffffffffffffffffffffffffff161415156119df57600080fd5b816001600083815260200190815260200160002060006101000a81548173ffffffffffffffffffffffffffffffffffffffff021916908373ffffffffffffffffffffffffffffffffffffffff160217905550611a846001600360008573ffffffffffffffffffffffffffffffffffffffff1673ffffffffffffffffffffffffffffffffffffffff16815260200190815260200160002054611af790919063ffffffff16565b600360008473ffffffffffffffffffffffffffffffffffffffff1673ffffffffffffffffffffffffffffffffffffffff168152602001908152602001600020819055505050565b600080823b905060008111915050919050565b6000828211151515611aec57fe5b818303905092915050565b6000808284019050838110151515611b0b57fe5b8091505092915050565b828054600181600116156101000203166002900490600052602060002090601f016020900481019282601f10611b5657805160ff1916838001178555611b84565b82800160010185558215611b84579182015b82811115611b83578251825591602001919060010190611b68565b5b509050611b919190611b95565b5090565b611bb791905b80821115611bb3576000816000905550600101611b9b565b5090565b90565b6000611bc68235612206565b905092915050565b6000611bda8235612226565b905092915050565b6000611bee8235612232565b905092915050565b6000611c02823561223c565b905092915050565b6000611c16825161223c565b905092915050565b600082601f8301121515611c3157600080fd5b8135611c44611c3f82612146565b612119565b91508082526020830160208301858383011115611c6057600080fd5b611c6b838284612284565b50505092915050565b6000611c808235612268565b905092915050565b600060208284031215611c9a57600080fd5b6000611ca884828501611bba565b91505092915050565b60008060408385031215611cc457600080fd5b6000611cd285828601611bba565b9250506020611ce385828601611bba565b9150509250929050565b600080600060608486031215611d0257600080fd5b6000611d1086828701611bba565b9350506020611d2186828701611bba565b9250506040611d3286828701611c74565b9150509250925092565b60008060008060808587031215611d5257600080fd5b6000611d6087828801611bba565b9450506020611d7187828801611bba565b9350506040611d8287828801611c74565b925050606085013567ffffffffffffffff811115611d9f57600080fd5b611dab87828801611c1e565b91505092959194509250565b60008060408385031215611dca57600080fd5b6000611dd885828601611bba565b9250506020611de985828601611bce565b9150509250929050565b60008060408385031215611e0657600080fd5b6000611e1485828601611bba565b9250506020611e2585828601611c74565b9150509250929050565b600060208284031215611e4157600080fd5b6000611e4f84828501611be2565b91505092915050565b600060208284031215611e6a57600080fd5b6000611e7884828501611bf6565b91505092915050565b600060208284031215611e9357600080fd5b6000611ea184828501611c0a565b91505092915050565b600060208284031215611ebc57600080fd5b6000611eca84828501611c74565b91505092915050565b60008060408385031215611ee657600080fd5b6000611ef485828601611c74565b9250506020611f0585828601611bba565b9150509250929050565b611f188161217d565b82525050565b611f278161219d565b82525050565b611f36816121a9565b82525050565b611f45816121b3565b82525050565b6000611f5682612172565b808452611f6a816020860160208601612293565b611f73816122c6565b602085010191505092915050565b611f8a816121df565b82525050565b611f9981612272565b82525050565b611fa8816121e9565b82525050565b611fb7816121f9565b82525050565b6000602082019050611fd26000830184611f0f565b92915050565b6000606082019050611fed6000830186611f0f565b611ffa6020830185611f0f565b6120076040830184611f81565b949350505050565b60006080820190506120246000830187611f0f565b6120316020830186611f0f565b61203e6040830185611f81565b81810360608301526120508184611f4b565b905095945050505050565b60006020820190506120706000830184611f1e565b92915050565b600060208201905061208b6000830184611f3c565b92915050565b60006020820190506120a66000830184611f81565b92915050565b60006060820190506120c16000830186611f81565b6120ce6020830185611f90565b6120db6040830184611f2d565b949350505050565b60006020820190506120f86000830184611f9f565b92915050565b60006020820190506121136000830184611fae565b92915050565b6000604051905081810181811067ffffffffffffffff8211171561213c57600080fd5b8060405250919050565b600067ffffffffffffffff82111561215d57600080fd5b601f19601f8301169050602081019050919050565b600081519050919050565b600073ffffffffffffffffffffffffffffffffffffffff82169050919050565b60008115159050919050565b6000819050919050565b60007fffffffff0000000000000000000000000000000000000000000000000000000082169050919050565b6000819050919050565b600063ffffffff82169050919050565b600060ff82169050919050565b600073ffffffffffffffffffffffffffffffffffffffff82169050919050565b60008115159050919050565b6000819050919050565b60007fffffffff0000000000000000000000000000000000000000000000000000000082169050919050565b6000819050919050565b600061227d826121e9565b9050919050565b82818337600083830152505050565b60005b838110156122b1578082015181840152602081019050612296565b838111156122c0576000848401525b50505050565b6000601f19601f83011690509190505600a265627a7a723058206018313b97881bca27a69b27c57762cce91448c8dd6395dbd38436ee9c2517d96c6578706572696d656e74616cf50037",
  "source": "pragma solidity ^0.4.24;\npragma experimental ABIEncoderV2;\n\nimport \"./SafeMath.sol\";\nimport \"./Ownable.sol\";\nimport \"./RLP.sol\";\nimport \"./BytesLib.sol\";\nimport \"./ERC721Basic.sol\";\nimport \"./ERC721BasicToken.sol\";\n\ncontract TokenContract is ERC721BasicToken {\n  using SafeMath for uint256;\n  using RLP for RLP.RLPItem;\n  using RLP for RLP.Iterator;\n  using RLP for bytes;\n  using BytesLib for bytes;\n\n  string contractState = \"preStaked\";\n  address depositContract;\n  address custodian;\n  address custodianETH;\n  uint256 stakedAmount;\n  uint256 mintCap;\n  uint256 mintedAmount;\n  mapping (bytes32 => uint8) public mintLog;\n  mapping (bytes32 => uint8) public burnLog;\n\n  constructor (address _custodian) {\n    custodian = _custodian;\n  }\n\n  modifier onlyCustodian() {\n    if (custodian == msg.sender) {\n      _;\n    }\n  }\n\n  modifier statePreStaked () {\n    if (keccak256(contractState) == keccak256(\"preStaked\"))  {\n      _;\n    }\n  }\n\n  modifier stateStaked () {\n    if (keccak256(contractState) == keccak256(\"staked\"))  {\n      _;\n    }\n  }\n\n  event Mint(uint256 amount, address indexed depositedTo, uint256 nonce, bytes32 mintHash);\n  event Challenge(address indexed depositer, address indexed depositedTo, uint256 amount, uint256 indexed blockNumber);\n  event ChallangeResolved(address indexed depositer, address indexed depositedTo, uint256 amount, uint256 indexed blockNumber, bytes signedTx); \n  event Refund(address indexed withdrawer, uint256 amount, uint256 indexed blockNumber);\n  event Withdraw(uint256 tokenId);\n  event Parsed(bytes data, address to, address from);\n\n\n  function setDepositContract(address _depositContract) onlyCustodian statePreStaked public {\n    depositContract = _depositContract;\n  }\n\n  function finalizeStake () onlyCustodian statePreStaked public {\n    stakedAmount = address(this).balance;\n    mintCap = address(this).balance.div(2);\n\n    contractState = \"staked\";\n  }\n\n  uint32 public mintNonce = 0;\n\n  function mint(uint256 _value, address _to) public {\n\n    //might have to log the value, to, Z details\n    bytes memory value = uint256ToBytes(_value);\n    bytes memory to = addressToBytes(_to);\n    bytes memory Z = uint256ToBytes(mintNonce);\n    bytes32 mintHash = keccak256(value.concat(to).concat(Z));\n    mintLog[mintHash] = 1;\n    _mint(_to, bytes32ToUint256(mintHash));\n    emit Mint(_value, _to, mintNonce, mintHash);\n    mintNonce += 1;\n  }\n\n\n  //USED TO ANNOUNCE A WITHDRAWL (DOESNT NECESSISTATE SUBMISSION)\n  function withdraw(uint256 _tokenId) public {\n    emit Withdraw(_tokenId);\n  }\n\n\n  /* ERC721 Related Functions --------------------------------------------------*/\n  // Mapping from token ID to approved address\n  mapping (uint256 => address) public custodianApproval;\n\n\n  \n  event TransferRequest(address from, address to, uint256 _tokenId);\n  \n  /**\n   * @dev Transfers the ownership of a given token ID to another address\n   * Usage of this method is discouraged, use `safeTransferFrom` whenever possible\n   * Requires the msg sender to be the owner, approved, or operator\n   * @param _from current owner of the token\n   * @param _to address to receive the ownership of the given token ID\n   * @param _tokenId uint256 ID of the token to be transferred\n  */\n  function transferFrom(\n    address _from,\n    address _to,\n    uint256 _tokenId\n  )\n    public\n  {\n    require(isApprovedOrOwner(msg.sender, _tokenId));\n    require(_from != address(0));\n    require(_to != address(0));\n\n    clearApproval(_from, _tokenId);\n    custodianApproval[_tokenId] = _to;\n\n    emit TransferRequest(_from, _to, _tokenId);\n  }\n\n  function custodianApprove(uint256 _tokenId) onlyCustodian public {\n    require(exists(_tokenId));\n    address _to = custodianApproval[_tokenId];\n    address _from = ownerOf(_tokenId);\n    removeTokenFrom(_from, _tokenId);\n    addTokenTo(_to, _tokenId);\n    emit Transfer(_from, _to, _tokenId);\n    clearCustodianApproval(_tokenId);\n  }\n\n  function revertTransfer(uint256 _tokenId) public {\n    require(isApprovedOrOwner(msg.sender, _tokenId));\n    \n    clearCustodianApproval(_tokenId);\n  }\n\n  /**\n   * @dev Internal function to clear current custodian approval of a given token ID\n   * @param _tokenId uint256 ID of the token to be transferred\n   */\n  function clearCustodianApproval(uint256 _tokenId) internal {\n    if (custodianApproval[_tokenId] != address(0)) {\n      custodianApproval[_tokenId] = address(0);\n    }\n  }\n\n  \n\n\n  /* Util functions --------------------------------------------------*/\n  // function parse(bytes rawTx, bytes32 msgHash) public returns (Transaction transaction) {\n  //   RLP.RLPItem[] memory list = rawTx.toRLPItem().toList();\n  //   // can potentially insert: if (signedTransaction.length !== 9) { throw new Error('invalid transaction'); } items()\n  //   transaction.nonce = list[0].toUint();\n  //   transaction.gasPrice = list[1].toUint();\n  //   transaction.gasLimit = list[2].toUint();\n  //   transaction.to = list[3].toAddress();\n  //   if (!list[4].isEmpty()) {\n  //     transaction.value = list[4].toUint();\n  //   }\n  //   if (!list[5].isEmpty()) {\n  //     transaction.data = list[5].toData();\n  //   }\n  //   transaction.v = uint8(list[6].toUint());\n  //   transaction.r = list[7].toBytes32(); \n  //   transaction.s = list[8].toBytes32();\n  //   transaction.from = ecrecover(msgHash, 28, transaction.r, transaction.s);\n  //   emit Parsed(transaction.data, transaction.to, transaction.from);\n  //   //for debbugging\n  //   testTx = transaction;\n  //   return transaction;\n  // }\n\n\n  //hashes appropriate data then verifies against txLog\n  // function verifyMintTxParams(bytes data) public returns (uint8) {\n  //   assert(data.slice(0,10).equal(mintSignature));\n  //   return txLog[keccak256(data.slice(10, 266))];\n  // }\n\n  //NEEDS TESTING\n  // function parseXYZ(bytes data) public returns (uint X, address Y, uint Z, uint txNonce) {\n  //   require(data.slice(0,10).equal(mintSignature));\n  //   X = data.slice(10, 74).toUint(0);\n  //   Y = data.slice(74, 138).toAddress(0);\n  //   Z = data.slice(138, 202).toUint(0);\n  //   txNonce = data.slice(202, 266).toUint(0);\n  //   return (X, Y, Z, txNonce);\n  // }\n\n  function bytesToBytes32(bytes b, uint offset) private pure returns (bytes32) {\n    bytes32 out;\n    for (uint i = 0; i < 32; i++) {\n      out |= bytes32(b[offset + i] & 0xFF) >> (i * 8);\n    }\n    return out;\n  }\n\n  function stringToBytes( string s) internal returns (bytes memory b3){\n    b3 = bytes(s);\n    return b3;\n  }\n\n  // Nick Johnson https://ethereum.stackexchange.com/questions/4170/how-to-convert-a-uint-to-bytes-in-solidity\n  function uint256ToBytes(uint256 x) internal returns (bytes b) {\n    b = new bytes(32);\n    assembly { mstore(add(b, 32), x) }\n  }\n\n  // Tjaden Hess https://ethereum.stackexchange.com/questions/884/how-to-convert-an-address-to-bytes-in-solidity\n  function addressToBytes(address a) internal returns (bytes b) {\n    assembly {\n        let m := mload(0x40)\n        mstore(add(m, 20), xor(0x140000000000000000000000000000000000000000, a))\n        mstore(0x40, add(m, 52))\n        b := m\n    }\n  }\n\n  // https://ethereum.stackexchange.com/questions/6498/how-to-convert-a-uint256-type-integer-into-a-bytes32\n  function bytes32ToUint256(bytes32 n) internal returns (uint256) {\n    return uint256(n);\n  }\n\n}\n",
  "sourcePath": "/Users/zhen/Code/peaceNotRelay/contracts/TokenContract.sol",
  "compiler": {
    "name": "solc",
    "version": "0.4.24+commit.e67f0147.Emscripten.clang"
  },
  "schemaVersion": "2.0.0",
  "updatedAt": "2018-08-06T03:15:22.680Z"
}