{
  "contractName": "TokenContract",
  "abi": [
    {
      "constant": true,
      "inputs": [
        {
          "name": "_tokenId",
          "type": "uint256"
        }
      ],
      "name": "getApproved",
      "outputs": [
        {
          "name": "",
          "type": "address"
        }
      ],
      "payable": false,
      "stateMutability": "view",
      "type": "function"
    },
    {
      "constant": false,
      "inputs": [
        {
          "name": "_to",
          "type": "address"
        },
        {
          "name": "_tokenId",
          "type": "uint256"
        }
      ],
      "name": "approve",
      "outputs": [],
      "payable": false,
      "stateMutability": "nonpayable",
      "type": "function"
    },
    {
      "constant": true,
      "inputs": [
        {
          "name": "",
          "type": "bytes32"
        }
      ],
      "name": "custodianApproval",
      "outputs": [
        {
          "name": "",
          "type": "address"
        }
      ],
      "payable": false,
      "stateMutability": "view",
      "type": "function"
    },
    {
      "constant": true,
      "inputs": [
        {
          "name": "",
          "type": "bytes32"
        }
      ],
      "name": "burnLog",
      "outputs": [
        {
          "name": "",
          "type": "uint8"
        }
      ],
      "payable": false,
      "stateMutability": "view",
      "type": "function"
    },
    {
      "constant": true,
      "inputs": [
        {
          "name": "_tokenId",
          "type": "uint256"
        }
      ],
      "name": "exists",
      "outputs": [
        {
          "name": "",
          "type": "bool"
        }
      ],
      "payable": false,
      "stateMutability": "view",
      "type": "function"
    },
    {
      "constant": true,
      "inputs": [
        {
          "name": "_tokenId",
          "type": "uint256"
        }
      ],
      "name": "ownerOf",
      "outputs": [
        {
          "name": "",
          "type": "address"
        }
      ],
      "payable": false,
      "stateMutability": "view",
      "type": "function"
    },
    {
      "constant": true,
      "inputs": [
        {
          "name": "_owner",
          "type": "address"
        }
      ],
      "name": "balanceOf",
      "outputs": [
        {
          "name": "",
          "type": "uint256"
        }
      ],
      "payable": false,
      "stateMutability": "view",
      "type": "function"
    },
    {
      "constant": true,
      "inputs": [],
      "name": "mintNonce",
      "outputs": [
        {
          "name": "",
          "type": "uint32"
        }
      ],
      "payable": false,
      "stateMutability": "view",
      "type": "function"
    },
    {
      "constant": false,
      "inputs": [
        {
          "name": "_to",
          "type": "address"
        },
        {
          "name": "_approved",
          "type": "bool"
        }
      ],
      "name": "setApprovalForAll",
      "outputs": [],
      "payable": false,
      "stateMutability": "nonpayable",
      "type": "function"
    },
    {
      "constant": true,
      "inputs": [
        {
          "name": "",
          "type": "bytes32"
        }
      ],
      "name": "mintLog",
      "outputs": [
        {
          "name": "",
          "type": "uint8"
        }
      ],
      "payable": false,
      "stateMutability": "view",
      "type": "function"
    },
    {
      "constant": true,
      "inputs": [
        {
          "name": "_owner",
          "type": "address"
        },
        {
          "name": "_operator",
          "type": "address"
        }
      ],
      "name": "isApprovedForAll",
      "outputs": [
        {
          "name": "",
          "type": "bool"
        }
      ],
      "payable": false,
      "stateMutability": "view",
      "type": "function"
    },
    {
      "inputs": [
        {
          "name": "_custodian",
          "type": "address"
        }
      ],
      "payable": false,
      "stateMutability": "nonpayable",
      "type": "constructor"
    },
    {
      "anonymous": false,
      "inputs": [
        {
          "indexed": false,
          "name": "amount",
          "type": "uint256"
        },
        {
          "indexed": true,
          "name": "depositedTo",
          "type": "address"
        },
        {
          "indexed": false,
          "name": "nonce",
          "type": "uint256"
        },
        {
          "indexed": false,
          "name": "mintHash",
          "type": "bytes32"
        }
      ],
      "name": "Mint",
      "type": "event"
    },
    {
      "anonymous": false,
      "inputs": [
        {
          "indexed": false,
          "name": "tokenId",
          "type": "uint256"
        }
      ],
      "name": "Withdraw",
      "type": "event"
    },
    {
      "anonymous": false,
      "inputs": [
        {
          "indexed": true,
          "name": "from",
          "type": "address"
        },
        {
          "indexed": true,
          "name": "to",
          "type": "address"
        },
        {
          "indexed": true,
          "name": "_tokenId",
          "type": "uint256"
        },
        {
          "indexed": false,
          "name": "approvalHash",
          "type": "bytes32"
        }
      ],
      "name": "TransferRequest",
      "type": "event"
    },
    {
      "anonymous": false,
      "inputs": [
        {
          "indexed": true,
          "name": "_from",
          "type": "address"
        },
        {
          "indexed": true,
          "name": "_to",
          "type": "address"
        },
        {
          "indexed": true,
          "name": "_tokenId",
          "type": "uint256"
        }
      ],
      "name": "Transfer",
      "type": "event"
    },
    {
      "anonymous": false,
      "inputs": [
        {
          "indexed": true,
          "name": "_owner",
          "type": "address"
        },
        {
          "indexed": true,
          "name": "_approved",
          "type": "address"
        },
        {
          "indexed": true,
          "name": "_tokenId",
          "type": "uint256"
        }
      ],
      "name": "Approval",
      "type": "event"
    },
    {
      "anonymous": false,
      "inputs": [
        {
          "indexed": true,
          "name": "_owner",
          "type": "address"
        },
        {
          "indexed": true,
          "name": "_operator",
          "type": "address"
        },
        {
          "indexed": false,
          "name": "_approved",
          "type": "bool"
        }
      ],
      "name": "ApprovalForAll",
      "type": "event"
    },
    {
      "constant": false,
      "inputs": [
        {
          "name": "_depositContract",
          "type": "address"
        }
      ],
      "name": "setDepositContract",
      "outputs": [],
      "payable": false,
      "stateMutability": "nonpayable",
      "type": "function"
    },
    {
      "constant": false,
      "inputs": [],
      "name": "finalizeStake",
      "outputs": [],
      "payable": false,
      "stateMutability": "nonpayable",
      "type": "function"
    },
    {
      "constant": false,
      "inputs": [
        {
          "name": "_value",
          "type": "uint256"
        },
        {
          "name": "_to",
          "type": "address"
        }
      ],
      "name": "mint",
      "outputs": [],
      "payable": false,
      "stateMutability": "nonpayable",
      "type": "function"
    },
    {
      "constant": false,
      "inputs": [
        {
          "name": "_tokenId",
          "type": "uint256"
        }
      ],
      "name": "withdraw",
      "outputs": [],
      "payable": false,
      "stateMutability": "nonpayable",
      "type": "function"
    },
    {
      "constant": false,
      "inputs": [
        {
          "name": "_from",
          "type": "address"
        },
        {
          "name": "_to",
          "type": "address"
        },
        {
          "name": "_tokenId",
          "type": "uint256"
        },
        {
          "name": "_declaredNonce",
          "type": "uint256"
        }
      ],
      "name": "transferFrom",
      "outputs": [],
      "payable": false,
      "stateMutability": "nonpayable",
      "type": "function"
    },
    {
      "constant": false,
      "inputs": [
        {
          "name": "_tokenId",
          "type": "uint256"
        },
        {
          "name": "_declaredNonce",
          "type": "uint256"
        }
      ],
      "name": "custodianApprove",
      "outputs": [],
      "payable": false,
      "stateMutability": "nonpayable",
      "type": "function"
    },
    {
      "constant": false,
      "inputs": [
        {
          "name": "_tokenId",
          "type": "uint256"
        },
        {
          "name": "_declaredNonce",
          "type": "uint256"
        }
      ],
      "name": "revertTransfer",
      "outputs": [],
      "payable": false,
      "stateMutability": "nonpayable",
      "type": "function"
    },
    {
      "constant": true,
      "inputs": [
        {
          "name": "_approvalHash",
          "type": "bytes32"
        }
      ],
      "name": "viewTransferRequest",
      "outputs": [
        {
          "name": "",
          "type": "address"
        }
      ],
      "payable": false,
      "stateMutability": "view",
      "type": "function"
    }
  ],
  "bytecode": "0x60806040526040805190810160405280600981526020017f7072655374616b656400000000000000000000000000000000000000000000008152506004908051906020019062000051929190620000ed565b506000600d60006101000a81548163ffffffff021916908363ffffffff1602179055503480156200008157600080fd5b5060405160208062001fb58339810180604052810190808051906020019092919050505080600660006101000a81548173ffffffffffffffffffffffffffffffffffffffff021916908373ffffffffffffffffffffffffffffffffffffffff160217905550506200019c565b828054600181600116156101000203166002900490600052602060002090601f016020900481019282601f106200013057805160ff191683800117855562000161565b8280016001018555821562000161579182015b828111156200016057825182559160200191906001019062000143565b5b50905062000170919062000174565b5090565b6200019991905b80821115620001955760008160009055506001016200017b565b5090565b90565b611e0980620001ac6000396000f300608060405260043610610107576000357c0100000000000000000000000000000000000000000000000000000000900463ffffffff168063081812fc1461010c578063095ea7b3146101795780630ec2e821146101c65780630f32037f1461020957806322903a191461027a5780632310b384146102c55780632e1a7d4d146102dc5780634174dd39146103095780634f558e79146103405780636352211e146103855780636e3c045e146103f257806370a0823114610429578063931679a21461048057806394bf804d146104b7578063a077275714610504578063a22cb46514610575578063da9e5962146105c4578063e985e9c51461060f578063fe99049a1461068a575b600080fd5b34801561011857600080fd5b5061013760048036038101908080359060200190929190505050610701565b604051808273ffffffffffffffffffffffffffffffffffffffff1673ffffffffffffffffffffffffffffffffffffffff16815260200191505060405180910390f35b34801561018557600080fd5b506101c4600480360381019080803573ffffffffffffffffffffffffffffffffffffffff1690602001909291908035906020019092919050505061073e565b005b3480156101d257600080fd5b50610207600480360381019080803573ffffffffffffffffffffffffffffffffffffffff169060200190929190505050610883565b005b34801561021557600080fd5b5061023860048036038101908080356000191690602001909291905050506109cd565b604051808273ffffffffffffffffffffffffffffffffffffffff1673ffffffffffffffffffffffffffffffffffffffff16815260200191505060405180910390f35b34801561028657600080fd5b506102a96004803603810190808035600019169060200190929190505050610a00565b604051808260ff1660ff16815260200191505060405180910390f35b3480156102d157600080fd5b506102da610a20565b005b3480156102e857600080fd5b5061030760048036038101908080359060200190929190505050610bc3565b005b34801561031557600080fd5b5061033e6004803603810190808035906020019092919080359060200190929190505050610bfd565b005b34801561034c57600080fd5b5061036b60048036038101908080359060200190929190505050610d0c565b604051808215151515815260200191505060405180910390f35b34801561039157600080fd5b506103b060048036038101908080359060200190929190505050610d7d565b604051808273ffffffffffffffffffffffffffffffffffffffff1673ffffffffffffffffffffffffffffffffffffffff16815260200191505060405180910390f35b3480156103fe57600080fd5b506104276004803603810190808035906020019092919080359060200190929190505050610dfa565b005b34801561043557600080fd5b5061046a600480360381019080803573ffffffffffffffffffffffffffffffffffffffff169060200190929190505050610fb9565b6040518082815260200191505060405180910390f35b34801561048c57600080fd5b5061049561103d565b604051808263ffffffff1663ffffffff16815260200191505060405180910390f35b3480156104c357600080fd5b5061050260048036038101908080359060200190929190803573ffffffffffffffffffffffffffffffffffffffff169060200190929190505050611053565b005b34801561051057600080fd5b506105336004803603810190808035600019169060200190929190505050611220565b604051808273ffffffffffffffffffffffffffffffffffffffff1673ffffffffffffffffffffffffffffffffffffffff16815260200191505060405180910390f35b34801561058157600080fd5b506105c2600480360381019080803573ffffffffffffffffffffffffffffffffffffffff169060200190929190803515159060200190929190505050611265565b005b3480156105d057600080fd5b506105f360048036038101908080356000191690602001909291905050506113a1565b604051808260ff1660ff16815260200191505060405180910390f35b34801561061b57600080fd5b50610670600480360381019080803573ffffffffffffffffffffffffffffffffffffffff169060200190929190803573ffffffffffffffffffffffffffffffffffffffff1690602001909291905050506113c1565b604051808215151515815260200191505060405180910390f35b34801561069657600080fd5b506106ff600480360381019080803573ffffffffffffffffffffffffffffffffffffffff169060200190929190803573ffffffffffffffffffffffffffffffffffffffff1690602001909291908035906020019092919080359060200190929190505050611455565b005b60006001600083815260200190815260200160002060009054906101000a900473ffffffffffffffffffffffffffffffffffffffff169050919050565b600061074982610d7d565b90508073ffffffffffffffffffffffffffffffffffffffff168373ffffffffffffffffffffffffffffffffffffffff161415151561078657600080fd5b8073ffffffffffffffffffffffffffffffffffffffff163373ffffffffffffffffffffffffffffffffffffffff1614806107c657506107c581336113c1565b5b15156107d157600080fd5b826001600084815260200190815260200160002060006101000a81548173ffffffffffffffffffffffffffffffffffffffff021916908373ffffffffffffffffffffffffffffffffffffffff160217905550818373ffffffffffffffffffffffffffffffffffffffff168273ffffffffffffffffffffffffffffffffffffffff167f8c5be1e5ebec7d5bd14f71427d1e84f3dd0314c0f7b2291e5b200ac8c7c3b92560405160405180910390a4505050565b3373ffffffffffffffffffffffffffffffffffffffff16600660009054906101000a900473ffffffffffffffffffffffffffffffffffffffff1673ffffffffffffffffffffffffffffffffffffffff1614156109ca5760405180807f7072655374616b656400000000000000000000000000000000000000000000008152506009019050604051809103902060001916600460405180828054600181600116156101000203166002900480156109705780601f1061094e576101008083540402835291820191610970565b820191906000526020600020905b81548152906001019060200180831161095c575b505091505060405180910390206000191614156109c95780600560006101000a81548173ffffffffffffffffffffffffffffffffffffffff021916908373ffffffffffffffffffffffffffffffffffffffff1602179055505b5b50565b600e6020528060005260406000206000915054906101000a900473ffffffffffffffffffffffffffffffffffffffff1681565b600c6020528060005260406000206000915054906101000a900460ff1681565b3373ffffffffffffffffffffffffffffffffffffffff16600660009054906101000a900473ffffffffffffffffffffffffffffffffffffffff1673ffffffffffffffffffffffffffffffffffffffff161415610bc15760405180807f7072655374616b65640000000000000000000000000000000000000000000000815250600901905060405180910390206000191660046040518082805460018160011615610100020316600290048015610b0d5780601f10610aeb576101008083540402835291820191610b0d565b820191906000526020600020905b815481529060010190602001808311610af9575b50509150506040518091039020600019161415610bc0573073ffffffffffffffffffffffffffffffffffffffff1631600881905550610b6d60023073ffffffffffffffffffffffffffffffffffffffff163161164490919063ffffffff16565b6009819055506040805190810160405280600681526020017f7374616b6564000000000000000000000000000000000000000000000000000081525060049080519060200190610bbe929190611d38565b505b5b565b7f5b6b431d4476a211bb7d41c20d1aab9ae2321deee0d20be3d9fc9b1093fa6e3d816040518082815260200191505060405180910390a150565b610c07338361165f565b1515610c7b576040517f08c379a00000000000000000000000000000000000000000000000000000000081526004018080602001828103825260168152602001807f6e6f20617070726f76616c2f206e6f74206f776e65720000000000000000000081525060200191505060405180910390fd5b610d08610ca1610c8a836116f4565b610c93856116f4565b61173890919063ffffffff16565b6040518082805190602001908083835b602083101515610cd65780518252602082019150602081019050602083039250610cb1565b6001836020036101000a03801982511681845116808217855250505050505090500191505060405180910390206117c2565b5050565b60008060008084815260200190815260200160002060009054906101000a900473ffffffffffffffffffffffffffffffffffffffff169050600073ffffffffffffffffffffffffffffffffffffffff168173ffffffffffffffffffffffffffffffffffffffff161415915050919050565b60008060008084815260200190815260200160002060009054906101000a900473ffffffffffffffffffffffffffffffffffffffff169050600073ffffffffffffffffffffffffffffffffffffffff168173ffffffffffffffffffffffffffffffffffffffff1614151515610df157600080fd5b80915050919050565b60008060003373ffffffffffffffffffffffffffffffffffffffff16600660009054906101000a900473ffffffffffffffffffffffffffffffffffffffff1673ffffffffffffffffffffffffffffffffffffffff161415610fb257610e5e85610d0c565b1515610e6957600080fd5b610e8c610e75856116f4565b610e7e876116f4565b61173890919063ffffffff16565b6040518082805190602001908083835b602083101515610ec15780518252602082019150602081019050602083039250610e9c565b6001836020036101000a03801982511681845116808217855250505050505090500191505060405180910390209250600e6000846000191660001916815260200190815260200160002060009054906101000a900473ffffffffffffffffffffffffffffffffffffffff169150610f3785610d7d565b9050610f438186611892565b610f4d82866119c0565b848273ffffffffffffffffffffffffffffffffffffffff168273ffffffffffffffffffffffffffffffffffffffff167fddf252ad1be2c89b69c2b068fc378daa952ba7f163c4a11628f55a4df523b3ef60405160405180910390a4610fb1836117c2565b5b5050505050565b60008073ffffffffffffffffffffffffffffffffffffffff168273ffffffffffffffffffffffffffffffffffffffff1614151515610ff657600080fd5b600260008373ffffffffffffffffffffffffffffffffffffffff1673ffffffffffffffffffffffffffffffffffffffff168152602001908152602001600020549050919050565b600d60009054906101000a900463ffffffff1681565b60608060606000611063866116f4565b935061106e85611b18565b9250611091600d60009054906101000a900463ffffffff1663ffffffff166116f4565b91506110b8826110aa858761173890919063ffffffff16565b61173890919063ffffffff16565b6040518082805190602001908083835b6020831015156110ed57805182526020820191506020810190506020830392506110c8565b6001836020036101000a038019825116818451168082178552505050505050905001915050604051809103902090506001600b6000836000191660001916815260200190815260200160002060006101000a81548160ff021916908360ff1602179055506111638561115e83611b4a565b611b58565b8473ffffffffffffffffffffffffffffffffffffffff167fb0d4c6429c095b71c620c97c2487be945fdb5af1a507b9befa09bffb95d7d60b87600d60009054906101000a900463ffffffff1684604051808481526020018363ffffffff1681526020018260001916600019168152602001935050505060405180910390a26001600d60008282829054906101000a900463ffffffff160192506101000a81548163ffffffff021916908363ffffffff160217905550505050505050565b6000600e6000836000191660001916815260200190815260200160002060009054906101000a900473ffffffffffffffffffffffffffffffffffffffff169050919050565b3373ffffffffffffffffffffffffffffffffffffffff168273ffffffffffffffffffffffffffffffffffffffff16141515156112a057600080fd5b80600360003373ffffffffffffffffffffffffffffffffffffffff1673ffffffffffffffffffffffffffffffffffffffff16815260200190815260200160002060008473ffffffffffffffffffffffffffffffffffffffff1673ffffffffffffffffffffffffffffffffffffffff16815260200190815260200160002060006101000a81548160ff0219169083151502179055508173ffffffffffffffffffffffffffffffffffffffff163373ffffffffffffffffffffffffffffffffffffffff167f17307eab39ab6107e8899845ad3d59bd9653f200f220920489ca2b5937696c3183604051808215151515815260200191505060405180910390a35050565b600b6020528060005260406000206000915054906101000a900460ff1681565b6000600360008473ffffffffffffffffffffffffffffffffffffffff1673ffffffffffffffffffffffffffffffffffffffff16815260200190815260200160002060008373ffffffffffffffffffffffffffffffffffffffff1673ffffffffffffffffffffffffffffffffffffffff16815260200190815260200160002060009054906101000a900460ff16905092915050565b6000611461338461165f565b151561146c57600080fd5b600073ffffffffffffffffffffffffffffffffffffffff168573ffffffffffffffffffffffffffffffffffffffff16141515156114a857600080fd5b600073ffffffffffffffffffffffffffffffffffffffff168473ffffffffffffffffffffffffffffffffffffffff16141515156114e457600080fd5b6114ee8584611bfe565b6115116114fa836116f4565b611503856116f4565b61173890919063ffffffff16565b6040518082805190602001908083835b6020831015156115465780518252602082019150602081019050602083039250611521565b6001836020036101000a0380198251168184511680821785525050505050509050019150506040518091039020905083600e6000836000191660001916815260200190815260200160002060006101000a81548173ffffffffffffffffffffffffffffffffffffffff021916908373ffffffffffffffffffffffffffffffffffffffff160217905550828473ffffffffffffffffffffffffffffffffffffffff168673ffffffffffffffffffffffffffffffffffffffff167f3517824e5a48d0c22613c30dda31e0b0ea678f70dee970267c3a56c170dbcd168460405180826000191660001916815260200191505060405180910390a45050505050565b600080828481151561165257fe5b0490508091505092915050565b60008061166b83610d7d565b90508073ffffffffffffffffffffffffffffffffffffffff168473ffffffffffffffffffffffffffffffffffffffff1614806116da57508373ffffffffffffffffffffffffffffffffffffffff166116c284610701565b73ffffffffffffffffffffffffffffffffffffffff16145b806116eb57506116ea81856113c1565b5b91505092915050565b606060206040519080825280601f01601f19166020018201604052801561172a5781602001602082028038833980820191505090505b509050816020820152919050565b6060806040519050835180825260208201818101602087015b8183101561176e5780518352602083019250602081019050611751565b50855192508351830184528091508282019050602086015b818310156117a35780518352602083019250602081019050611786565b50601f19601f8851850115830101166040525050508091505092915050565b600073ffffffffffffffffffffffffffffffffffffffff16600e6000836000191660001916815260200190815260200160002060009054906101000a900473ffffffffffffffffffffffffffffffffffffffff1673ffffffffffffffffffffffffffffffffffffffff1614151561188f576000600e6000836000191660001916815260200190815260200160002060006101000a81548173ffffffffffffffffffffffffffffffffffffffff021916908373ffffffffffffffffffffffffffffffffffffffff1602179055505b50565b8173ffffffffffffffffffffffffffffffffffffffff166118b282610d7d565b73ffffffffffffffffffffffffffffffffffffffff161415156118d457600080fd5b6119276001600260008573ffffffffffffffffffffffffffffffffffffffff1673ffffffffffffffffffffffffffffffffffffffff16815260200190815260200160002054611d0190919063ffffffff16565b600260008473ffffffffffffffffffffffffffffffffffffffff1673ffffffffffffffffffffffffffffffffffffffff16815260200190815260200160002081905550600080600083815260200190815260200160002060006101000a81548173ffffffffffffffffffffffffffffffffffffffff021916908373ffffffffffffffffffffffffffffffffffffffff1602179055505050565b600073ffffffffffffffffffffffffffffffffffffffff1660008083815260200190815260200160002060009054906101000a900473ffffffffffffffffffffffffffffffffffffffff1673ffffffffffffffffffffffffffffffffffffffff16141515611a2d57600080fd5b8160008083815260200190815260200160002060006101000a81548173ffffffffffffffffffffffffffffffffffffffff021916908373ffffffffffffffffffffffffffffffffffffffff160217905550611ad16001600260008573ffffffffffffffffffffffffffffffffffffffff1673ffffffffffffffffffffffffffffffffffffffff16815260200190815260200160002054611d1a90919063ffffffff16565b600260008473ffffffffffffffffffffffffffffffffffffffff1673ffffffffffffffffffffffffffffffffffffffff168152602001908152602001600020819055505050565b606060405182741400000000000000000000000000000000000000001860148201526034810160405280915050919050565b600081600190049050919050565b600073ffffffffffffffffffffffffffffffffffffffff168273ffffffffffffffffffffffffffffffffffffffff1614151515611b9457600080fd5b611b9e82826119c0565b808273ffffffffffffffffffffffffffffffffffffffff16600073ffffffffffffffffffffffffffffffffffffffff167fddf252ad1be2c89b69c2b068fc378daa952ba7f163c4a11628f55a4df523b3ef60405160405180910390a45050565b8173ffffffffffffffffffffffffffffffffffffffff16611c1e82610d7d565b73ffffffffffffffffffffffffffffffffffffffff16141515611c4057600080fd5b600073ffffffffffffffffffffffffffffffffffffffff166001600083815260200190815260200160002060009054906101000a900473ffffffffffffffffffffffffffffffffffffffff1673ffffffffffffffffffffffffffffffffffffffff16141515611cfd5760006001600083815260200190815260200160002060006101000a81548173ffffffffffffffffffffffffffffffffffffffff021916908373ffffffffffffffffffffffffffffffffffffffff1602179055505b5050565b6000828211151515611d0f57fe5b818303905092915050565b6000808284019050838110151515611d2e57fe5b8091505092915050565b828054600181600116156101000203166002900490600052602060002090601f016020900481019282601f10611d7957805160ff1916838001178555611da7565b82800160010185558215611da7579182015b82811115611da6578251825591602001919060010190611d8b565b5b509050611db49190611db8565b5090565b611dda91905b80821115611dd6576000816000905550600101611dbe565b5090565b905600a165627a7a723058201067f544c675e0d646e01835e58bde69e79410c61bf6d113338443aaaec7c6a90029",
  "source": "pragma solidity ^0.4.24;\n\nimport \"./dependencies/SafeMath.sol\";\nimport \"./dependencies/Ownable.sol\";\nimport \"./dependencies/RLP.sol\";\nimport \"./dependencies/BytesLib.sol\";\nimport \"./dependencies/ERC721Basic.sol\";\nimport \"./dependencies/ERC721BasicToken.sol\";\n\ncontract TokenContract is ERC721BasicToken {\n  using SafeMath for uint256;\n  using RLP for RLP.RLPItem;\n  using RLP for RLP.Iterator;\n  using RLP for bytes;\n  using BytesLib for bytes;\n\n  string contractState = \"preStaked\";\n  address depositContract;\n  address custodian;\n  address custodianETH;\n  uint256 stakedAmount;\n  uint256 mintCap;\n  uint256 mintedAmount;\n  mapping (bytes32 => uint8) public mintLog;\n  mapping (bytes32 => uint8) public burnLog;\n\n  constructor (address _custodian) {\n    custodian = _custodian;\n  }\n\n  modifier onlyCustodian() {\n    if (custodian == msg.sender) {\n      _;\n    }\n  }\n\n  modifier statePreStaked () {\n    if (keccak256(contractState) == keccak256(\"preStaked\"))  {\n      _;\n    }\n  }\n\n  modifier stateStaked () {\n    if (keccak256(contractState) == keccak256(\"staked\"))  {\n      _;\n    }\n  }\n\n  event Mint(uint256 amount, address indexed depositedTo, uint256 nonce, bytes32 mintHash);\n  event Withdraw(uint256 tokenId);\n  event TransferRequest(address indexed from, address indexed to, uint256 indexed _tokenId, bytes32 approvalHash);\n\n  function setDepositContract(address _depositContract) onlyCustodian statePreStaked public {\n    depositContract = _depositContract;\n  }\n\n  function finalizeStake () onlyCustodian statePreStaked public {\n    stakedAmount = address(this).balance;\n    mintCap = address(this).balance.div(2);\n\n    contractState = \"staked\";\n  }\n\n  uint32 public mintNonce = 0;\n\n  function mint(uint256 _value, address _to) public {\n    //might have to log the value, to, Z details\n    bytes memory value = uint256ToBytes(_value);\n    bytes memory to = addressToBytes(_to);\n    bytes memory Z = uint256ToBytes(mintNonce);\n    bytes32 mintHash = keccak256(value.concat(to).concat(Z));\n    mintLog[mintHash] = 1;\n    _mint(_to, bytes32ToUint256(mintHash));\n    emit Mint(_value, _to, mintNonce, mintHash);\n    mintNonce += 1;\n  }\n\n\n  //USED TO ANNOUNCE A WITHDRAWL (DOESNT NECESSISTATE SUBMISSION)\n  function withdraw(uint256 _tokenId) public {\n    emit Withdraw(_tokenId);\n  }\n\n\n  /* ERC721 Related Functions --------------------------------------------------*/\n  // Mapping from token ID to approved address\n  mapping (bytes32 => address) public custodianApproval;\n  \n  /**\n   * @dev Requests transfer of ownership of a given token ID to another address\n   * Usage of this method is discouraged, use `safeTransferFrom` whenever possible\n   * Requires the msg sender to be the owner, approved, or operator\n   * @param _from current owner of the token\n   * @param _to address to receive the ownership of the given token ID\n   * @param _tokenId uint256 ID of the token to be transferred\n   * @param _declaredNonce uint256 nonce, depth of transaction\n  */\n  function transferFrom(\n    address _from,\n    address _to,\n    uint256 _tokenId,\n    uint256 _declaredNonce\n  )\n    public\n  {\n    require(isApprovedOrOwner(msg.sender, _tokenId));\n    require(_from != address(0));\n    require(_to != address(0));\n    //TODO: do we need to check if declared nonce constantly increases\n\n    clearApproval(_from, _tokenId);\n    //TODO: Double check if hash is secure, no chance of collision\n    bytes32 approvalHash = keccak256(uint256ToBytes(_tokenId).concat(uint256ToBytes(_declaredNonce)));\n    custodianApproval[approvalHash] = _to;\n    emit TransferRequest(_from, _to, _tokenId, approvalHash);\n  }\n\n  function custodianApprove(uint256 _tokenId, uint256 _declaredNonce) onlyCustodian public {\n    require(exists(_tokenId));\n    bytes32 approvalHash = keccak256(uint256ToBytes(_tokenId).concat(uint256ToBytes(_declaredNonce)));\n    address _to = custodianApproval[approvalHash];\n    address _from = ownerOf(_tokenId);\n    removeTokenFrom(_from, _tokenId);\n    addTokenTo(_to, _tokenId);\n    emit Transfer(_from, _to, _tokenId);\n    clearCustodianApproval(approvalHash);\n  }\n\n  function revertTransfer(uint256 _tokenId, uint256 _declaredNonce) public {\n    require(isApprovedOrOwner(msg.sender, _tokenId), \"no approval/ not owner\");\n    clearCustodianApproval(keccak256(uint256ToBytes(_tokenId).concat(uint256ToBytes(_declaredNonce))));\n  }\n\n\n  /* View functions --------------------------------------------------*/\n  function viewTransferRequest(bytes32 _approvalHash) public view returns(address) {\n    return custodianApproval[_approvalHash];\n  }\n\n  /* Util functions --------------------------------------------------*/\n  /**\n   * @dev Internal function to clear current custodian approval of a given token ID\n   * @param _approvalHash bytes32 ID of the token to be transferred\n   */\n  function clearCustodianApproval(bytes32 _approvalHash) internal {\n    if (custodianApproval[_approvalHash] != address(0)) {\n      custodianApproval[_approvalHash] = address(0);\n    }\n  }\n\n  function bytesToBytes32(bytes b, uint offset) private pure returns (bytes32) {\n    bytes32 out;\n    for (uint i = 0; i < 32; i++) {\n      out |= bytes32(b[offset + i] & 0xFF) >> (i * 8);\n    }\n    return out;\n  }\n\n  function stringToBytes( string s) internal returns (bytes memory b3){\n    b3 = bytes(s);\n    return b3;\n  }\n\n  // Nick Johnson https://ethereum.stackexchange.com/questions/4170/how-to-convert-a-uint-to-bytes-in-solidity\n  function uint256ToBytes(uint256 x) internal returns (bytes b) {\n    b = new bytes(32);\n    assembly { mstore(add(b, 32), x) }\n  }\n\n  // Tjaden Hess https://ethereum.stackexchange.com/questions/884/how-to-convert-an-address-to-bytes-in-solidity\n  function addressToBytes(address a) internal returns (bytes b) {\n    assembly {\n        let m := mload(0x40)\n        mstore(add(m, 20), xor(0x140000000000000000000000000000000000000000, a))\n        mstore(0x40, add(m, 52))\n        b := m\n    }\n  }\n\n  // https://ethereum.stackexchange.com/questions/6498/how-to-convert-a-uint256-type-integer-into-a-bytes32\n  function bytes32ToUint256(bytes32 n) internal returns (uint256) {\n    return uint256(n);\n  }\n\n}\n",
  "sourcePath": "/Users/ben/Documents/GitHub/peaceNotRelay/contracts/TokenContract.sol",
  "compiler": {
    "name": "solc",
    "version": "0.4.24+commit.e67f0147.Emscripten.clang"
  },
  "schemaVersion": "2.0.1",
  "updatedAt": "2018-08-17T05:29:57.715Z"
}